:10000000020B9DE5BD600BE5BD64106005E5BF30EA
:10001000E01053BFFED203D2C4C2C330C304C2C671
:10002000D2C622020FA590004CE0FCA3E0FDA3E0A5
:05003000FEA3E0FF2229
:10003B00020FF153B1C543B23AD285C284C283C217
:02004B00812210
:10005300020F70120026EF24F4FFEE3401FEE43D9C
:10006300FDE43CFC90000E1202B5E490000DF0900C
:060073000015F0A3F022CD
:03007B00020FCBA6
:10008300020D8CBB010CE58229F582E5833AF583E9
:10009300E0225006E92582F8E622BBFE06E9258226
:1000A300F8E222E58229F582E5833AF583E4932297
:1000B300F8BB010DE58229F582E5833AF583E8F083
:1000C300225006E92582C8F622BBFE05E92582C82F
:1000D300F222BC000BBE0029EF8DF084FFADF022AD
:1000E300E4CCF875F008EF2FFFEE33FEEC33FCEEB3
:1000F3009DEC984005FCEE9DFE0FD5F0E9E4CEFDA6
:1001030022EDF8F5F0EE8420D21CFEADF075F00878
:10011300EF2FFFED33FD4007985006D5F0F222C3D1
:1001230098FD0FD5F0EA22BB010A89828A83E0F5A4
:10013300F0A3E022500687F009E71922BBFE07E38C
:10014300F5F009E3192289828A83E493F5F07401B7
:100153009322BB010A89828A83F0E5F0A3F022503F
:1001630006F709A7F01922BBFE06F3E5F009F31918
:1001730022E88FF0A4CC8BF0A42CFCE98EF0A42C05
:10018300FC8AF0EDA42CFCEA8EF0A4CDA8F08BF051
:10019300A42DCC3825F0FDE98FF0A42CCD35F0FC4F
:1001A300EB8EF0A4FEA9F0EB8FF0A4CFC5F02ECD1B
:1001B30039FEE43CFCEAA42DCE35F0FDE43CFC2200
:1001C30075F008758200EF2FFFEE33FECD33CDCCF3
:1001D30033CCC58233C5829BED9AEC99E582984076
:1001E3000CF582EE9BFEED9AFDEC99FC0FD5F0D653
:1001F300E4CEFBE4CDFAE4CCF9A88222B800C1B97D
:100203000059BA002DEC8BF084CFCECDFCE5F0CBBA
:10021300F97818EF2FFFEE33FEED33FDEC33FCEBF3
:1002230033FB10D703994004EB99FB0FD8E5E4F9AE
:10023300FA227818EF2FFFEE33FEED33FDEC33FC9B
:10024300C933C910D7059BE99A4007EC9BFCE99A8F
:10025300F90FD8E0E4C9FAE4CCFB2275F010EF2FD4
:10026300FFEE33FEED33FDCC33CCC833C810D707D4
:100273009BEC9AE899400AED9BFDEC9AFCE899F80F
:100283000FD5F0DAE4CDFBE4CCFAE4C8F922EB9F16
:10029300F5F0EA9E42F0E99D42F0E89C45F022E841
:1002A300600FECC313FCED13FDEE13FEEF13FFD849
:1002B300F122ECF0A3EDF0A3EEF0A3EFF022A8827D
:1002C3008583F0D083D0821202D81202D81202D8CA
:1002D3001202D8E473E493A3C583C5F0C583C8C5EC
:1002E30082C8F0A3C583C5F0C583C8C582C822D020
:1002F30083D082F8E4937012740193700DA3A393D7
:10030300F8740193F5828883E473740293B5F0065D
:100313007403936860E9A3A3A3A380D8E490003097
:10032300F0A3F0A31202C1000000009000361202F5
:10033300C100000000E490003AF0A31202C10000E3
:10034300000090003F1202C100000000A2AF92041F
:10035300C2AF75C7AA75C755E4F591A20492AF75EC
:10036300B1FFF5B275B3FFF5B475ACFFF5AD7F071B
:100373001206857595041210B1900012EFF0120F5A
:100383003012003E7B187DFC7F021209A090001200
:10039300E07005120E9B800312106D1210BA9000CC
:1003A300147401F090003B1202C10000000012001F
:1003B30026EF24E8FFEE3403FEE43DFDE43CFC902D
:1003C300003F1202B57B017A00790B7FFA120E47C8
:1003D30012002690003FE0F8A3E0F9A3E0FAA3E0BF
:1003E300FBC3120291400302048F120026900036D1
:1003F300E0F8A3E0F9A3E0FAA3E0FBC31202914003
:100403000302048F7B017A00790B7FF8120E47EF0A
:100413006056E490002AF0A3F0120026EF24C8FFF0
:10042300E43EFEE43DFDE43CFC9000361202B59050
:10043300003BE0F8A3E0F9A3E0FAA3E0FB90000B94
:10044300E0FEA3E0FFE4FCFDEB2FFFEA3EFEED3907
:10045300FDEC38FC90003B1202B590003AE004F04A
:10046300E0B41E2880348024120026EF241EFFE40B
:100473003EFEE43DFDE43CFC9000361202B59000E4
:100483002BE004F0700690002AE004F090000BE0EB
:10049300FEA3E0FF1207950203D3E47B1EFAF9F8EB
:1004A30090003BE0FCA3E0FDA3E0FEA3E0FF12010C
:1004B300FFEF240FFFE43E900017F0A3EFF0E4906A
:1004C3000014F0120513900012E07003120A581280
:1004D30010B1900012E06F6013A2AF9204C2AF7527
:1004E300C7AA75C755439F80A20492AF900014E03A
:1004F300600D90000BE0FEA3E0FF120795800B90C8
:100503000015E0FEA3E0FF120795120DF180B4225F
:1005130030870302061F900004E014603424FE6059
:10052300681470030205C7147003020602240560F1
:10053300030206849000047401F0120026EF2419CC
:10054300FFE43EFEE43DFDE43CFC9000001202B5F6
:1005530022120026900000E0F8A3E0F9A3E0FAA33A
:10056300E0FBC3120291400302068490000474036B
:10057300F0120026EF24D0FFEE3407FEE43DFDE445
:100583003CFC9000001202B522120026900000E00D
:10059300F8A3E0F9A3E0FAA3E0FBC312029140033E
:1005A3000206841210919000047404F0120026EFE6
:1005B30024F4FFEE3401FEE43DFDE43CFC90000036
:1005C3001202B522120026900000E0F8A3E0F9A37E
:1005D300E0FAA3E0FBC31202914003020684121067
:1005E300A79000047405F0120026EF24F4FFEE3404
:1005F30001FEE43DFDE43CFC9000001202B5221232
:100603000026900000E0F8A3E0F9A3E0FAA3E0FBE2
:10061300C3120291506B12109C222222900004E01C
:1006230024FC6003047055900012E0FFB4011090A5
:100633000016E004F07006900015E004F0803DEF32
:10064300703A12002690002CE0F8A3E0F9A3E0FA38
:10065300A3E0FBD31202914009900014E0FF740160
:100663009FF0120026EF24F4FFEE3401FEE43DFD7B
:10067300E43CFC90002C1202B5120056E4900004F6
:10068300F022A2AF9204C2AF75C7AA75C755439FA4
:1006930001A20492AFE4F591EF24F9600C14600E0B
:1006A3002402700D75A638800875A630800375A6E0
:1006B30030E4F5A775AF04A2AF9204C2AF75C7AA21
:1006C30075C75543A401A20492AF85AE0805A6A23F
:1006D300AF9204C2AF75C7AA75C75543A401A2045C
:1006E30092AF85AE09EF24F8600302076FE5082592
:1006F300E0FFE50954012FFF54C0F50BEF543FF51C
:100703000A74F22FFF75AF0C75A601E4F5A7A2AF2B
:100713009204C2AFA2AF9204C2AF75C7AA75C75500
:1007230043AA40A20492AF75C7AA75C75543A40153
:10073300A20492AFE5AE644B600BE5AE6452600574
:10074300E5AEB45322E50AC3940F5017E50B64409A
:10075300600BE50B64806005E50BB4C00A74F22FEF
:10076300FF800474FC2FFFEFC313F50875C7AA7548
:10077300C75585088475C7AA75C755850985A2AF6E
:100783009204C2AF75C7AA75C755539FFEA20492C0
:10079300AF22AB07AA06900012E07073900014E03A
:1007A300706DFC7DC61200D5AA04AB05EB2401FFD6
:1007B300E43AFE7C007D141200D5741A2FF582747E
:1007C300003EF583E0900043F0EB2401FFE43AC3DD
:1007D30013FEEF13FF7C007D0A1200D5741A2DF56A
:1007E3008274003CF583E02480900044F090001A6A
:1007F300E0900045F0EB4A607A90001CE0900045E1
:10080300F0EB30E06E90001BE0900045F080647CDC
:10081300037DE8AF03AE021200D5AA04AB057C004A
:100823007D0AAF03AE021200D5741A2DF58274004F
:100833003CF583E0900045F07C007D0AAF03AE02F7
:100843001200D57C007D0A1200D5741A2DF582742E
:10085300003CF583E0900044F0AE02AF037C007DE2
:10086300641200D5741A2FF58274003EF583E0906C
:100873000043F07B017A007943120CB17F0512101B
:1008830040E4900045F0900044F0900043F07B0179
:100893007A007943120CB17F05121040229000496F
:1008A300EBF0A3EAF0A3E9F0AE07D2C5121057EFBD
:1008B3006005D20302098FE5BD6408600EE5BDB48F
:1008C3004804D2C4D2C2D20302098F75BCC0C2C5C8
:1008D300121057EF6005D20302098FE5BD6418605B
:1008E30005D20302098FAF068FBC121057EF6005C4
:1008F300D20302098FE5BD64286005D20302098F84
:10090300D2C5121057EF6005D20302098FE5BD640B
:10091300106004D2038075C2C575BCC1121057EFB5
:100923006004D2038066E5BD64406004D203805C4A
:10093300E4FED2C2121057EF6004D203804EE5BD2D
:1009430064506004D2038044900049E0FBA3E0FAC2
:10095300A3E0F98E82758300E5BC1200B30EEEB4FA
:1009630002D0C2C2121057EF6004D203801EE5BD4D
:1009730064586004D2038014C2C3D2C453BFFE3090
:10098300C40A1200033003F7800280F353BFFE3022
:100993000308120003C2037F00227F012290004359
:1009A300EDF0A3EBF0A2AF9204C2AF75C7AA75C76F
:1009B30055E4F591A20492AF53C4F7F591EF24FEE9
:1009C300602124FE602524FC602924F8602D24F096
:1009D300603124E0603524C06039247F703B53C408
:1009E300F8803653C4F843C401802E53C4F843C47B
:1009F30002802653C4F843C403801E53C4F843C47F
:100A030004801653C4F843C405800E53C4F843C48A
:100A130006800653C4F843C407A2AF9204C2AF755D
:100A2300C7AA75C755E4F591A20492AF53C4EF90DA
:100A33000043E0F5C6A3E0F5C5439C02D2AFA2AFE5
:100A43009204C2AF75C7AA75C755E4F591A2049283
:100A5300AF43C4082212002690000EE0F8A3E0F989
:100A6300A3E0FAA3E0FBC31202914003020AFD12C2
:100A73000026EF242CFFEE3401FEE43DFDE43CFCB4
:100A830090000E1202B57B017A00790B7FF8120EEB
:100A930047EF6060900017E0FEA3E0FFD390000CE7
:100AA300E09F90000BE09E4031E4900013F0900033
:100AB3000DE004F0E0FFB40514900012E0700E9016
:100AC3000016E004F07006900015E004F0EFD394F4
:100AD30005402790000D7406F02290000DE0601A87
:100AE300900019E014F0E0701190000DF0900019DF
:100AF3007402F022900013E004F022AE07D2C51274
:100B03001057EF6005D203020B8CE5BD6408600447
:100B1300D2038075C2C575BCC0121057EF6004D2F2
:100B2300038066E5BD64186004D203805CAF068F62
:100B3300BC121057EF6004D203804EE5BD642860F9
:100B430004D2038044AF058FBC121057EF6004D268
:100B5300038036E5BD64286004D203802CAF038F85
:100B6300BC121057EF6004D203801EE5BD642860F9
:100B730004D2038014D2C4C2C353BFFE30C40A12CA
:100B830000033003F7800280F353BFFE30030812E3
:100B93000003C2037F00227F0122787FE4F6D8FDA1
:100BA3009000007FFF7E04E4F0A3DFFCDEFA758192
:100BB30020020BF202031FE493A3F8E493A3400380
:100BC300F68001F208DFF48029E493A3F8540724A4
:100BD3000CC8C333C4540F4420C8834004F4568064
:100BE3000146F6DFE4800B010204081020408090E8
:100BF3000D25E47E019360BCA3FF543F30E5095407
:100C03001FFEE493A360010ECF54C025E060A8400B
:100C1300B8E493A3FAE493A3F8E493A3C8C582C802
:100C2300CAC583CAF0A3C8C582C8CAC583CADFE9D7
:100C3300DEE780BE12106DA2AF9204C2AF75C7AAE1
:100C430075C755E4F59175C7AA75C75553A37BA21C
:100C53000492AFA2AF9204C2AF75C7AA75C755F588
:100C630091A20492AF75B1FFF5B275B3FFF5B475F8
:100C7300ACFFF5AD43E98043EA8053EB7F439B022E
:100C8300D2AF121012C2854387021210297F967EBB
:100C930000120EEC2087EB3087FDA2AF9204C2AFA7
:100CA30075C7AA75C755439F80A20492AF229000CF
:100CB30046EBF0A3EAF0A3E9F0C283A37402F09039
:100CC300004A7407F090004AE0FFC36480948040B8
:100CD30039C284900046E0FBA3E0FAA3E0F9A3E065
:100CE300FD3395E08D82F583120086FEA807088008
:100CF30002C313D8FC1392817F05121040D28412D1
:100D0300104090004AE014F080BB900049E014F0DA
:100D1300E0C36480948050A7D2837F0A121040C23C
:100D2300832244004C0000000050001A7E483D6DB1
:100D33004B67774C7F6F5F00000000004200150097
:100D43000042002A00004100140041001201420049
:100D53001700E144000E00000000410013004100B1
:100D63000D004100190244002C0000000044000063
:100D73000000000041000400420005FFFF4400079B
:100D830000000000C100C10100C0E0C0F0C083C08A
:100D930082C0D075D000C000C004C005C006C00723
:100DA300C091A2AF9204C2AF75C7AA75C75575911A
:100DB30000A20492AF53C4EF90004CE0FCA3E0FD0B
:100DC300A3E0FEA3E02401FFE43EFEE43DFDE43C9A
:100DD300FC90004C1202B5D091D007D006D005D0BC
:100DE30004D000D0D0D082D083D0F0D0E0329000B5
:100DF30015E0FEA3E0FF900005E06E7003A3E06F33
:100E03006027120026EF2440FFEE3477FEED341BFB
:100E1300FDE43CFC9000071202B5900015E0FFA32F
:100E2300E0900005CFF0A3EFF0120026900007E05A
:100E3300F8A3E0F9A3E0FAA3E0FBC3120291500385
:100E4300120C3722900043EBF0A3EAF0A3E9F07B06
:100E5300017A0079461208A0900048EFF09000470D
:100E6300E0FF900043E0FBA3E0FAA3E0F9E48FF096
:100E7300120155900043E0FBA3E0FAA3E0F912014D
:100E83002AFE900046E07C002400FFEC3E8FF01227
:100E93000155900048E0FF22E4FB7D01FF120AFEAA
:100EA3007BE07DF07F03120AFE7B0FE4FD7F0412DB
:100EB3000AFEE4FB7F05120AFE7B0F7DFF7F06120D
:100EC3000AFEE4FBFD7F07120AFE7B03E47F0812A0
:100ED3000AFEE4FB7D02FF120AFEE47D82FF120A92
:100EE300FE7B02E4FF120AFE22E4FCFD90004CE0CC
:100EF300F8A3E0F9A3E0FAA3E02FFFEA3EFEED3901
:100F0300FDEC38FC9000431202B590004CE0FCA3CA
:100F1300E0FDA3E0FEA3E0FF900043E0F8A3E0F9C7
:100F2300A3E0FAA3E0FBD312029150DE22A2AF9218
:100F330004C2AF75C7AA75C755E4F591A20492AF71
:100F430043B30843B408A2AF9204C2AF75C7AA75EE
:100F5300C755F591A20492AF43B31043B41075BEC5
:100F63000443BF0443BF0253BFFED2C622C0E0C046
:100F7300D075D000C007C091A2AF9204C2AF75C7AD
:100F8300AA75C75543AA40A20492AFAFAAEF544033
:100F9300F5AA60F7B292538FEFD091D007D0D0D09B
:100FA300E032C0E0C083C082C09130980AD2019081
:100FB3000050E599F0C298309905200002C299D0FB
:100FC30091D082D083D0E032C0E0C083C082C09190
:100FD30030F80A900051E59AF0D202C2F830F905D0
:100FE300200002C2F9D091D082D083D0E032C0E099
:100FF300C0D075D000C007C091759100AFECEF244D
:1010030080700353EC7FD091D007D0D0D0E032A2D0
:10101300AF9204C2AF75C7AA75C755E4F591A20490
:1010230092AF53C4F722A2AF9204C2AF75C7AA7599
:10103300C755E4F591A20492AF43C40822E4FDFC32
:10104300EFFBC3ED9B7480F86C9850070DBD000156
:101053000C80ED22C2C353BFFE20C30BE5BF30E0BB
:10106300F853BFFE7F01227F00227D017C00E4FF55
:101073001210837F03121083E41D7F041210832256
:10108300AB05AA04C007EAFBD007120AFE229000B0
:1010930012E0B4010312005622900012E0B40103DF
:1010A300120C3722900012E07003120C372230B07A
:0E10B300037F00227F012243B18053B27F22CF
:00000001FF
