:10000000020A4EE5BD600BE5BD64106005E5BF303A
:10001000E01053BFFED203D2C4C2C330C304C2C671
:10002000D2C622020E5190003DE0FCA3E0FDA3E009
:05003000FEA3E0FF2229
:10003B00020E9D53B1C543B23AD285C284C283C26C
:02004B00812210
:10005300020E1C120026EF24F4FFEE3401FEE43DF1
:10006300FDE43CFC90000E1202B5E490000DF0900C
:060073000015F0A3F022CD
:03007B00020E77FB
:10008300020BD6BB010CE58229F582E5833AF583A1
:10009300E0225006E92582F8E622BBFE06E9258226
:1000A300F8E222E58229F582E5833AF583E4932297
:1000B300F8BB010DE58229F582E5833AF583E8F083
:1000C300225006E92582C8F622BBFE05E92582C82F
:1000D300F222BC000BBE0029EF8DF084FFADF022AD
:1000E300E4CCF875F008EF2FFFEE33FEEC33FCEEB3
:1000F3009DEC984005FCEE9DFE0FD5F0E9E4CEFDA6
:1001030022EDF8F5F0EE8420D21CFEADF075F00878
:10011300EF2FFFED33FD4007985006D5F0F222C3D1
:1001230098FD0FD5F0EA22BB010A89828A83E0F5A4
:10013300F0A3E022500687F009E71922BBFE07E38C
:10014300F5F009E3192289828A83E493F5F07401B7
:100153009322BB010A89828A83F0E5F0A3F022503F
:1001630006F709A7F01922BBFE06F3E5F009F31918
:1001730022E88FF0A4CC8BF0A42CFCE98EF0A42C05
:10018300FC8AF0EDA42CFCEA8EF0A4CDA8F08BF051
:10019300A42DCC3825F0FDE98FF0A42CCD35F0FC4F
:1001A300EB8EF0A4FEA9F0EB8FF0A4CFC5F02ECD1B
:1001B30039FEE43CFCEAA42DCE35F0FDE43CFC2200
:1001C30075F008758200EF2FFFEE33FECD33CDCCF3
:1001D30033CCC58233C5829BED9AEC99E582984076
:1001E3000CF582EE9BFEED9AFDEC99FC0FD5F0D653
:1001F300E4CEFBE4CDFAE4CCF9A88222B800C1B97D
:100203000059BA002DEC8BF084CFCECDFCE5F0CBBA
:10021300F97818EF2FFFEE33FEED33FDEC33FCEBF3
:1002230033FB10D703994004EB99FB0FD8E5E4F9AE
:10023300FA227818EF2FFFEE33FEED33FDEC33FC9B
:10024300C933C910D7059BE99A4007EC9BFCE99A8F
:10025300F90FD8E0E4C9FAE4CCFB2275F010EF2FD4
:10026300FFEE33FEED33FDCC33CCC833C810D707D4
:100273009BEC9AE899400AED9BFDEC9AFCE899F80F
:100283000FD5F0DAE4CDFBE4CCFAE4C8F922EB9F16
:10029300F5F0EA9E42F0E99D42F0E89C45F022E841
:1002A300600FECC313FCED13FDEE13FEEF13FFD849
:1002B300F122ECF0A3EDF0A3EEF0A3EFF022A8827D
:1002C3008583F0D083D0821202D81202D81202D8CA
:1002D3001202D8E473E493A3C583C5F0C583C8C5EC
:1002E30082C8F0A3C583C5F0C583C8C582C822D020
:1002F30083D082F8E4937012740193700DA3A393D7
:10030300F8740193F5828883E473740293B5F0065D
:100313007403936860E9A3A3A3A380D8308703027F
:10032300042B900004E014603424FE60681470030E
:100333000203D314700302040E2405600302049025
:100343009000047401F0120026EF2419FFE43EFE2E
:10035300E43DFDE43CFC9000001202B522120026AD
:10036300900000E0F8A3E0F9A3E0FAA3E0FBC312D6
:10037300029140030204909000047403F0120026DB
:10038300EF24D0FFEE3407FEE43DFDE43CFC900097
:10039300001202B522120026900000E0F8A3E0F953
:1003A300A3E0FAA3E0FBC3120291400302049012FC
:1003B3000F3D9000047404F0120026EF24F4FFEEC6
:1003C3003401FEE43DFDE43CFC9000001202B52242
:1003D300120026900000E0F8A3E0F9A3E0FAA3E0FE
:1003E300FBC31202914003020490120F53900004C6
:1003F3007405F0120026EF24F4FFEE3401FEE43D11
:10040300FDE43CFC9000001202B52212002690008D
:1004130000E0F8A3E0F9A3E0FAA3E0FBC312029122
:10042300506B120F48222222900004E024FC600348
:10043300047055900012E0FFB40110900016E00420
:10044300F07006900015E004F0803DEF703A120062
:100453002690002AE0F8A3E0F9A3E0FAA3E0FBD397
:100463001202914009900014E0FF74019FF0120002
:1004730026EF24F4FFEE3401FEE43DFDE43CFC9062
:10048300002A1202B5120056E4900004F022A2AF33
:100493009204C2AF75C7AA75C755439F01A20492C0
:1004A300AFE4F591EF24F9600C14600E2402700D93
:1004B30075A638800875A630800375A630E4F5A7C5
:1004C30075AF04A2AF9204C2AF75C7AA75C75543EF
:1004D300A401A20492AF85AE0805A6A2AF9204C2FE
:1004E300AF75C7AA75C75543A401A20492AF85AEE1
:1004F30009EF24F8600302057BE50825E0FFE50921
:1005030054012FFF54C0F50BEF543FF50A74F22F3B
:10051300FF75AF0C75A601E4F5A7A2AF9204C2AFB5
:10052300A2AF9204C2AF75C7AA75C75543AA40A22A
:100533000492AF75C7AA75C75543A401A20492AF2D
:10054300E5AE644B600BE5AE64526005E5AEB453B3
:1005530022E50AC3940F5017E50B6440600BE50BCB
:1005630064806005E50BB4C00A74F22FFF80047445
:10057300FC2FFFEFC313F50875C7AA75C755850888
:100583008475C7AA75C755850985A2AF9204C2AF02
:1005930075C7AA75C755539FFEA20492AF22AB0736
:1005A300AA06900012E07073900014E0706DFC7D59
:1005B300C61200D5AA04AB05EB2401FFE43AFE7C86
:1005C300007D141200D5741A2FF58274003EF58352
:1005D300E0900034F0EB2401FFE43AC313FEEF1381
:1005E300FF7C007D0A1200D5741A2DF58274003C3D
:1005F300F583E02480900035F090001AE0900036F7
:10060300F0EB4A607A90001CE0900036F0EB30E0AB
:100613006E90001BE0900036F080647C037DE8AFB1
:1006230003AE021200D5AA04AB057C007D0AAF031A
:10063300AE021200D5741A2DF58274003CF583E0E6
:10064300900036F07C007D0AAF03AE021200D57C29
:10065300007D0A1200D5741A2DF58274003CF583CF
:10066300E0900035F0AE02AF037C007D641200D54C
:10067300741A2FF58274003EF583E0900034F07B0A
:10068300017A007934120B627F0A120EECE49000B7
:1006930036F0900035F0900034F07B017A00793425
:1006A300120B627F0A120EEC2290003AEBF0A3EADF
:1006B300F0A3E9F0AE07D2C5120F03EF6005D20332
:1006C300020792E5BD64086005D20302079275BC78
:1006D300C0C2C5120F03EF6005D203020792E5BD46
:1006E30064186005D203020792AF068FBC120F0392
:1006F300EF6005D203020792E5BD64286005D203CB
:10070300020792D2C5120F03EF6005D203020792CC
:10071300E5BD64106004D2038075C2C575BCC11207
:100723000F03EF6004D2038066E5BD64406004D22A
:1007330003805CE4FED2C2120F03EF6004D2038095
:100743004EE5BD64506004D203804490003AE0FB60
:10075300A3E0FAA3E0F98E82758300E5BC1200B32F
:100763000EEEB402D0C2C2120F03EF6004D20380B4
:100773001EE5BD64586004D2038014C2C3D2C453BF
:10078300BFFE30C40A1200033003F7800280F35324
:10079300BFFE300308120003C2037F00227F012241
:1007A300900034EDF0A3EBF0A2AF9204C2AF75C793
:1007B300AA75C755E4F591A20492AF53C4F7F59116
:1007C300EF24FE602124FE602524FC602924F860C8
:1007D3002D24F0603124E0603524C06039247F701B
:1007E3003B53C4F8803653C4F843C401802E53C42A
:1007F300F843C402802653C4F843C403801E53C481
:10080300F843C404801653C4F843C405800E53C48C
:10081300F843C406800653C4F843C407A2AF920446
:10082300C2AF75C7AA75C755E4F591A20492AF5339
:10083300C4EF900034E0F5C6A3E0F5C5439C02D2B3
:10084300AFA2AF9204C2AF75C7AA75C755E4F591BD
:10085300A20492AF43C40822E490002EF0A3F0A3B5
:100863001202C100000000A2AF9204C2AF75C7AA72
:1008730075C755E4F591A20492AF75B1FFF5B27552
:10088300B3FFF5B475ACFFF5AD7F07120491759511
:1008930004120F5D900012EFF0120DDC12003E7B8C
:1008A300187DFC7F021207A3900012E07005120D61
:1008B300478003120F19120F6612031F900012E0F4
:1008C3007003120909120F5D900012E06F6013A20A
:1008D300AF9204C2AF75C7AA75C755439F80A204E0
:1008E30092AF900014E0600D90000BE0FEA3E0FFD8
:1008F3001205A1800B900015E0FEA3E0FF1205A1F5
:10090300120C9D80B42212002690000EE0F8A3E0A2
:10091300F9A3E0FAA3E0FBC312029140030209AE7C
:10092300120026EF242CFFEE3401FEE43DFDE43CEF
:10093300FC90000E1202B57B017A00790B7FF8124E
:100943000CF3EF6060900017E0FEA3E0FFD390008C
:100953000CE09F90000BE09E4031E4900013F09078
:10096300000DE004F0E0FFB40514900012E0700EF7
:10097300900016E004F07006900015E004F0EFD349
:100983009405402790000D7406F02290000DE0605E
:100993001A900019E014F0E0701190000DF090002F
:1009A300197402F022900013E004F022AE07D2C5BE
:1009B300120F03EF6005D203020A3DE5BD64086030
:1009C30004D2038075C2C575BCC0120F03EF600467
:1009D300D2038066E5BD64186004D203805CAF0671
:1009E3008FBC120F03EF6004D203804EE5BD642871
:1009F3006004D2038044AF058FBC120F03EF600481
:100A0300D2038036E5BD64286004D203802CAF0393
:100A13008FBC120F03EF6004D203801EE5BD642870
:100A23006004D2038014D2C4C2C353BFFE30C40ACD
:100A33001200033003F7800280F353BFFE30030834
:100A4300120003C2037F00227F0122787FE4F6D8DD
:100A5300FD9000007FFF7E04E4F0A3DFFCDEFA7567
:100A63008120020AA302085BE493A3F8E493A34062
:100A730003F68001F208DFF48029E493A3F8540716
:100A8300240CC8C333C4540F4420C8834004F45611
:100A9300800146F6DFE4800B010204081020408049
:100AA300900C3BE47E019360BCA3FF543F30E50907
:100AB300541FFEE493A360010ECF54C025E060A849
:100AC30040B8E493A3FAE493A3F8E493A3C8C582DC
:100AD300C8CAC583CAF0A3C8C582C8CAC583CADF4A
:100AE300E9DEE780BE120F19A2AF9204C2AF75C749
:100AF300AA75C755E4F59175C7AA75C75553A37B66
:100B0300A20492AFA2AF9204C2AF75C7AA75C7552C
:100B1300F591A20492AF75B1FFF5B275B3FFF5B4C9
:100B230075ACFFF5AD43E98043EA8053EB7F439B0C
:100B330002D2AF120EBEC285438702120ED57F9634
:100B43007E00120D982087EB3087FDA2AF9204C27E
:100B5300AF75C7AA75C755439F80A20492AF229071
:100B63000037EBF0A3EAF0A3E9F0C283A37402F029
:100B730090003B7407F090003BE0FFC364809480D7
:100B83004039C284900037E0FBA3E0FAA3E0F9A365
:100B9300E0FD3395E08D82F583120086FEA80708F9
:100BA3008002C313D8FC1392817F05120EECD2840A
:100BB300120EEC90003BE014F080BB90003AE0147E
:100BC300F0E0C36480948050A7D2837F0A120EECB6
:100BD300C28322C0E0C0F0C083C082C0D075D00001
:100BE300C000C004C005C006C007C091A2AF9204F4
:100BF300C2AF75C7AA75C755759100A20492AF53CA
:100C0300C4EF90003DE0FCA3E0FDA3E0FEA3E024DD
:100C130001FFE43EFEE43DFDE43CFC90003D120296
:100C2300B5D091D007D006D005D004D000D0D0D015
:100C330082D083D0F0D0E03244003D000000005069
:100C4300001A7E483D6D4B67774C7F6F5F00000055
:100C5300000042001500004100140041001201424F
:100C6300001700E144000E000000004100130041A2
:100C7300000D004100190244002A00000000440056
:100C8300000000000041000400420005FFFF440093
:100C93000700000000C100C10100900015E0FEA3A1
:100CA300E0FF900005E06E7003A3E06F6027120081
:100CB30026EF2440FFEE3477FEED341BFDE43CFCCD
:100CC3009000071202B5900015E0FFA3E090000525
:100CD300CFF0A3EFF0120026900007E0F8A3E0F9AD
:100CE300A3E0FAA3E0FBC31202915003120AE82225
:100CF300900034EBF0A3EAF0A3E9F07B017A0079EA
:100D0300371206AC900039EFF0900038E0FF900006
:100D130034E0FBA3E0FAA3E0F9E48FF0120155906D
:100D23000034E0FBA3E0FAA3E0F912012AFE9000ED
:100D330037E07C002400FFEC3E8FF0120155900059
:100D430039E0FF22E4FB7D01FF1209AF7BD07DC0B8
:100D53007F031209AF7B0DE4FD7F041209AFE4FBAF
:100D63007F051209AF7B0F7DFF7F061209AFE4FBFE
:100D7300FD7F071209AF7B03E47F081209AFE4FB91
:100D83007D02FF1209AFE47D82FF1209AF7B02E40B
:100D9300FF1209AF22E4FCFD90003DE0F8A3E0F967
:100DA300A3E0FAA3E02FFFEA3EFEED39FDEC38FCA9
:100DB3009000341202B590003DE0FCA3E0FDA3E0F7
:100DC300FEA3E0FF900034E0F8A3E0F9A3E0FAA368
:100DD300E0FBD312029150DE22A2AF9204C2AF75A0
:100DE300C7AA75C755E4F591A20492AF43B308436C
:100DF300B408A2AF9204C2AF75C7AA75C755F591DF
:100E0300A20492AF43B31043B41075BE0443BF04AE
:100E130043BF0253BFFED2C622C0E0C0D075D0008C
:100E2300C007C091A2AF9204C2AF75C7AA75C755D8
:100E330043AA40A20492AFAFAAEF5440F5AA60F7C9
:100E4300B292538FEFD091D007D0D0D0E032C0E030
:100E5300C083C082C09130980AD201900041E599C5
:100E6300F0C298309905200002C299D091D082D067
:100E730083D0E032C0E0C083C082C09130F80A90D2
:100E83000042E59AF0D202C2F830F905200002C20E
:100E9300F9D091D082D083D0E032C0E0C0D075D0F9
:100EA30000C007C091759100AFECEF24807003532D
:100EB300EC7FD091D007D0D0D0E032A2AF9204C261
:100EC300AF75C7AA75C755E4F591A20492AF53C491
:100ED300F722A2AF9204C2AF75C7AA75C755E4F54E
:100EE30091A20492AF43C40822E4FDFCEFFBC3EDDF
:100EF3009B7480F86C9850070DBD00010C80ED22A7
:100F0300C2C353BFFE20C30BE5BF30E0F853BFFE9F
:100F13007F01227F00227D017C00E4FF120F2F7FDF
:100F230003120F2FE41D7F04120F2F22AB05AA0417
:100F3300C007EAFBD0071209AF22900012E0B40108
:100F43000312005622900012E0B40103120AE822B1
:100F5300900012E07003120AE82230B0037F0022EF
:0A0F63007F012243B18053B27F22C8
:00000001FF
