:10000000021284E5BD600BE5BD64106005E5BF30FC
:10001000E01053BFFED203D2C4C2C330C304C2C671
:10002000D2C6220216F590001AE4F0A37408F07FFD
:08003000827E38121406222220
:10003B00020056900172E0FCA3E0FDA3E0FEA3E0FA
:02004B00FF2292
:10005300021691C0E0C0D075D000C007C091759161
:1000630000AFECEF2480700353EC7FD091D007D026
:04007300D0D0E032D7
:03007B0002171B4E
:1000830002146EE709F608DFFA8046E709F208DF93
:10009300FA803E88828C83E709F0A3DFFA8032E39B
:1000A30009F608DFFA8078E309F208DFFA8070883E
:1000B300828C83E309F0A3DFFA806489828A83E078
:1000C300A3F608DFFA805889828A83E0A3F208DF67
:1000D300FA804C80D280FA80C680D4806980F28016
:1000E30033801080A680EA809A80A880DA80E2803C
:1000F300CA803389828A83ECFAE493A3C8C582C891
:10010300CCC583CCF0A3C8C582C8CCC583CCDFE9FA
:10011300DEE7800D89828A83E493A3F608DFF9EC96
:10012300FAA9F0EDFB2289828A83ECFAE0A3C8C521
:1001330082C8CCC583CCF0A3C8C582C8CCC583CC48
:10014300DFEADEE880DB89828A83E493A3F208DFB7
:10015300F980CC88F0EF60010E4E60C388F0ED2487
:1001630002B4040050B9F582EB2402B4040050AF8A
:1001730023234582239000D673BB010CE58229F526
:1001830082E5833AF583E0225006E92582F8E622E8
:10019300BBFE06E92582F8E222E58229F582E583A2
:1001A3003AF583E49322F8BB010DE58229F582E554
:1001B300833AF583E8F0225006E92582C8F622BB8C
:1001C300FE05E92582C8F222BC000BBE0029EF8D93
:1001D300F084FFADF022E4CCF875F008EF2FFFEECA
:1001E30033FEEC33FCEE9DEC984005FCEE9DFE0FD8
:1001F300D5F0E9E4CEFD22EDF8F5F0EE8420D21C33
:10020300FEADF075F008EF2FFFED33FD400798507A
:1002130006D5F0F222C398FD0FD5F0EA22C5F0F817
:10022300A3E028F0C5F0F8E582158270021583E09B
:1002330038F022BB010A89828A83E0F5F0A3E02229
:10024300500687F009E71922BBFE07E3F5F009E33F
:10025300192289828A83E493F5F074019322BB0106
:100263000A89828A83F0E5F0A3F0225006F709A7F2
:10027300F01922BBFE06F3E5F009F31922E88FF02B
:10028300A4CC8BF0A42CFCE98EF0A42CFC8AF0ED1A
:10029300A42CFCEA8EF0A4CDA8F08BF0A42DCC38CE
:1002A30025F0FDE98FF0A42CCD35F0FCEB8EF0A406
:1002B300FEA9F0EB8FF0A4CFC5F02ECD39FEE43CC0
:1002C300FCEAA42DCE35F0FDE43CFC2275F0087564
:1002D3008200EF2FFFEE33FECD33CDCC33CCC5827E
:1002E30033C5829BED9AEC99E58298400CF582EE3A
:1002F3009BFEED9AFDEC99FC0FD5F0D6E4CEFBE422
:10030300CDFAE4CCF9A88222B800C1B90059BA00E9
:100313002DEC8BF084CFCECDFCE5F0CBF97818EF44
:100323002FFFEE33FEED33FDEC33FCEB33FB10D745
:1003330003994004EB99FB0FD8E5E4F9FA22781806
:10034300EF2FFFEE33FEED33FDEC33FCC933C91061
:10035300D7059BE99A4007EC9BFCE99AF90FD8E093
:10036300E4C9FAE4CCFB2275F010EF2FFFEE33FE65
:10037300ED33FDCC33CCC833C810D7079BEC9AE8D8
:1003830099400AED9BFDEC9AFCE899F80FD5F0DA59
:10039300E4CDFBE4CCFAE4C8F922EB9FF5F0EA9E46
:1003A30042F0E99D42F0E89C45F022E8600FECC37F
:1003B30013FCED13FDEE13FEEF13FFD8F122ECF067
:1003C300A3EDF0A3EEF0A3EFF022A8828583F0D093
:1003D30083D0821203E41203E41203E41203E4E47D
:1003E30073E493A3C583C5F0C583C8C582C8F0A3CE
:1003F300C583C5F0C583C8C582C822D083D082F81F
:10040300E4937012740193700DA3A393F874019392
:10041300F5828883E473740293B5F00674039368DA
:1004230060E9A3A3A3A380D8900027EEF0A3EFF085
:10043300A3EBF0A3EAF0A3E9F0A2AF9204C2AF7575
:10044300C7AA75C755439F01A20492AFA2AF9204F6
:10045300C2AF75C7AA75C75543A501A20492AF9051
:100463000027E0FEA3E0FF547FFD90002EF0C3744D
:10047300809DFD90002DF090002CE0D39D4006A3BD
:10048300E090002CF090002FEEF0A3EFF0E490004A
:100493002DF090002CE0FFA3E0FEC39F501B9000C3
:1004A3002FE0FCA3E02EF582E43CF583E493B4FF54
:1004B3000890002DE004F080D9EE6F600302056719
:1004C30075AF21900027E0FEA3E0F5A6EEF5A7E4C3
:1004D30090002DF090002CE0FFA3E0FEC39F50326C
:1004E300900029E0FBA3E0FAA3E0F98E8275830074
:1004F30012017CF5AEA2AF9204C2AF75C7AA75C74D
:100503005543A401A20492AF05A690002DE004F088
:1005130080C2E490002DF090002CE0FFA3E0FEC326
:100523009F502F900029E0FBA3E0FAA3E0F98E820D
:1005330075830012017CFF90002FE0FCA3E02EF5F1
:1005430082E43CF583E493B5070890002DE004F0C2
:1005530080C590002CE0FFA3E06F700302068F803C
:100563000302068F900027E0FFA3E0548090002F42
:10057300CFF0A3EFF0E490002DF090002DE0FF907A
:10058300002FE0FCA3E02FF582E43CF583E493FE27
:1005930074312FF582E43400F583EEF090002DE002
:1005A30004F0E0B480D4E490002DF090002CE0FF40
:1005B300A3E0C39F5031900029E0FBA3E0FAA3E03E
:1005C300F990002DE0FFF58275830012017CFE9007
:1005D300002EE02F2431F582E43400F583EEF09011
:1005E300002DE004F080C4900027E0FEA3E05480D7
:1005F300F5A6EEF5A775AF2275AEFFA2AF9204C2C2
:10060300AF75C7AA75C75543A401A20492AF75AFCE
:1006130021E490002DF090002DE0FFC39480502A38
:1006230074312FF582E43400F583E0F5AEA2AF9286
:1006330004C2AF75C7AA75C75543A401A20492AFFC
:1006430005A690002DE004F080CCE490002DF090FE
:10065300002DE0FFC39480502BE0FE90002FE0FCC0
:10066300A3E02EF582E43CF583E493FD74312EF58B
:1006730082E43400F583E0FEEDB5060890002DE03A
:1006830004F080CBEF648060030205EAA2AF92041A
:10069300C2AF75C7AA75C755539FFEA20492AF9008
:1006A300002CE0FF22E4900002F0A3F0A31203CD9C
:1006B300000000009000081203CD00000000E49049
:1006C300000CF0A31203CD000000009000111203F0
:1006D300CD000000001217FDA2AF9204C2AF75C790
:1006E300AA75C755E4F591A20492AF75B1FFF5B2AF
:1006F30075B3FFF5B475ACFFF5AD7F07120D027549
:10070300950412181A12157890013EE0FEA3E0FF3B
:1007130090014AEEF0A3EFF0900140E0FCA3E0FD6E
:1007230090015FECF0A3EDF0EF2DFFEE3C9001673D
:10073300F0A3EFF09001611203CD00FFFFFF121849
:1007430011900146EFF01216511217C97B187DFC68
:100753007F02120FD3900146E060030208CD121509
:10076300279001497401F090000D1203CD000000A1
:100773000012003EEF24E8FFEE3403FEE43DFDE407
:100783003CFC9000111203C17B017A0179367FFA98
:100793001214D312003E900011E0F8A3E0F9A3E095
:1007A300FAA3E0FBC312039D400302088912003E33
:1007B300900008E0F8A3E0F9A3E0FAA3E0FBC3127A
:1007C300039D40030208897B017A0179367FF81281
:1007D30014D3EF6077E4900165F0A3F012003EEFCD
:1007E30024C8FFE43EFEE43DFDE43CFC9000081217
:1007F30003C190000DE0F8A3E0F9A3E0FAA3E0FB46
:10080300900136E0FEA3E0FFE4FCFDEB2FFFEA3EA0
:10081300FEED39FDEC38FC90000D1203C190000C85
:10082300E004F090014CE0FEA3E0FF900136E0FC11
:10083300A3E0FDD39FEC9E400890014CECF0A3EDA8
:10084300F090000CE0B40F3E804A803A12003EEF75
:10085300241EFFE43EFEE43DFDE43CFC9000081250
:1008630003C1900166E004F07006900165E004F0B6
:10087300D3900166E0940A900165E0940040077FFD
:10088300011217E6800E900136E0FEA3E0FF120985
:100893000D02079690000CE0FFFBE4FAF9F8A3E0E1
:1008A300FCA3E0FDA3E0FEA3E0FF12030B90000016
:1008B300EEF0A3EFF090014DE02403F090014CE043
:1008C3003400F0E4900149F080031217B3120BC90E
:1008D300900146E07003120A8D121811900146E050
:1008E3006F60031215C5900149E0600D900136E079
:1008F300FEA3E0FF12090D800B90014AE0FEA3E086
:10090300FF12090D12114280C422AB07AA069001FF
:100913006DE0603B9000157479F0900148E0FF753D
:10092300F00A84744F25F0F582E43401F583E090F6
:100933000017F0EF75F00A8475F00A84744F25F000
:10094300F582E43401F583E0900016F0020A639027
:100953000146E06401707B90015FE0FEA3E0FF7C51
:10096300037DE81201CB90015FECF0A3EDF0900161
:100973005FE0FEA3E0FF7C007D0A1201CB744F2DE4
:10098300F58274013CF583E0900017F090015FE07D
:10099300FEA3E0FF7C007D0A1201CB7C007D0A12DE
:1009A30001CB744F2DF58274013CF583E090001662
:1009B300F090015FE0FEA3E0FF7C007D641201CBB9
:1009C300744F2FF58274013EF583E0900015F00219
:1009D3000A63900149E06016900157E0900015F01A
:1009E3002480A3F0900157E0900017F080727C0000
:1009F3007DC6AF03AE021201CBAA04AB05EB240103
:100A0300FFE43AFE7C007D141201CB744F2FF58274
:100A130074013EF583E0900015F0EB2401FFE43A06
:100A2300C313FEEF13FF7C007D0A1201CB744F2D1D
:100A3300F58274013CF583E02480900016F0900168
:100A43004FE0900017F0EB4A6016900151E09000E0
:100A530017F0AF03EF30E008900150E0900017F07B
:100A63007B017A0079151213927F05121786E490A1
:100A73000017F0900016F0900015F07B017A0079D2
:100A8300151213927F051217862212003E90016EF3
:100A9300E0F8A3E0F9A3E0FAA3E0FBC312039D503F
:100AA3002290014AE07002A3E0600E90014BE02423
:100AB300FFF090014AE034FFF090016E1203CDFF86
:100AC300FFFFFF12003E90013AE0F8A3E0F9A3E034
:100AD300FAA3E0FBC312039D4003020BC87B017A18
:100AE3000179367FF81214D3EF7003020BAC1200B6
:100AF3003EEF242CFFEE3401FEE43DFDE43CFC908C
:100B0300013A1203C190014CE0FEA3E0FFD3900130
:100B130037E09F900136E09E4041E4900147F0901A
:100B23000139E004F07006900138E004F090014EC2
:100B33007405F0900138E07004A3E06405600302DB
:100B43000BC890014BE004F0700690014AE004F0FA
:100B530090016E1203CDFFFFFFFF22C3900139E026
:100B63009405900138E09400405B90014EE014F04E
:100B7300E07052900138F0A3F090014E7405F090AC
:100B8300014BE030E01812003EEF248CFFEE343CC2
:100B9300FEE43DFDE43CFC90016E1203C122900192
:100BA3006E1203CDFFFFFFFF2212003EEF240AFF68
:100BB300E43EFEE43DFDE43CFC90013A1203C190A7
:100BC3000147E004F022308703020CD2900135E0A4
:100BD30014603424FD6068147003020C7D147003E8
:100BE300020CB524066003020D019001357401F077
:100BF30012003EEF2419FFE43EFEE43DFDE43CFC1D
:100C03009001311203C12212003E900131E0F8A39A
:100C1300E0F9A3E0FAA3E0FBC312039D4003020D36
:100C2300019001357404F012003EEF24D0FFEE343E
:100C330007FEE43DFDE43CFC9001311203C12212A6
:100C4300003E900131E0F8A3E0F9A3E0FAA3E0FB52
:100C5300C312039D4003020D011200379001357446
:100C630005F012003EEF24F4FFEE3401FEE43DFDF7
:100C7300E43CFC9001311203C12212003E90013189
:100C8300E0F8A3E0F9A3E0FAA3E0FBC312039D504D
:100C93006D1218079001357406F012003EEF24F42C
:100CA300FFEE3401FEE43DFDE43CFC900131120310
:100CB300C12212003E900131E0F8A3E0F9A3E0FA6B
:100CC300A3E0FBC312039D50351217F22222229098
:100CD3000135E024FD24FD5002801E900146E0FF13
:100CE300B40110900160E004F0700690015FE0042D
:100CF300F08006EF70031216C6E4900135F022A2CD
:100D0300AF9204C2AF75C7AA75C755439F01A2042A
:100D130092AFE4F591EF24F9600C14600E24027095
:100D23000D75A638800875A630800375A630E4F5E6
:100D3300A775AF04A2AF9204C2AF75C7AA75C75512
:100D430043A401A20492AF85AE0805A6A2AF920404
:100D5300C2AF75C7AA75C75543A401A20492AF8554
:100D6300AE09EF24F86003020DECE50825E0FFE58A
:100D73000954012FFF54C0F50BEF543FF50A74F2E9
:100D83002FFF75AF0C75A601E4F5A7A2AF9204C2BD
:100D9300AFA2AF9204C2AF75C7AA75C75543AA40A5
:100DA300A20492AF75C7AA75C75543A401A20492C2
:100DB300AFE5AE644B600BE5AE64526005E5AEB4DF
:100DC3005322E50AC3940F5017E50B6440600BE50B
:100DD3000B64806005E50BB4C00A74F22FFF800436
:100DE30074FC2FFFEFC313F50875C7AA75C75585A4
:100DF300088475C7AA75C755850985A2AF9204C231
:100E0300AF75C7AA75C755539FFEA20492AF229030
:100E1300001BEBF0A3EAF0A3E9F0AE07D2C512176B
:100E23009DEF6005D203020F01E5BD6408600EE586
:100E3300BDB44804D2C4D2C2D203020F0175BCC0F0
:100E4300C2C512179DEF6005D203020F01E5BD6411
:100E5300186005D203020F01AF068FBC12179DEF76
:100E63006005D203020F01E5BD64286005D20302C9
:100E73000F01D2C512179DEF6005D203020F01E5E2
:100E8300BD64106004D2038075C2C575BCC112175E
:100E93009DEF6004D2038066E5BD64406004D20325
:100EA300805CE4FED2C212179DEF6004D203804E31
:100EB300E5BD64506004D203804490001BE0FBA3B3
:100EC300E0FAA3E0F98E82758300E5BC1201A90E56
:100ED300EEB402D0C2C212179DEF6004D203801E8B
:100EE300E5BD64586004D2038014C2C3D2C453BFA7
:100EF300FE30C40A1200033003F7800280F353BFAD
:100F0300FE300308120003C2037F00227F012290F8
:100F1300001FEEF0A3EFF0A3EBF0A3EAF0A3E9F0D8
:100F230090001FE0FCA3E0FDAE047807CEC313CE10
:100F330013D8F9FB900024E0FEA3E02DFFEC3EFE66
:100F4300EF7807CEC313CE13D8F9900026F09000A4
:100F530026E06B605690001FE0FEA3E0FFA3E0FBDA
:100F6300A3E0FAA3E0F990002C7480F012042BADF7
:100F730007ED900020E02FF090001FE03400F0ED2B
:100F8300900022E48FF0120220EDC3900025E09F31
:100F9300F0900024E09400F090001FE0FEA3E078BE
:100FA30007CEC313CE13D8F9FB80A3900024E0FC33
:100FB300A3E0FD4C601990001FE0FEA3E0FFA3E057
:100FC300FBA3E0FAA3E0F990002CEDF012042B222E
:100FD300900015EDF0A3EBF0A2AF9204C2AF75C77A
:100FE300AA75C755E4F591A20492AF53C4F7F591DE
:100FF300EF24FE602124FE602524FC602924F86090
:101003002D24F0603124E0603524C06039247F70E2
:101013003B53C4F8803653C4F843C401802E53C4F1
:10102300F843C402802653C4F843C403801E53C448
:10103300F843C404801653C4F843C405800E53C454
:10104300F843C406800653C4F843C407A2AF92040E
:10105300C2AF75C7AA75C755E4F591A20492AF5301
:10106300C4EF900015E0F5C6A3E0F5C5439C02D29A
:10107300AFA2AF9204C2AF75C7AA75C755E4F59185
:10108300A20492AF43C40822E4900015F0A3F01227
:1010930017B3A2AF9204C2AF75C7AA75C755E4F5DB
:1010A3009175C7AA75C75553A37BA20492AFA2AF8C
:1010B3009204C2AF75C7AA75C755F591A20492AF42
:1010C30075B1FFF5B275B3FFF5B475ACFFF5AD437C
:1010D300E98043EA8053EB7F439B02D2AF1217416F
:1010E300C2854387021217587F967E0012160D2081
:1010F30087EB2087177F647E0012160D900016E0A1
:1011030004F07006900015E004F080E6D39000161A
:10111300E0940F900015E094004020900144741275
:10112300F0A37435F078177C007D017B017A017997
:101133003E7E007F0812015612176F1215C52290CA
:10114300015FE0FEA3E0FF90014BE02FFF90014A17
:10115300E03EFE900167E06E7003A3E06F6034121F
:10116300003EEF2440FFEE3477FEED341BFDE43CFC
:10117300FC9001611203C190015FE0FEA3E0FF90C8
:10118300014BE02FFF90014AE03E900167F0A3EF8F
:10119300F0803490014AE0FFA3E090013ECFF0A33A
:1011A300EFF090015FE0FFA3E0900140CFF0A3EFE9
:1011B300F078177C007D017B017A01793E7E007F08
:1011C3000812015612176F12003E900161E0F8A356
:1011D300E0F9A3E0FAA3E0FBC312039D500312104E
:1011E3008B22AE07D2C512179DEF6005D203021200
:1011F30073E5BD64086004D2038075C2C575BCC0C5
:1012030012179DEF6004D2038066E5BD6418600485
:10121300D203805CAF068FBC12179DEF6004D2032C
:10122300804EE5BD64286004D2038044AF058FBCC3
:1012330012179DEF6004D2038036E5BD6428600475
:10124300D203802CAF038FBC12179DEF6004D2032F
:10125300801EE5BD64286004D2038014D2C4C2C3D7
:1012630053BFFE30C40A1200033003F7800280F339
:1012730053BFFE300308120003C2037F00227F0125
:1012830022787FE4F6D8FD9000007FFF7E04E4F02F
:10129300A3DFFCDEFA7581200212D90206A8E493CB
:1012A300A3F8E493A34003F68001F208DFF4802956
:1012B300E493A3F85407240CC8C333C4540F442045
:1012C300C8834004F456800146F6DFE4800B010234
:1012D30004081020408090131EE47E019360BCA399
:1012E300FF543F30E509541FFEE493A360010ECF82
:1012F30054C025E060A840B8E493A3FAE493A3F8AC
:10130300E493A3C8C582C8CAC583CAF0A3C8C5826B
:10131300C8CAC583CADFE9DEE780BE4401720000A4
:10132300000050014F7E483D6D4B67774C7F6F5FE8
:10133300000000000042014A000042015F00004239
:10134300016500004101490044016100FFFFFF42C4
:101353000167FFFF4101460142014C000044013A8D
:101363000000000041014700420138000041014EE6
:101373000544016EFFFFFFFF4401690000000044C4
:1013830001310000000041013500C100C10100909E
:101393000018EBF0A3EAF0A3E9F0C283A37402F010
:1013A30090001C7407F090001CE0FFC364809480DD
:1013B3004039C284900018E0FBA3E0FAA3E0F9A34C
:1013C300E0FD3395E08D82F58312017CFEA80708CA
:1013D3008002C313D8FC1392817F05121786D2842F
:1013E30012178690001CE014F080BB90001BE014E1
:1013F300F0E0C36480948050A7D2837F0A121786DB
:10140300C28322900015EEF0A3EFF0A3EBF0A3EA62
:10141300F0A3E9F0E490001CF0A3F090001AE0FEC2
:10142300A3E0FFA3E0FCA3E0FDC39FEC9E503B9031
:101433000016E02DFF900015E03C8F82F583E493C6
:10144300FF900017E0FBA3E0FAA3E0F990001CE093
:10145300A3E0F5828C83EF1201A990001DE004F054
:10146300700690001CE004F080B122C0E0C0F0C020
:1014730083C082C0D075D000C000C004C005C006C0
:10148300C007C091A2AF9204C2AF75C7AA75C75572
:10149300759100A20492AF53C4EF900172E0FCA3D4
:1014A300E0FDA3E0FEA3E02401FFE43EFEE43DFDF6
:1014B300E43CFC9001721203C1D091D007D006D056
:1014C30005D004D000D0D0D082D083D0F0D0E03289
:1014D300900015EBF0A3EAF0A3E9F07B017A007921
:1014E30018120E1290001AEFF0900019E0FF90000E
:1014F30015E0FBA3E0FAA3E0F9E48FF01202619098
:101503000015E0FBA3E0FAA3E0F9120236FE900017
:1015130018E07C002400FFEC3E8FF0120261900083
:101523001AE0FF22E4FB7D01FF1211E57BA07DF0B1
:101533007F031211E57B0FE4FD7F041211E5E4FB49
:101543007F051211E57B0F7DFF7F061211E5E4FB9A
:10155300FD7F071211E57B03E47F081211E5E4FB2D
:101563007D02FF1211E5E47D82FF1211E57B02E4A7
:10157300FF1211E5227B017A01793E1200269001C8
:1015830044E064127004A3E064346032E490013EEA
:10159300F0A3F0A3F0A3F0A3F0A3F0A37412F0A3BD
:1015A3007434F078177C007D017B017A01793E7EEB
:1015B300007F0812015612176F7E007F0122E4FE9E
:1015C300FF2290014AE0FFA3E090013ECFF0A3EF9A
:1015D300F090015FE0FFA3E0900140CFF0A3EFF0B4
:1015E30078177C007D017B017A01793E7E007F08BC
:1015F30012015612176FA2AF9204C2AF75C7AA7534
:10160300C755439F80A20492AF22E4FCFD90017270
:10161300E0F8A3E0F9A3E0FAA3E02FFFEA3EFEED32
:1016230039FDEC38FC9000171203C1900172E0FC05
:10163300A3E0FDA3E0FEA3E0FF900017E0F8A3E022
:10164300F9A3E0FAA3E0FBD312039D50DE22A2AF7D
:101653009204C2AF75C7AA75C755E4F591A2049267
:10166300AF43B30843B408A2AF9204C2AF75C7AA8D
:1016730075C755F591A20492AF43B31043B41075E7
:10168300BE0443BF0443BF0253BFFED2C622C0E021
:10169300C0D075D000C007C091A2AF9204C2AF758D
:1016A300C7AA75C75543AA40A20492AFAFAAEF5485
:1016B30040F5AA60F7B292538FEFD091D007D0D004
:1016C300D0E03212003EEF24F4FFEE3401FEE43D9D
:1016D300FDE43CFC90013A1203C1E4900138F0A30D
:1016E300F090014AF0A3F090016E1203CDFFFFFFCB
:1016F300FF22C0E0C083C082C09130980AD201901B
:101703000176E599F0C298309905200002C299D07C
:1017130091D082D083D0E032C0E0C083C082C09138
:1017230030F80A900177E59AF0D202C2F830F90551
:10173300200002C2F9D091D082D083D0E032A2AF90
:101743009204C2AF75C7AA75C755E4F591A2049276
:10175300AF53C4F722A2AF9204C2AF75C7AA75C72D
:1017630055E4F591A20492AF43C408227B017A00A9
:101773007917900024E4F0A37408F07F827E381276
:101783000F1222E4FDFCEFFBC3ED9B7480F86C9811
:1017930050070DBD00010C80ED22C2C353BFFE20D4
:1017A300C30BE5BF30E0F853BFFE7F01227F002269
:1017B3007D017C00E4FF1217D87F031217D8E41DC4
:1017C3007F041217D82253B1C543B23AD285C284DB
:1017D300C283C28122AB05AA04C007EAFBD0071269
:1017E30011E52290016D7401F0900148EFF0229011
:1017F3000146E0B4010312108B22E490016DF090D6
:101803000148F022900146E0700312108B2230B0A1
:0E181300037F00227F002243B18053B27F2268
:00000001FF
