:100000000209F2E5BD600BE5BD64106005E5BF3097
:10001000E01053BFFED203D2C4C2C330C304C2C671
:10002000D2C622020DE5900036E0FCA3E0FDA3E07D
:05003000FEA3E0FF2229
:10003B00020E3153B1C543B23AD285C284C283C2D8
:02004B00812210
:10005300020DB0120026EF24F4FFEE3401FEE43D5E
:10006300FDE43CFC90000E1202B5E490000DF0900C
:060073000014F0A3F022CE
:03007B00020E0B67
:10008300020B7ABB010CE58229F582E5833AF583FD
:10009300E0225006E92582F8E622BBFE06E9258226
:1000A300F8E222E58229F582E5833AF583E4932297
:1000B300F8BB010DE58229F582E5833AF583E8F083
:1000C300225006E92582C8F622BBFE05E92582C82F
:1000D300F222BC000BBE0029EF8DF084FFADF022AD
:1000E300E4CCF875F008EF2FFFEE33FEEC33FCEEB3
:1000F3009DEC984005FCEE9DFE0FD5F0E9E4CEFDA6
:1001030022EDF8F5F0EE8420D21CFEADF075F00878
:10011300EF2FFFED33FD4007985006D5F0F222C3D1
:1001230098FD0FD5F0EA22BB010A89828A83E0F5A4
:10013300F0A3E022500687F009E71922BBFE07E38C
:10014300F5F009E3192289828A83E493F5F07401B7
:100153009322BB010A89828A83F0E5F0A3F022503F
:1001630006F709A7F01922BBFE06F3E5F009F31918
:1001730022E88FF0A4CC8BF0A42CFCE98EF0A42C05
:10018300FC8AF0EDA42CFCEA8EF0A4CDA8F08BF051
:10019300A42DCC3825F0FDE98FF0A42CCD35F0FC4F
:1001A300EB8EF0A4FEA9F0EB8FF0A4CFC5F02ECD1B
:1001B30039FEE43CFCEAA42DCE35F0FDE43CFC2200
:1001C30075F008758200EF2FFFEE33FECD33CDCCF3
:1001D30033CCC58233C5829BED9AEC99E582984076
:1001E3000CF582EE9BFEED9AFDEC99FC0FD5F0D653
:1001F300E4CEFBE4CDFAE4CCF9A88222B800C1B97D
:100203000059BA002DEC8BF084CFCECDFCE5F0CBBA
:10021300F97818EF2FFFEE33FEED33FDEC33FCEBF3
:1002230033FB10D703994004EB99FB0FD8E5E4F9AE
:10023300FA227818EF2FFFEE33FEED33FDEC33FC9B
:10024300C933C910D7059BE99A4007EC9BFCE99A8F
:10025300F90FD8E0E4C9FAE4CCFB2275F010EF2FD4
:10026300FFEE33FEED33FDCC33CCC833C810D707D4
:100273009BEC9AE899400AED9BFDEC9AFCE899F80F
:100283000FD5F0DAE4CDFBE4CCFAE4C8F922EB9F16
:10029300F5F0EA9E42F0E99D42F0E89C45F022E841
:1002A300600FECC313FCED13FDEE13FEEF13FFD849
:1002B300F122ECF0A3EDF0A3EEF0A3EFF022A8827D
:1002C3008583F0D083D0821202D81202D81202D8CA
:1002D3001202D8E473E493A3C583C5F0C583C8C5EC
:1002E30082C8F0A3C583C5F0C583C8C582C822D020
:1002F30083D082F8E4937012740193700DA3A393D7
:10030300F8740193F5828883E473740293B5F0065D
:100313007403936860E9A3A3A3A380D8308703027F
:100323000428900004E014603424FE606814700311
:100333000203D314700302040B2405600302045365
:100343009000047401F0120026EF2419FFE43EFE2E
:10035300E43DFDE43CFC9000001202B522120026AD
:10036300900000E0F8A3E0F9A3E0FAA3E0FBC312D6
:10037300029140030204539000047403F012002618
:10038300EF24D0FFEE3407FEE43DFDE43CFC900097
:10039300001202B522120026900000E0F8A3E0F953
:1003A300A3E0FAA3E0FBC312029140030204531239
:1003B3000ED19000047404F0120026EF24F4FFEE33
:1003C3003401FEE43DFDE43CFC9000001202B52242
:1003D300120026900000E0F8A3E0F9A3E0FAA3E0FE
:1003E300FBC31202915069120EE79000047405F0EA
:1003F300120026EF24F4FFEE3401FEE43DFDE43C5D
:10040300FC9000001202B522120026900000E0F8D2
:10041300A3E0F9A3E0FAA3E0FBC312029150311267
:100423000EDC222222900004E024FD701E900012B4
:10043300E0FFB40110900015E004F0700690001482
:10044300E004F08006EF7003120056E4900004F01D
:1004530022A2AF9204C2AF75C7AA75C755439F01C5
:10046300A20492AFE4F591EF24F9600C14600E241A
:1004730002700D75A638800875A630800375A63006
:10048300E4F5A775AF04A2AF9204C2AF75C7AA750E
:10049300C75543A401A20492AF85AE0805A6A2AF37
:1004A3009204C2AF75C7AA75C75543A401A20492AB
:1004B300AF85AE09EF24F8600302053EE50825E0A9
:1004C300FFE50954012FFF54C0F50BEF543FF50A24
:1004D30074F22FFF75AF0C75A601E4F5A7A2AF92D6
:1004E30004C2AFA2AF9204C2AF75C7AA75C7554382
:1004F300AA40A20492AF75C7AA75C75543A401A227
:100503000492AFE5AE644B600BE5AE64526005E563
:10051300AEB45322E50AC3940F5017E50B64406051
:100523000BE50B64806005E50BB4C00A74F22FFF82
:10053300800474FC2FFFEFC313F50875C7AA75C7B2
:100543005585088475C7AA75C755850985A2AF92D5
:1005530004C2AF75C7AA75C755539FFEA20492AFD5
:1005630022AB07AA06900012E0706DFC7DC6120054
:10057300D5AA04AB05EB2401FFE43AFE7C007D140D
:100583001200D574172FF58274003EF583E09000B6
:100593002DF0EB2401FFE43AC313FEEF13FF7C00BD
:1005A3007D0A1200D574172DF58274003CF583E0A3
:1005B300248090002EF0900017E090002FF0EB4A7B
:1005C300607A900019E090002FF0EB30E06E90001D
:1005D30018E090002FF080647C037DE8AF03AE0247
:1005E3001200D5AA04AB057C007D0AAF03AE02124C
:1005F30000D574172DF58274003CF583E090002F2D
:10060300F07C007D0AAF03AE021200D57C007D0AA8
:100613001200D574172DF58274003CF583E0900029
:100623002EF0AE02AF037C007D641200D574172F49
:10063300F58274003EF583E090002DF07B017A0093
:10064300792D120B067F0A120E80E490002FF09092
:10065300002EF090002DF07B017A00792D120B060D
:100663007F0A120E8022900033EBF0A3EAF0A3E995
:10067300F0AE07D2C5120E97EF6005D20302074F03
:10068300E5BD64086005D20302074F75BCC0C2C54F
:10069300120E97EF6005D20302074FE5BD641860A1
:1006A30005D20302074FAF068FBC120E97EF60050A
:1006B300D20302074FE5BD64286005D20302074F4A
:1006C300D2C5120E97EF6005D20302074FE5BD6452
:1006D300106004D2038075C2C575BCC1120E97EFBA
:1006E3006004D2038066E5BD64406004D203805C8D
:1006F300E4FED2C2120E97EF6004D203804EE5BD32
:1007030064506004D2038044900033E0FBA3E0FA1A
:10071300A3E0F98E82758300E5BC1200B30EEEB43C
:1007230002D0C2C2120E97EF6004D203801EE5BD51
:1007330064586004D2038014C2C3D2C453BFFE30D2
:10074300C40A1200033003F7800280F353BFFE3064
:100753000308120003C2037F00227F012290002DB1
:10076300EDF0A3EBF0A2AF9204C2AF75C7AA75C7B1
:1007730055E4F591A20492AF53C4F7F591EF24FE2B
:10078300602124FE602524FC602924F8602D24F0D8
:10079300603124E0603524C06039247F703B53C44A
:1007A300F8803653C4F843C401802E53C4F843C4BD
:1007B30002802653C4F843C403801E53C4F843C4C1
:1007C30004801653C4F843C405800E53C4F843C4CD
:1007D30006800653C4F843C407A2AF9204C2AF75A0
:1007E300C7AA75C755E4F591A20492AF53C4EF901D
:1007F300002DE0F5C6A3E0F5C5439C02D2AFA2AF3E
:100803009204C2AF75C7AA75C755E4F591A20492C5
:10081300AF43C4082212002690000EE0F8A3E0F9CB
:10082300A3E0FAA3E0FBC312029140030208B7124C
:100833000026EF242CFFEE3401FEE43DFDE43CFCF6
:1008430090000E1202B57B017A00790B7FF8120C2F
:1008530035EF605AD390000CE0941490000BE094B1
:10086300004031E4900013F090000DE004F0E0FF4D
:10087300B40514900012E0700E900015E004F070BF
:1008830006900014E004F0EFD39405402790000D88
:100893007406F02290000DE0601A900016E014F048
:1008A300E0701190000DF09000167402F022900099
:1008B30013E004F022AE07D2C5120E97EF6005D203
:1008C30003020946E5BD64086004D2038075C2C50E
:1008D30075BCC0120E97EF6004D2038066E5BD6459
:1008E300186004D203805CAF068FBC120E97EF60D2
:1008F30004D203804EE5BD64286004D2038044AF74
:10090300058FBC120E97EF6004D2038036E5BD64F9
:10091300286004D203802CAF038FBC120E97EF60C4
:1009230004D203801EE5BD64286004D2038014D280
:10093300C4C2C353BFFE30C40A1200033003F7809E
:100943000280F353BFFE300308120003C2037F008B
:10095300227F0122E4900027F0A3F0A31202C1003A
:10096300000000A2AF9204C2AF75C7AA75C755E4D1
:10097300F591A20492AF75B1FFF5B275B3FFF5B46B
:1009830075ACFFF5AD7F07120454759504120EF193
:10099300900012EFF0120D7012003E7B187DFC7F69
:1009A30002120760900012E07005120CDB80031244
:1009B3000EAD120EFA12031F900012E0700312081C
:1009C30018120EF1900012E06F6013A2AF9204C2EE
:1009D300AF75C7AA75C755439F80A20492AF900015
:1009E30014E0FEA3E0FF120564120BDF80C7227838
:1009F3007FE4F6D8FD9000007FFF7E04E4F0A3DFE0
:100A0300FCDEFA758120020A47020957E493A3F832
:100A1300E493A34003F68001F208DFF48029E49312
:100A2300A3F85407240CC8C333C4540F4420C88309
:100A33004004F456800146F6DFE4800B010204080B
:100A430010204080900C89E47E019360BCA3FF5486
:100A53003F30E509541FFEE493A360010ECF54C059
:100A630025E060A840B8E493A3FAE493A3F8E493E1
:100A7300A3C8C582C8CAC583CAF0A3C8C582C8CAE9
:100A8300C583CADFE9DEE780BE120EADA2AF9204D2
:100A9300C2AF75C7AA75C755E4F59175C7AA75C7DF
:100AA3005553A37BA20492AFA2AF9204C2AF75C702
:100AB300AA75C755F591A20492AF75B1FFF5B2754A
:100AC300B3FFF5B475ACFFF5AD43E98043EA80535A
:100AD300EB7F439B02D2AF120E52C28543870212B1
:100AE3000E697F967E00120D2C2087EB3087FDA2C6
:100AF300AF9204C2AF75C7AA75C755439F80A204BE
:100B030092AF22900030EBF0A3EAF0A3E9F0C283A6
:100B1300A37402F09000347407F0900034E0FFC334
:100B2300648094804039C284900030E0FBA3E0FAF3
:100B3300A3E0F9A3E0FD3395E08D82F583120086EF
:100B4300FEA807088002C313D8FC1392817F051205
:100B53000E80D284120E80900034E014F080BB909B
:100B63000033E014F0E0C36480948050A7D2837F05
:100B73000A120E80C28322C0E0C0F0C083C082C0CC
:100B8300D075D000C000C004C005C006C007C09126
:100B9300A2AF9204C2AF75C7AA75C755759100A2DB
:100BA3000492AF53C4EF900036E0FCA3E0FDA3E052
:100BB300FEA3E02401FFE43EFEE43DFDE43CFC90A3
:100BC30000361202B5D091D007D006D005D004D09C
:100BD30000D0D0D082D083D0F0D0E032900014E0A7
:100BE300FEA3E0FF900005E06E7003A3E06F6027B3
:100BF300120026EF2440FFEE3477FEED341BFDE4B4
:100C03003CFC9000071202B5900014E0FFA3E090B3
:100C13000005CFF0A3EFF0120026900007E0F8A341
:100C2300E0F9A3E0FAA3E0FBC31202915003120A16
:100C33008C2290002DEBF0A3EAF0A3E9F07B017A7C
:100C4300007930120669900032EFF0900031E0FF36
:100C530090002DE0FBA3E0FAA3E0F9E48FF012018A
:100C63005590002DE0FBA3E0FAA3E0F912012AFE60
:100C7300900030E07C002400FFEC3E8FF012015521
:100C8300900032E0FF2244003600000000500017BD
:100C93007E483D6D4B67774C7F6F5F00000000001F
:100CA30042001400004100120144000E0000000045
:100CB3004100130041000D004100160244000000F2
:100CC30000000041000400420005FFFF440007004C
:100CD300000000C100C10100E4FB7D01FF1208B860
:100CE3007BD07DC07F031208B87B0DE4FD7F041227
:100CF30008B8E4FB7F051208B87B0F7DFF7F06125F
:100D030008B8E4FBFD7F071208B87B03E47F0812F1
:100D130008B8E4FB7D02FF1208B8E47D82FF1208E5
:100D2300B87B02E4FF1208B822E4FCFD900036E031
:100D3300F8A3E0F9A3E0FAA3E02FFFEA3EFEED39C2
:100D4300FDEC38FC90002D1202B5900036E0FCA3B8
:100D5300E0FDA3E0FEA3E0FF90002DE0F8A3E0F99F
:100D6300A3E0FAA3E0FBD312029150DE22A2AF92DA
:100D730004C2AF75C7AA75C755E4F591A20492AF33
:100D830043B30843B408A2AF9204C2AF75C7AA75B0
:100D9300C755F591A20492AF43B31043B41075BE87
:100DA3000443BF0443BF0253BFFED2C622C0E0C008
:100DB300D075D000C007C091A2AF9204C2AF75C76F
:100DC300AA75C75543AA40A20492AFAFAAEF5440F5
:100DD300F5AA60F7B292538FEFD091D007D0D0D05D
:100DE300E032C0E0C083C082C09130980AD2019043
:100DF300003AE599F0C298309905200002C299D0D3
:100E030091D082D083D0E032C0E0C083C082C09151
:100E130030F80A90003BE59AF0D202C2F830F905A7
:100E2300200002C2F9D091D082D083D0E032C0E05A
:100E3300C0D075D000C007C091759100AFECEF240E
:100E430080700353EC7FD091D007D0D0D0E032A292
:100E5300AF9204C2AF75C7AA75C755E4F591A20452
:100E630092AF53C4F722A2AF9204C2AF75C7AA755B
:100E7300C755E4F591A20492AF43C40822E4FDFCF4
:100E8300EFFBC3ED9B7480F86C9850070DBD000118
:100E93000C80ED22C2C353BFFE20C30BE5BF30E07D
:100EA300F853BFFE7F01227F00227D017C00E4FF17
:100EB300120EC37F03120EC3E41D7F04120EC3225E
:100EC300AB05AA04C007EAFBD0071208B8229000BA
:100ED30012E0B4010312005622900012E0B40103A1
:100EE300120A8C22900012E07003120A8C2230B096
:0E0EF300037F00227F012243B18053B27F2291
:00000001FF
