:10000000020C02E5BD600BE5BD64106005E5BF3084
:10001000E01053BFFED203D2C4C2C330C304C2C671
:10002000D2C62202103C900050E0FCA3E0FDA3E009
:05003000FEA3E0FF2229
:10003B0002005653B1C543B23AD285C284C283C2C1
:02004B00812210
:10005300020FDAC0E0C0D075D000C007C09175911F
:1000630000AFECEF2480700353EC7FD091D007D026
:04007300D0D0E032D7
:03007B000210620E
:10008300020DF8BB010CE58229F582E5833AF5837D
:10009300E0225006E92582F8E622BBFE06E9258226
:1000A300F8E222E58229F582E5833AF583E4932297
:1000B300F8BB010DE58229F582E5833AF583E8F083
:1000C300225006E92582C8F622BBFE05E92582C82F
:1000D300F222BC000BBE0029EF8DF084FFADF022AD
:1000E300E4CCF875F008EF2FFFEE33FEEC33FCEEB3
:1000F3009DEC984005FCEE9DFE0FD5F0E9E4CEFDA6
:1001030022EDF8F5F0EE8420D21CFEADF075F00878
:10011300EF2FFFED33FD4007985006D5F0F222C3D1
:1001230098FD0FD5F0EA22BB010A89828A83E0F5A4
:10013300F0A3E022500687F009E71922BBFE07E38C
:10014300F5F009E3192289828A83E493F5F07401B7
:100153009322BB010A89828A83F0E5F0A3F022503F
:1001630006F709A7F01922BBFE06F3E5F009F31918
:1001730022E88FF0A4CC8BF0A42CFCE98EF0A42C05
:10018300FC8AF0EDA42CFCEA8EF0A4CDA8F08BF051
:10019300A42DCC3825F0FDE98FF0A42CCD35F0FC4F
:1001A300EB8EF0A4FEA9F0EB8FF0A4CFC5F02ECD1B
:1001B30039FEE43CFCEAA42DCE35F0FDE43CFC2200
:1001C30075F008758200EF2FFFEE33FECD33CDCCF3
:1001D30033CCC58233C5829BED9AEC99E582984076
:1001E3000CF582EE9BFEED9AFDEC99FC0FD5F0D653
:1001F300E4CEFBE4CDFAE4CCF9A88222B800C1B97D
:100203000059BA002DEC8BF084CFCECDFCE5F0CBBA
:10021300F97818EF2FFFEE33FEED33FDEC33FCEBF3
:1002230033FB10D703994004EB99FB0FD8E5E4F9AE
:10023300FA227818EF2FFFEE33FEED33FDEC33FC9B
:10024300C933C910D7059BE99A4007EC9BFCE99A8F
:10025300F90FD8E0E4C9FAE4CCFB2275F010EF2FD4
:10026300FFEE33FEED33FDCC33CCC833C810D707D4
:100273009BEC9AE899400AED9BFDEC9AFCE899F80F
:100283000FD5F0DAE4CDFBE4CCFAE4C8F922EB9F16
:10029300F5F0EA9E42F0E99D42F0E89C45F022E841
:1002A300600FECC313FCED13FDEE13FEEF13FFD849
:1002B300F122ECF0A3EDF0A3EEF0A3EFF022A8827D
:1002C3008583F0D083D0821202D81202D81202D8CA
:1002D3001202D8E473E493A3C583C5F0C583C8C5EC
:1002E30082C8F0A3C583C5F0C583C8C582C822D020
:1002F30083D082F8E4937012740193700DA3A393D7
:10030300F8740193F5828883E473740293B5F0065D
:100313007403936860E9A3A3A3A380D8E490003493
:10032300F0A3F0A31202C10000000090003A1202F1
:10033300C100000000E490003EF0A31202C10000DF
:1003430000009000431202C100000000A2AF92041B
:10035300C2AF75C7AA75C755E4F591A20492AF75EC
:10036300B1FFF5B275B3FFF5B475ACFFF5AD7F071B
:1003730012089B759504121130121127900012EF89
:10038300F0120F9A12003E7B187DFC7F02120AAB1B
:10039300900012E060030204D1120F07900014745E
:1003A30001F090003F1202C100000000120026EF8E
:1003B30024E8FFEE3403FEE43DFDE43CFC900043FF
:1003C3001202B57B017A00790B7FFA120EB3120089
:1003D30026900043E0F8A3E0F9A3E0FAA3E0FBC30F
:1003E30012029140030204AE12002690003AE0F894
:1003F300A3E0F9A3E0FAA3E0FBC3120291400302D6
:1004030004AE7B017A00790B7FF8120EB3EF6077AD
:10041300E490002AF0A3F0120026EF24C8FFE43E84
:10042300FEE43DFDE43CFC90003A1202B590003F2F
:10043300E0F8A3E0F9A3E0FAA3E0FB90000BE0FEF1
:10044300A3E0FFE4FCFDEB2FFFEA3EFEED39FDECFC
:1004530038FC90003F1202B590003EE004F090009B
:1004630017E0FEA3E0FF90000BE0FCA3E0FDD39FA9
:10047300EC9E4008900017ECF0A3EDF090003EE0F6
:10048300B40F2880348024120026EF241EFFE43E9C
:10049300FEE43DFDE43CFC90003A1202B590002BD3
:1004A300E004F0700690002AE004F090000BE0FEF8
:1004B300A3E0FF1206590203D1900018E02402F0D2
:1004C300900017E03400F0E4900014F08003121061
:1004D300E3120521900012E0700312078012112726
:1004E300900012E06F6013A2AF9204C2AF75C7AA67
:1004F30075C755439F80A20492AF900014E0600D2E
:1005030090000BE0FEA3E0FF120659800B9000154C
:10051300E0FEA3E0FF120659120E5D80B42230877D
:100523000302062A900004E014603424FE60681479
:1005330070030205D514700302060D24056003023F
:1005430006589000047401F0120026EF2419FFE40A
:100553003EFEE43DFDE43CFC9000001202B5221295
:100563000026900000E0F8A3E0F9A3E0FAA3E0FB83
:10057300C312029140030206589000047403F01260
:100583000026EF24D0FFEE3407FEE43DFDE43CFCFF
:100593009000001202B522120026900000E0F8A39A
:1005A300E0F9A3E0FAA3E0FBC312029140030206C1
:1005B300581211079000047404F0120026EF24F47B
:1005C300FFEE3401FEE43DFDE43CFC90000012022A
:1005D300B522120026900000E0F8A3E0F9A3E0FAA8
:1005E300A3E0FBC3120291506C12111D900004741E
:1005F30005F0120026EF24F4FFEE3401FEE43DFD86
:10060300E43CFC9000001202B52212002690000088
:10061300E0F8A3E0F9A3E0FAA3E0FBC312029150D0
:1006230034121112222222900004E024FC600304FD
:10063300701E900012E0FFB40110900016E004F069
:100643007006900015E004F08006EF700312100F9F
:10065300E4900004F022AB07AA06900012E06401C4
:1006630070637C037DE81200D5AA04AB057C007D92
:100673000AAF03AE021200D5741A2DF58274003C42
:10068300F583E0900049F07C007D0AAF03AE0212CF
:1006930000D57C007D0A1200D5741A2DF5827400F2
:1006A3003CF583E0900048F07C007D64AF03AE022C
:1006B3001200D5741A2FF58274003EF583E0900082
:1006C30047F0020756900014E06016900022E09075
:1006D3000047F02480A3F0900022E0900049F080CE
:1006E300727C007DC6AF03AE021200D5AA04AB052F
:1006F300EB2401FFE43AFE7C007D141200D5741A4A
:100703002FF58274003EF583E0900047F0EB24015F
:10071300FFE43AC313FEEF13FF7C007D0A1200D5FA
:10072300741A2DF58274003CF583E0248090004810
:10073300F090001AE0900049F0EB4A601690001C1C
:10074300E0900049F0AF03EF30E00890001BE09029
:100753000049F07B017A007947120D167F051210CC
:10076300B6E4900049F0900048F0900047F07B0118
:100773007A007947120D167F051210B62212002651
:10078300900030E0F8A3E0F9A3E0FAA3E0FBC31282
:1007930002915022900015E07002A3E0600E9000D9
:1007A30016E024FFF0900015E034FFF090003012C3
:1007B30002C1FFFFFFFF12002690000EE0F8A3E046
:1007C300F9A3E0FAA3E0FBC3120291400302089AE3
:1007D3007B017A00790B7FF8120EB3EF70030208E6
:1007E3007E120026EF242CFFEE3401FEE43DFDE4EF
:1007F3003CFC90000E1202B5900017E0FEA3E0FF50
:10080300D390000CE09F90000BE09E4054E49000D6
:1008130013F090000DE004F0E0B40538900016E00A
:1008230004F07006900015E004F0900016E030E04C
:1008330019120026EF24E0FFEE342EFEE43DFDE422
:100843003CFC9000301202B5800A9000301202C1C5
:10085300FFFFFFFF90000DE0D39405403A7406F0CC
:100863002290000DE06030900019E014F0E0702752
:1008730090000DF09000197405F022120026EF2469
:100883000AFFE43EFEE43DFDE43CFC90000E120250
:10089300B5900013E004F022A2AF9204C2AF75C773
:1008A300AA75C755439F01A20492AFE4F591EF24C3
:1008B300F9600C14600E2402700D75A6388008755B
:1008C300A630800375A630E4F5A775AF04A2AF92F6
:1008D30004C2AF75C7AA75C75543A401A20492AF5A
:1008E30085AE0805A6A2AF9204C2AF75C7AA75C7A5
:1008F3005543A401A20492AF85AE09EF24F8600327
:10090300020985E50825E0FFE50954012FFF54C0DE
:10091300F50BEF543FF50A74F22FFF75AF0C75A674
:1009230001E4F5A7A2AF9204C2AFA2AF9204C2AF93
:1009330075C7AA75C75543AA40A20492AF75C7AA43
:1009430075C75543A401A20492AFE5AE644B600B97
:10095300E5AE64526005E5AEB45322E50AC3940FD5
:100963005017E50B6440600BE50B64806005E50BF5
:10097300B4C00A74F22FFF800474FC2FFFEFC3137B
:10098300F50875C7AA75C75585088475C7AA75C7BD
:1009930055850985A2AF9204C2AF75C7AA75C7551D
:1009A300539FFEA20492AF2290004DEBF0A3EAF016
:1009B300A3E9F0AE07D2C51210CDEF6005D2030252
:1009C3000A9AE5BD6408600EE5BDB44804D2C4D2FA
:1009D300C2D203020A9A75BCC0C2C51210CDEF6021
:1009E30005D203020A9AE5BD64186005D203020A20
:1009F3009AAF068FBC1210CDEF6005D203020A9A9C
:100A0300E5BD64286005D203020A9AD2C51210CD4F
:100A1300EF6005D203020A9AE5BD64106004D203B5
:100A23008075C2C575BCC11210CDEF6004D20380BE
:100A330066E5BD64406004D203805CE4FED2C2126A
:100A430010CDEF6004D203804EE5BD64506004D244
:100A530003804490004DE0FBA3E0FAA3E0F98E820B
:100A6300758300E5BC1200B30EEEB402D0C2C2120D
:100A730010CDEF6004D203801EE5BD64586004D23C
:100A8300038014C2C3D2C453BFFE30C40A1200038E
:100A93003003F7800280F353BFFE300308120003D4
:100AA300C2037F00227F0122900047EDF0A3EBF009
:100AB300A2AF9204C2AF75C7AA75C755E4F591A258
:100AC3000492AF53C4F7F591EF24FE602124FE6036
:100AD3002524FC602924F8602D24F0603124E06093
:100AE3003524C06039247F703B53C4F8803653C427
:100AF300F843C401802E53C4F843C402802653C470
:100B0300F843C403801E53C4F843C404801653C47B
:100B1300F843C405800E53C4F843C406800653C487
:100B2300F843C407A2AF9204C2AF75C7AA75C755ED
:100B3300E4F591A20492AF53C4EF900047E0F5C6E9
:100B4300A3E0F5C5439C02D2AFA2AF9204C2AF7536
:100B5300C7AA75C755E4F591A20492AF43C408220E
:100B6300AE07D2C51210CDEF6005D203020BF1E53B
:100B7300BD64086004D2038075C2C575BCC0121081
:100B8300CDEF6004D2038066E5BD64186004D20330
:100B9300805CAF068FBC1210CDEF6004D203804E91
:100BA300E5BD64286004D2038044AF058FBC1210F6
:100BB300CDEF6004D2038036E5BD64286004D20320
:100BC300802CAF038FBC1210CDEF6004D203801EC4
:100BD300E5BD64286004D2038014D2C4C2C353BFEA
:100BE300FE30C40A1200033003F7800280F353BFC0
:100BF300FE300308120003C2037F00227F01227824
:100C03007FE4F6D8FD9000007FFF7E04E4F0A3DFCD
:100C1300FCDEFA758120020C5702031FE493A3F84C
:100C2300E493A34003F68001F208DFF48029E49300
:100C3300A3F85407240CC8C333C4540F4420C883F7
:100C43004004F456800146F6DFE4800B01020408F9
:100C530010204080900D8AE47E019360BCA3FF5472
:100C63003F30E509541FFEE493A360010ECF54C047
:100C730025E060A840B8E493A3FAE493A3F8E493CF
:100C8300A3C8C582C8CAC583CAF0A3C8C582C8CAD7
:100C9300C583CADFE9DEE780BE1210E3A2AF920488
:100CA300C2AF75C7AA75C755E4F59175C7AA75C7CD
:100CB3005553A37BA20492AFA2AF9204C2AF75C7F0
:100CC300AA75C755F591A20492AF75B1FFF5B27538
:100CD300B3FFF5B475ACFFF5AD43E98043EA805348
:100CE300EB7F439B02D2AF121088C2854387021267
:100CF300109F7F967E00120F562087EB3087FDA250
:100D0300AF9204C2AF75C7AA75C755439F80A204AB
:100D130092AF2290004AEBF0A3EAF0A3E9F0C2837A
:100D2300A37402F090004E7407F090004EE0FFC3EE
:100D3300648094804039C28490004AE0FBA3E0FAC7
:100D4300A3E0F9A3E0FD3395E08D82F583120086DD
:100D5300FEA807088002C313D8FC1392817F0512F3
:100D630010B6D2841210B690004EE014F080BB90FF
:100D7300004DE014F0E0C36480948050A7D2837FD9
:100D83000A1210B6C2832244005000000000500033
:100D93001A7E483D6D4B67774C7F6F5F0000000004
:100DA30000420015000042002A00004100140041E7
:100DB300001201420017000044000E000000004131
:100DC30000130041000D0041001905440030FFFFEE
:100DD300FFFF44002C00000000440000000000005E
:100DE30041000400420005FFFF440007000000002B
:100DF300C100C10100C0E0C0F0C083C082C0D07593
:100E0300D000C000C004C005C006C007C091A2AF97
:100E13009204C2AF75C7AA75C755759100A2049213
:100E2300AF53C4EF900050E0FCA3E0FDA3E0FEA3AA
:100E3300E02401FFE43EFEE43DFDE43CFC90005071
:100E43001202B5D091D007D006D005D004D000D07F
:100E5300D0D082D083D0F0D0E032900015E0FEA352
:100E6300E0FF900005E06E7003A3E06F60271200BF
:100E730026EF2440FFEE3477FEED341BFDE43CFC0B
:100E83009000071202B5900015E0FFA3E090000563
:100E9300CFF0A3EFF0120026900007E0F8A3E0F9EB
:100EA300A3E0FAA3E0FBC31202915003120C9C22AD
:100EB300900047EBF0A3EAF0A3E9F07B017A007915
:100EC3004A1209AB90004CEFF090004BE0FF90000A
:100ED30047E0FBA3E0FAA3E0F9E48FF01201559099
:100EE3000047E0FBA3E0FAA3E0F912012AFE900019
:100EF3004AE07C002400FFEC3E8FF0120155900085
:100F03004CE0FF22E4FB7D01FF120B637B0F7D0F9F
:100F13007F03120B63E4FD7F04120B63E4FB7F0585
:100F2300120B637B0F7DFF7F06120B63E4FBFD7FD8
:100F330007120B637B03E47F08120B63E4FB7D0260
:100F4300FF120B63E47D82FF120B637B02E4FF124B
:100F53000B6322E4FCFD900050E0F8A3E0F9A3E06A
:100F6300FAA3E02FFFEA3EFEED39FDEC38FC9000DA
:100F7300471202B5900050E0FCA3E0FDA3E0FEA3FE
:100F8300E0FF900047E0F8A3E0F9A3E0FAA3E0FB59
:100F9300D312029150DE22A2AF9204C2AF75C7AA48
:100FA30075C755E4F591A20492AF43B30843B4085F
:100FB300A2AF9204C2AF75C7AA75C755F591A20433
:100FC30092AF43B31043B41075BE0443BF0443BF91
:100FD3000253BFFED2C622C0E0C0D075D000C00706
:100FE300C091A2AF9204C2AF75C7AA75C75543AAF1
:100FF30040A20492AFAFAAEF5440F5AA60F7B292B1
:10100300538FEFD091D007D0D0D0E032120026EF2B
:1010130024F4FFEE3401FEE43DFDE43CFC90000EBD
:101023001202B5E490000DF0900015F0A3F09000CB
:10103300301202C1FFFFFFFF22C0E0C083C082C0A5
:101043009130980AD201900054E599F0C2983099F2
:1010530005200002C299D091D082D083D0E032C063
:10106300E0C083C082C09130F80A900055E59AF041
:10107300D202C2F830F905200002C2F9D091D08221
:10108300D083D0E032A2AF9204C2AF75C7AA75C7AE
:1010930055E4F591A20492AF53C4F722A2AF920490
:1010A300C2AF75C7AA75C755E4F591A20492AF43C1
:1010B300C40822E4FDFCEFFBC3ED9B7480F86C983D
:1010C30050070DBD00010C80ED22C2C353BFFE20AB
:1010D300C30BE5BF30E0F853BFFE7F01227F002240
:1010E3007D017C00E4FF1210F97F031210F9E41D67
:1010F3007F041210F922AB05AA04C007EAFBD0074C
:10110300120B6322900012E0B4010312100F22901D
:101113000012E0B40103120C9C22900012E0700351
:10112300120C9C2230B0037F00227F012243B18046
:0411330053B27F2212
:00000001FF
