:10000000020A48E5BD600BE5BD64106005E5BF3040
:10001000E01053BFFED203D2C4C2C330C304C2C671
:10002000D2C622020E4690003BE0FCA3E0FDA3E016
:05003000FEA3E0FF2229
:10003B00020E9253B1C543B23AD285C284C283C277
:02004B00812210
:10005300020E11120026EF24F4FFEE3401FEE43DFC
:10006300FDE43CFC90000E1202B5E490000DF0900C
:060073000015F0A3F022CD
:03007B00020E6C06
:10008300020BD0BB010CE58229F582E5833AF583A7
:10009300E0225006E92582F8E622BBFE06E9258226
:1000A300F8E222E58229F582E5833AF583E4932297
:1000B300F8BB010DE58229F582E5833AF583E8F083
:1000C300225006E92582C8F622BBFE05E92582C82F
:1000D300F222BC000BBE0029EF8DF084FFADF022AD
:1000E300E4CCF875F008EF2FFFEE33FEEC33FCEEB3
:1000F3009DEC984005FCEE9DFE0FD5F0E9E4CEFDA6
:1001030022EDF8F5F0EE8420D21CFEADF075F00878
:10011300EF2FFFED33FD4007985006D5F0F222C3D1
:1001230098FD0FD5F0EA22BB010A89828A83E0F5A4
:10013300F0A3E022500687F009E71922BBFE07E38C
:10014300F5F009E3192289828A83E493F5F07401B7
:100153009322BB010A89828A83F0E5F0A3F022503F
:1001630006F709A7F01922BBFE06F3E5F009F31918
:1001730022E88FF0A4CC8BF0A42CFCE98EF0A42C05
:10018300FC8AF0EDA42CFCEA8EF0A4CDA8F08BF051
:10019300A42DCC3825F0FDE98FF0A42CCD35F0FC4F
:1001A300EB8EF0A4FEA9F0EB8FF0A4CFC5F02ECD1B
:1001B30039FEE43CFCEAA42DCE35F0FDE43CFC2200
:1001C30075F008758200EF2FFFEE33FECD33CDCCF3
:1001D30033CCC58233C5829BED9AEC99E582984076
:1001E3000CF582EE9BFEED9AFDEC99FC0FD5F0D653
:1001F300E4CEFBE4CDFAE4CCF9A88222B800C1B97D
:100203000059BA002DEC8BF084CFCECDFCE5F0CBBA
:10021300F97818EF2FFFEE33FEED33FDEC33FCEBF3
:1002230033FB10D703994004EB99FB0FD8E5E4F9AE
:10023300FA227818EF2FFFEE33FEED33FDEC33FC9B
:10024300C933C910D7059BE99A4007EC9BFCE99A8F
:10025300F90FD8E0E4C9FAE4CCFB2275F010EF2FD4
:10026300FFEE33FEED33FDCC33CCC833C810D707D4
:100273009BEC9AE899400AED9BFDEC9AFCE899F80F
:100283000FD5F0DAE4CDFBE4CCFAE4C8F922EB9F16
:10029300F5F0EA9E42F0E99D42F0E89C45F022E841
:1002A300600FECC313FCED13FDEE13FEEF13FFD849
:1002B300F122ECF0A3EDF0A3EEF0A3EFF022A8827D
:1002C3008583F0D083D0821202D81202D81202D8CA
:1002D3001202D8E473E493A3C583C5F0C583C8C5EC
:1002E30082C8F0A3C583C5F0C583C8C582C822D020
:1002F30083D082F8E4937012740193700DA3A393D7
:10030300F8740193F5828883E473740293B5F0065D
:100313007403936860E9A3A3A3A380D8308703027F
:10032300042B900004E014603424FE60681470030E
:100333000203D314700302040E2405600302049025
:100343009000047401F0120026EF2419FFE43EFE2E
:10035300E43DFDE43CFC9000001202B522120026AD
:10036300900000E0F8A3E0F9A3E0FAA3E0FBC312D6
:10037300029140030204909000047403F0120026DB
:10038300EF24D0FFEE3407FEE43DFDE43CFC900097
:10039300001202B522120026900000E0F8A3E0F953
:1003A300A3E0FAA3E0FBC3120291400302049012FC
:1003B3000F329000047404F0120026EF24F4FFEED1
:1003C3003401FEE43DFDE43CFC9000001202B52242
:1003D300120026900000E0F8A3E0F9A3E0FAA3E0FE
:1003E300FBC31202914003020490120F48900004D1
:1003F3007405F0120026EF24F4FFEE3401FEE43D11
:10040300FDE43CFC9000001202B52212002690008D
:1004130000E0F8A3E0F9A3E0FAA3E0FBC312029122
:10042300506B120F3D222222900004E024FC600353
:10043300047055900012E0FFB40110900016E00420
:10044300F07006900015E004F0803DEF703A120062
:1004530026900028E0F8A3E0F9A3E0FAA3E0FBD399
:100463001202914009900014E0FF74019FF0120002
:1004730026EF24F4FFEE3401FEE43DFDE43CFC9062
:1004830000281202B5120056E4900004F022A2AF35
:100493009204C2AF75C7AA75C755439F01A20492C0
:1004A300AFE4F591EF24F9600C14600E2402700D93
:1004B30075A638800875A630800375A630E4F5A7C5
:1004C30075AF04A2AF9204C2AF75C7AA75C75543EF
:1004D300A401A20492AF85AE0805A6A2AF9204C2FE
:1004E300AF75C7AA75C75543A401A20492AF85AEE1
:1004F30009EF24F8600302057BE50825E0FFE50921
:1005030054012FFF54C0F50BEF543FF50A74F22F3B
:10051300FF75AF0C75A601E4F5A7A2AF9204C2AFB5
:10052300A2AF9204C2AF75C7AA75C75543AA40A22A
:100533000492AF75C7AA75C75543A401A20492AF2D
:10054300E5AE644B600BE5AE64526005E5AEB453B3
:1005530022E50AC3940F5017E50B6440600BE50BCB
:1005630064806005E50BB4C00A74F22FFF80047445
:10057300FC2FFFEFC313F50875C7AA75C755850888
:100583008475C7AA75C755850985A2AF9204C2AF02
:1005930075C7AA75C755539FFEA20492AF22AB0736
:1005A300AA06900012E07073900014E0706DFC7D59
:1005B300C61200D5AA04AB05EB2401FFE43AFE7C86
:1005C300007D141200D574182FF58274003EF58354
:1005D300E0900032F0EB2401FFE43AC313FEEF1383
:1005E300FF7C007D0A1200D574182DF58274003C3F
:1005F300F583E02480900033F0900018E0900034FD
:10060300F0EB4A607A90001AE0900034F0EB30E0AF
:100613006E900019E0900034F080647C037DE8AFB5
:1006230003AE021200D5AA04AB057C007D0AAF031A
:10063300AE021200D574182DF58274003CF583E0E8
:10064300900034F07C007D0AAF03AE021200D57C2B
:10065300007D0A1200D574182DF58274003CF583D1
:10066300E0900033F0AE02AF037C007D641200D54E
:1006730074182FF58274003EF583E0900032F07B0E
:10068300017A007932120B5C7F0A120EE1E49000CA
:1006930034F0900033F0900032F07B017A0079322D
:1006A300120B5C7F0A120EE122900038EBF0A3EAF2
:1006B300F0A3E9F0AE07D2C5120EF8EF6005D2033E
:1006C300020792E5BD64086005D20302079275BC78
:1006D300C0C2C5120EF8EF6005D203020792E5BD52
:1006E30064186005D203020792AF068FBC120EF89E
:1006F300EF6005D203020792E5BD64286005D203CB
:10070300020792D2C5120EF8EF6005D203020792D8
:10071300E5BD64106004D2038075C2C575BCC11207
:100723000EF8EF6004D2038066E5BD64406004D236
:1007330003805CE4FED2C2120EF8EF6004D20380A1
:100743004EE5BD64506004D2038044900038E0FB62
:10075300A3E0FAA3E0F98E82758300E5BC1200B32F
:100763000EEEB402D0C2C2120EF8EF6004D20380C0
:100773001EE5BD64586004D2038014C2C3D2C453BF
:10078300BFFE30C40A1200033003F7800280F35324
:10079300BFFE300308120003C2037F00227F012241
:1007A300900032EDF0A3EBF0A2AF9204C2AF75C795
:1007B300AA75C755E4F591A20492AF53C4F7F59116
:1007C300EF24FE602124FE602524FC602924F860C8
:1007D3002D24F0603124E0603524C06039247F701B
:1007E3003B53C4F8803653C4F843C401802E53C42A
:1007F300F843C402802653C4F843C403801E53C481
:10080300F843C404801653C4F843C405800E53C48C
:10081300F843C406800653C4F843C407A2AF920446
:10082300C2AF75C7AA75C755E4F591A20492AF5339
:10083300C4EF900032E0F5C6A3E0F5C5439C02D2B5
:10084300AFA2AF9204C2AF75C7AA75C755E4F591BD
:10085300A20492AF43C40822E490002CF0A3F0A3B7
:100863001202C100000000A2AF9204C2AF75C7AA72
:1008730075C755E4F591A20492AF75B1FFF5B27552
:10088300B3FFF5B475ACFFF5AD7F07120491759511
:1008930004120F52900012EFF0120DD112003E7BA2
:1008A300187DFC7F021207A3900012E07005120D61
:1008B3003C8003120F0E120F5B12031F900012E015
:1008C3007003120909120F52900012E06F6013A215
:1008D300AF9204C2AF75C7AA75C755439F80A204E0
:1008E30092AF900014E0600D90000BE0FEA3E0FFD8
:1008F3001205A1800B900015E0FEA3E0FF1205A1F5
:10090300120C9280B42212002690000EE0F8A3E0AD
:10091300F9A3E0FAA3E0FBC312029140030209A882
:10092300120026EF242CFFEE3401FEE43DFDE43CEF
:10093300FC90000E1202B57B017A00790B7FF8124E
:100943000CE8EF605AD390000CE094E190000BE0C8
:1009530094004031E4900013F090000DE004F0E0C7
:10096300FFB40514900012E0700E900016E004F03E
:100973007006900015E004F0EFD394054027900033
:100983000D7406F02290000DE0601A900017E01439
:10099300F0E0701190000DF09000177402F02290B7
:1009A3000013E004F022AE07D2C5120EF8EF600583
:1009B300D203020A37E5BD64086004D2038075C21E
:1009C300C575BCC0120EF8EF6004D2038066E5BDA6
:1009D30064186004D203805CAF068FBC120EF8EF7C
:1009E3006004D203804EE5BD64286004D2038044D2
:1009F300AF058FBC120EF8EF6004D2038036E5BD5D
:100A030064286004D203802CAF038FBC120EF8EF6E
:100A13006004D203801EE5BD64286004D203801401
:100A2300D2C4C2C353BFFE30C40A1200033003F75B
:100A3300800280F353BFFE300308120003C2037F1A
:100A430000227F0122787FE4F6D8FD9000007FFF2B
:100A53007E04E4F0A3DFFCDEFA758120020A9D0226
:100A6300085BE493A3F8E493A34003F68001F20840
:100A7300DFF48029E493A3F85407240CC8C333C4D8
:100A8300540F4420C8834004F456800146F6DFE443
:100A9300800B0102040810204080900C35E47E0195
:100AA3009360BCA3FF543F30E509541FFEE493A3B6
:100AB30060010ECF54C025E060A840B8E493A3FAC8
:100AC300E493A3F8E493A3C8C582C8CAC583CAF054
:100AD300A3C8C582C8CAC583CADFE9DEE780BE12E0
:100AE3000F0EA2AF9204C2AF75C7AA75C755E4F53E
:100AF3009175C7AA75C75553A37BA20492AFA2AF42
:100B03009204C2AF75C7AA75C755F591A20492AFF7
:100B130075B1FFF5B275B3FFF5B475ACFFF5AD4331
:100B2300E98043EA8053EB7F439B02D2AF120EB3BB
:100B3300C285438702120ECA7F967E00120D8D2056
:100B430087EB3087FDA2AF9204C2AF75C7AA75C702
:100B530055439F80A20492AF22900035EBF0A3EAA5
:100B6300F0A3E9F0C283A37402F09000397407F094
:100B7300900039E0FFC3648094804039C2849000C0
:100B830035E0FBA3E0FAA3E0F9A3E0FD3395E08DA4
:100B930082F583120086FEA807088002C313D8FCDF
:100BA3001392817F05120EE1D284120EE190003977
:100BB300E014F080BB900038E014F0E0C36480944C
:100BC3008050A7D2837F0A120EE1C28322C0E0C005
:100BD300F0C083C082C0D075D000C000C004C0057F
:100BE300C006C007C091A2AF9204C2AF75C7AA7571
:100BF300C755759100A20492AF53C4EF90003BE038
:100C0300FCA3E0FDA3E0FEA3E02401FFE43EFEE439
:100C13003DFDE43CFC90003B1202B5D091D007D0DF
:100C230006D005D004D000D0D0D082D083D0F0D06D
:100C3300E03244003B000000005000187E483D6D48
:100C43004B67774C7F6F5F00000000004200150088
:100C530000410014004100120144000E0000000096
:100C63004100130041000D00410017024400280019
:100C730000000044000000000000410004004200A6
:100C830005FFFF44000700000000C100C101009000
:100C93000015E0FEA3E0FF900005E06E7003A3E003
:100CA3006F6027120026EF2440FFEE3477FEED3409
:100CB3001BFDE43CFC9000071202B5900015E0FF19
:100CC300A3E0900005CFF0A3EFF0120026900007F9
:100CD300E0F8A3E0F9A3E0FAA3E0FBC3120291500A
:100CE30003120AE222900032EBF0A3EAF0A3E9F048
:100CF3007B017A0079351206AC900037EFF0900053
:100D030036E0FF900032E0FBA3E0FAA3E0F9E48FC2
:100D1300F0120155900032E0FBA3E0FAA3E0F912D0
:100D2300012AFE900035E07C002400FFEC3E8FF0AA
:100D3300120155900037E0FF22E4FB7D01FF120909
:100D4300A97BD07DC07F031209A97B0DE4FD7F043D
:100D53001209A9E4FB7F051209A97B0F7DFF7F061A
:100D63001209A9E4FBFD7F071209A97B03E47F08AD
:100D73001209A9E4FB7D02FF1209A9E47D82FF1297
:100D830009A97B02E4FF1209A922E4FCFD90003BC0
:100D9300E0F8A3E0F9A3E0FAA3E02FFFEA3EFEEDBB
:100DA30039FDEC38FC9000321202B590003BE0FCB8
:100DB300A3E0FDA3E0FEA3E0FF900032E0F8A3E090
:100DC300F9A3E0FAA3E0FBD312029150DE22A2AF13
:100DD3009204C2AF75C7AA75C755E4F591A20492F0
:100DE300AF43B30843B408A2AF9204C2AF75C7AA16
:100DF30075C755F591A20492AF43B31043B4107570
:100E0300BE0443BF0443BF0253BFFED2C622C0E0A9
:100E1300C0D075D000C007C091A2AF9204C2AF7515
:100E2300C7AA75C75543AA40A20492AFAFAAEF540D
:100E330040F5AA60F7B292538FEFD091D007D0D08C
:100E4300D0E032C0E0C083C082C09130980AD201A2
:100E530090003FE599F0C298309905200002C299AD
:100E6300D091D082D083D0E032C0E0C083C082C0B2
:100E73009130F80A900040E59AF0D202C2F830F9B6
:100E830005200002C2F9D091D082D083D0E032C0D5
:100E9300E0C0D075D000C007C091759100AFECEFF2
:100EA3002480700353EC7FD091D007D0D0D0E032B0
:100EB300A2AF9204C2AF75C7AA75C755E4F591A254
:100EC3000492AF53C4F722A2AF9204C2AF75C7AA6C
:100ED30075C755E4F591A20492AF43C40822E4FD1B
:100EE300FCEFFBC3ED9B7480F86C9850070DBD00BD
:100EF300010C80ED22C2C353BFFE20C30BE5BF30FC
:100F0300E0F853BFFE7F01227F00227D017C00E4D5
:100F1300FF120F247F03120F24E41D7F04120F24FA
:100F230022AB05AA04C007EAFBD0071209A9229045
:100F33000012E0B4010312005622900012E0B40143
:100F430003120AE222900012E07003120AE2223036
:0F0F5300B0037F00227F012243B18053B27F227F
:00000001FF
