:100000000212DC90018D745AF0A304F078177C0082
:100010007D017B017A0179877E007F0812015612EB
:100020001A042202192590013BE0FB90013AE0906E
:10003000001AF07D017F0412140C22021995900120
:1000400031E0FB900168E090001AF07D017F03121F
:10005000140C220218C1EFD3940F4007900177E0EF
:10006000FF8005900173E0FF900179E0FB90001A9A
:0E007000EFF0E4FD7F0312140C222202194B64
:100083000216D1E709F608DFFA8046E709F208DF2E
:10009300FA803E88828C83E709F0A3DFFA8032E39B
:1000A30009F608DFFA8078E309F208DFFA8070883E
:1000B300828C83E309F0A3DFFA806489828A83E078
:1000C300A3F608DFFA805889828A83E0A3F208DF67
:1000D300FA804C80D280FA80C680D4806980F28016
:1000E30033801080A680EA809A80A880DA80E2803C
:1000F300CA803389828A83ECFAE493A3C8C582C891
:10010300CCC583CCF0A3C8C582C8CCC583CCDFE9FA
:10011300DEE7800D89828A83E493A3F608DFF9EC96
:10012300FAA9F0EDFB2289828A83ECFAE0A3C8C521
:1001330082C8CCC583CCF0A3C8C582C8CCC583CC48
:10014300DFEADEE880DB89828A83E493A3F208DFB7
:10015300F980CC88F0EF60010E4E60C388F0ED2487
:1001630002B4040050B9F582EB2402B4040050AF8A
:1001730023234582239000D673BB010CE58229F526
:1001830082E5833AF583E0225006E92582F8E622E8
:10019300BBFE06E92582F8E222E58229F582E583A2
:1001A3003AF583E49322F8BB010DE58229F582E554
:1001B300833AF583E8F0225006E92582C8F622BB8C
:1001C300FE05E92582C8F222BC000BBE0029EF8D93
:1001D300F084FFADF022E4CCF875F008EF2FFFEECA
:1001E30033FEEC33FCEE9DEC984005FCEE9DFE0FD8
:1001F300D5F0E9E4CEFD22EDF8F5F0EE8420D21C33
:10020300FEADF075F008EF2FFFED33FD400798507A
:1002130006D5F0F222C398FD0FD5F0EA22C5F0F817
:10022300A3E028F0C5F0F8E582158270021583E09B
:1002330038F022BB010A89828A83E0F5F0A3E02229
:10024300500687F009E71922BBFE07E3F5F009E33F
:10025300192289828A83E493F5F074019322BB0106
:100263000A89828A83F0E5F0A3F0225006F709A7F2
:10027300F01922BBFE06F3E5F009F31922E88FF02B
:10028300A4CC8BF0A42CFCE98EF0A42CFC8AF0ED1A
:10029300A42CFCEA8EF0A4CDA8F08BF0A42DCC38CE
:1002A30025F0FDE98FF0A42CCD35F0FCEB8EF0A406
:1002B300FEA9F0EB8FF0A4CFC5F02ECD39FEE43CC0
:1002C300FCEAA42DCE35F0FDE43CFC2275F0087564
:1002D3008200EF2FFFEE33FECD33CDCC33CCC5827E
:1002E30033C5829BED9AEC99E58298400CF582EE3A
:1002F3009BFEED9AFDEC99FC0FD5F0D6E4CEFBE422
:10030300CDFAE4CCF9A88222B800C1B90059BA00E9
:100313002DEC8BF084CFCECDFCE5F0CBF97818EF44
:100323002FFFEE33FEED33FDEC33FCEB33FB10D745
:1003330003994004EB99FB0FD8E5E4F9FA22781806
:10034300EF2FFFEE33FEED33FDEC33FCC933C91061
:10035300D7059BE99A4007EC9BFCE99AF90FD8E093
:10036300E4C9FAE4CCFB2275F010EF2FFFEE33FE65
:10037300ED33FDCC33CCC833C810D7079BEC9AE8D8
:1003830099400AED9BFDEC9AFCE899F80FD5F0DA59
:10039300E4CDFBE4CCFAE4C8F922EB9FF5F0EA9E46
:1003A30042F0E99D42F0E89C45F022E8600FECC37F
:1003B30013FCED13FDEE13FEEF13FFD8F122ECF067
:1003C300A3EDF0A3EEF0A3EFF022A8828583F0D093
:1003D30083D0821203E41203E41203E41203E4E47D
:1003E30073E493A3C583C5F0C583C8C582C8F0A3CE
:1003F300C583C5F0C583C8C582C822D083D082F81F
:10040300E4937012740193700DA3A393F874019392
:10041300F5828883E473740293B5F00674039368DA
:1004230060E9A3A3A3A380D8900027EEF0A3EFF085
:10043300A3EBF0A3EAF0A3E9F0A2AF9204C2AF7575
:10044300C7AA75C755439F01A20492AFA2AF9204F6
:10045300C2AF75C7AA75C75543A501A20492AF9051
:100463000027E0FEA3E0FF547FFD90002EF0C3744D
:10047300809DFD90002DF090002CE0D39D4006A3BD
:10048300E090002CF090002FEEF0A3EFF0E490004A
:100493002DF090002CE0FFA3E0FEC39F501B9000C3
:1004A3002FE0FCA3E02EF582E43CF583E493B4FF54
:1004B3000890002DE004F080D9EE6F600302056719
:1004C30075AF21900027E0FEA3E0F5A6EEF5A7E4C3
:1004D30090002DF090002CE0FFA3E0FEC39F50326C
:1004E300900029E0FBA3E0FAA3E0F98E8275830074
:1004F30012017CF5AEA2AF9204C2AF75C7AA75C74D
:100503005543A401A20492AF05A690002DE004F088
:1005130080C2E490002DF090002CE0FFA3E0FEC326
:100523009F502F900029E0FBA3E0FAA3E0F98E820D
:1005330075830012017CFF90002FE0FCA3E02EF5F1
:1005430082E43CF583E493B5070890002DE004F0C2
:1005530080C590002CE0FFA3E06F700302068F803C
:100563000302068F900027E0FFA3E0548090002F42
:10057300CFF0A3EFF0E490002DF090002DE0FF907A
:10058300002FE0FCA3E02FF582E43CF583E493FE27
:1005930074312FF582E43400F583EEF090002DE002
:1005A30004F0E0B480D4E490002DF090002CE0FF40
:1005B300A3E0C39F5031900029E0FBA3E0FAA3E03E
:1005C300F990002DE0FFF58275830012017CFE9007
:1005D300002EE02F2431F582E43400F583EEF09011
:1005E300002DE004F080C4900027E0FEA3E05480D7
:1005F300F5A6EEF5A775AF2275AEFFA2AF9204C2C2
:10060300AF75C7AA75C75543A401A20492AF75AFCE
:1006130021E490002DF090002DE0FFC39480502A38
:1006230074312FF582E43400F583E0F5AEA2AF9286
:1006330004C2AF75C7AA75C75543A401A20492AFFC
:1006430005A690002DE004F080CCE490002DF090FE
:10065300002DE0FFC39480502BE0FE90002FE0FCC0
:10066300A3E02EF582E43CF583E493FD74312EF58B
:1006730082E43400F583E0FEEDB5060890002DE03A
:1006830004F080CBEF648060030205EAA2AF92041A
:10069300C2AF75C7AA75C755539FFEA20492AF9008
:1006A300002CE0FF22E4900002F0A3F0A31203CD9C
:1006B300000000009000081203CD00000000E49049
:1006C300000CF0A31203CD000000009000111203F0
:1006D300CD00000000121AB6A2AF9204C2AF75C7D4
:1006E300AA75C755E4F591A20492AF75B1FFF5B2AF
:1006F30075B3FFF5B475ACFFF5AD7F07120EA175A9
:100703009504121AD31217E790018BE0FFA3E09030
:100713000195CFF0A3EFF09001AA1203CD00FFFFE4
:10072300FF121ACA90018FEFF0121790121A907BE2
:10073300187DFC7F0212117F121736EF4E70057F72
:1007430001121A9F90018FE060030208E290000DEE
:100753001203CD00000000121A81EF24E8FFEE34EB
:1007630003FEE43DFDE43CFC9000111203C1900143
:1007730095E07002A3E060030208DD90019204F0AB
:10078300121A81900011E0F8A3E0F9A3E0FAA3E0C4
:10079300FBC312039D4003020874121A81900008E0
:1007A300E0F8A3E0F9A3E0FAA3E0FBC312039D4042
:1007B300030208747B017A01797F121971EF607764
:1007C300E49001AEF0A3F0121A81EF24C8FFE43ED7
:1007D300FEE43DFDE43CFC9000081203C190000DD3
:1007E300E0F8A3E0F9A3E0FAA3E0FB90017FE0FEC9
:1007F300A3E0FFE4FCFDEB2FFFEA3EFEED39FDEC49
:1008030038FC90000D1203C190000CE004F090013D
:1008130095E0FEA3E0FF90017FE0FCA3E0FDD39F02
:10082300EC9E4008900195ECF0A3EDF090000CE0F5
:10083300B40F3E804A803A121A81EF241EFFE43E31
:10084300FEE43DFDE43CFC9000081203C19001AFBF
:10085300E004F070069001AEE004F0D39001AFE045
:10086300940A9001AEE0940040077F02121A9F8021
:100873000E90017FE0FEA3E0FF120AAE0207839011
:1008830001AEE07002A3E0705190000CE0FFFBE4C6
:10089300FAF9F8A3E0FCA3E0FDA3E0FEA3E0FF1256
:1008A300030B900000EEF0A3EFF0900196E024021A
:1008B300F0900195E03400F0E0FFA3E090018BCFCE
:1008C300F0A3EFF078177C007D017B017A01798733
:1008D3007E007F08120156121A04E4900192F090F0
:1008E30000111203CD00000000120D6890018FE08B
:1008F3007003120C2E121ACA90018FE06F6003125C
:100903001A48900193E0FEA3E0FF120AAE1215FC11
:1009130080D7224401BB000000005001987E483D6F
:100923006D4B67774C7F6F5F0000000000420193BF
:1009330000004201A800004201AE00004101920004
:100943004401AA00FFFFFF4201B0FFFF41018F01F5
:100953004201950000440183000000004101900022
:100963004201810000410197054401B7FFFFFFFFEA
:100973004401B20000000044017A0000000041017C
:100983007E004101583F4101470041015A80410126
:10099300594041015BC041016BF341016F004101CB
:1009A3007004410172084101760C410136FD410199
:1009B300650041013C02410157FE410143004101F1
:1009C30064014101513F4101710041017440410102
:1009D3004280410141C0410149CF41014A004101E7
:1009E3004B1041014C2041014D30410135F1410192
:1009F300660041013D024101670441013E06410198
:100A0300690841013F0A41016A0C41016E0E41012F
:100A130031FE4101680041014501410179F741017E
:100A230073004101770841015FFC4101440041012A
:100A33004601410162024101600341013BEF410173
:100A4300610041013A10410178F74101560041012B
:100A53007508410148FB410139044101637F4101AC
:100A63006D0041015380410138BF41015D004101E7
:100A7300344041016CF84101320041013701410129
:100A83004E02410150034101520441015405410109
:100A9300550641014F0741015E20410133104101D9
:100AA300400241015C01C100C10100AB07AA0690ED
:100AB30001B6E0603B9000157437F0900191E0FFC0
:100AC30075F00A84749825F0F582E43401F583E027
:100AD300900017F0EF75F00A8475F00A8474982576
:100AE300F0F582E43401F583E0900016F0020C0483
:100AF30090018FE06401707B9001A8E0FEA3E0FF0A
:100B03007C037DE81201CB9001A8ECF0A3EDF090FB
:100B130001A8E0FEA3E0FF7C007D0A1201CB7498DC
:100B23002DF58274013CF583E0900017F09001A845
:100B3300E0FEA3E0FF7C007D0A1201CB7C007D0A6E
:100B43001201CB74982DF58274013CF583E090007B
:100B530016F09001A8E0FEA3E0FF7C007D64120183
:100B6300CB74982FF58274013EF583E0900015F065
:100B7300020C04900192E060169001A0E090001531
:100B8300F02480A3F09001A0E0900017F080727C25
:100B9300007DC6AF03AE021201CBAA04AB05EB2462
:100BA30001FFE43AFE7C007D141201CB74982FF50B
:100BB3008274013EF583E0900015F0EB2401FFE41D
:100BC3003AC313FEEF13FF7C007D0A1201CB749826
:100BD3002DF58274013CF583E02480900016F0909B
:100BE3000198E0900017F0EB4A601690019AE090AC
:100BF3000017F0AF03EF30E008900199E090001781
:100C0300F07B017A0079151215167F05121A1BE481
:100C1300900017F0900016F0900015F07B017A0019
:100C230079151215167F05121A1B22121A819001CB
:100C3300B7E0F8A3E0F9A3E0FAA3E0FBC312039D36
:100C43005022900193E07002A3E0600E900194E0C3
:100C530024FFF0900193E034FFF09001B71203CD2D
:100C6300FFFFFFFF121A81900183E0F8A3E0F9A3CD
:100C7300E0FAA3E0FBC312039D4003020D677B016F
:100C83007A01797F121971EF7003020D4B121A81E9
:100C9300EF242CFFEE3401FEE43DFDE43CFC900127
:100CA300831203C1900195E0FEA3E0FFD39001807E
:100CB300E09F90017FE09E4041E4900190F090011D
:100CC30082E004F07006900181E004F090019774D3
:100CD30005F0900181E07004A3E064056003020D58
:100CE30067900194E004F07006900193E004F090A3
:100CF30001B71203CDFFFFFFFF22C3900182E094EF
:100D030005900181E09400405B900197E014F0E0CE
:100D13007052900181F0A3F09001977405F0900157
:100D230094E030E018121A81EF248CFFEE343CFE7D
:100D3300E43DFDE43CFC9001B71203C1229001B7EE
:100D43001203CDFFFFFFFF22121A81EF240AFFE4F3
:100D53003EFEE43DFDE43CFC9001831203C190019F
:100D630090E004F022308703020E7190017EE014BC
:100D7300603424FD6068147003020E1C14700302B7
:100D83000E5424066003020EA090017E7401F0123B
:100D93001A81EF2419FFE43EFEE43DFDE43CFC90A0
:100DA300017A1203C122121A8190017AE0F8A3E0BA
:100DB300F9A3E0FAA3E0FBC312039D4003020EA0D4
:100DC30090017E7404F0121A81EF24D0FFEE3407F1
:100DD300FEE43DFDE43CFC90017A1203C122121AA9
:100DE3008190017AE0F8A3E0F9A3E0FAA3E0FBC362
:100DF30012039D4003020EA012007A90017E740537
:100E0300F0121A81EF24F4FFEE3401FEE43DFDE419
:100E13003CFC90017A1203C122121A8190017AE0FC
:100E2300F8A3E0F9A3E0FAA3E0FBC312039D506D1E
:100E3300121AC090017E7406F0121A81EF24F4FF97
:100E4300EE3401FEE43DFDE43CFC90017A1203C163
:100E530022121A8190017AE0F8A3E0F9A3E0FAA341
:100E6300E0FBC312039D5035121AAB2222229001DC
:100E73007EE024FD24FD5002801E90018FE0FFB42C
:100E830001109001A9E004F070069001A8E004F0BD
:100E93008006EF70031218F6E490017EF022A2AFF1
:100EA3009204C2AF75C7AA75C755439F01A20492A6
:100EB300AFE4F591EF24F9600C14600E2402700D79
:100EC30075A638800875A630800375A630E4F5A7AB
:100ED30075AF04A2AF9204C2AF75C7AA75C75543D5
:100EE300A401A20492AF85AE0805A6A2AF9204C2E4
:100EF300AF75C7AA75C75543A401A20492AF85AEC7
:100F030009EF24F86003020F8BE50825E0FFE509EC
:100F130054012FFF54C0F50BEF543FF50A74F22F21
:100F2300FF75AF0C75A601E4F5A7A2AF9204C2AF9B
:100F3300A2AF9204C2AF75C7AA75C75543AA40A210
:100F43000492AF75C7AA75C75543A401A20492AF13
:100F5300E5AE644B600BE5AE64526005E5AEB45399
:100F630022E50AC3940F5017E50B6440600BE50BB1
:100F730064806005E50BB4C00A74F22FFF8004742B
:100F8300FC2FFFEFC313F50875C7AA75C75585086E
:100F93008475C7AA75C755850985A2AF9204C2AFE8
:100FA30075C7AA75C755539FFEA20492AF22AE0719
:100FB300D2C5121A32EF6005D2030210ADE5BD644B
:100FC30008600EE5BDB44804D2C4D2C2D2030210F5
:100FD300AD75BCC0C2C5121A32EF6005D203021050
:100FE300ADE5BD64186005D2030210ADAF068FBC3A
:100FF300121A32EF6005D2030210ADE5BD6428601A
:1010030005D2030210ADD2C5121A32EF6005D20326
:101013000210ADE5BD64106005D2030210ADC2C578
:1010230075BCC1121A32EF6004D203807DE5BD6442
:10103300406004D2038073E4FED2C2121A32EF601E
:1010430004D2038065E5BD64506004D203805B7401
:101053001E2EF582E43400F583E5BCF00EEEB402F7
:10106300D890001FE0FFE48FF0120261120236FEF7
:1010730090001EE07C002400FFEC3E8FF012026122
:10108300C2C2121A32EF6004D203801EE5BD645857
:101093006004D2038014C2C3D2C453BFFE30C40A57
:1010A3001219B63003F7800280F353BFFE300308F2
:1010B3001219B6C2037F00227F012290001FEEF0B7
:1010C300A3EFF0A3EBF0A3EAF0A3E9F090001FE095
:1010D300FCA3E0FDAE047807CEC313CE13D8F9FB0F
:1010E300900024E0FEA3E02DFFEC3EFEEF7807CE58
:1010F300C313CE13D8F9900026F0900026E06B605E
:101103005690001FE0FEA3E0FFA3E0FBA3E0FAA3D9
:10111300E0F990002C7480F012042BAD07ED9000E1
:1011230020E02FF090001FE03400F0ED900022E467
:101133008FF0120220EDC3900025E09FF090002471
:10114300E09400F090001FE0FEA3E07807CEC31305
:10115300CE13D8F9FB80A3900024E0FCA3E0FD4C60
:10116300601990001FE0FEA3E0FFA3E0FBA3E0FAF9
:10117300A3E0F990002CEDF012042B22900015ED62
:10118300F0A3EBF0A2AF9204C2AF75C7AA75C7551F
:10119300E4F591A20492AF53C4F7F591EF24FE60F6
:1011A3002124FE602524FC602924F8602D24F060AE
:1011B3003124E0603524C06039247F703B53C4F888
:1011C300803653C4F843C401802E53C4F843C40289
:1011D300802653C4F843C403801E53C4F843C40495
:1011E300801653C4F843C405800E53C4F843C406A1
:1011F300800653C4F843C407A2AF9204C2AF75C7B5
:10120300AA75C755E4F591A20492AF53C4EF9000B9
:1012130015E0F5C6A3E0F5C5439C02D2AFA2AF9299
:1012230004C2AF75C7AA75C755E4F591A20492AF7E
:1012330043C40822AB07AF05AA07ECFED2C5121AB6
:1012430032EF6005D2030212CBE5BD64086004D21D
:10125300038075C2C575BCC0121A32EF6004D20395
:101263008066E5BD64186004D203805CAF038FBC65
:10127300121A32EF6004D203804EE5BD6428600485
:10128300D2038044AF028FBC121A32EF6004D20340
:101293008036E5BD64286004D203802CAF068FBC82
:1012A300121A32EF6004D203801EE5BD6428600485
:1012B300D2038014D2C4C2C353BFFE30C40A12196E
:1012C300B63003F7800280F353BFFE3003081219D0
:1012D300B6C2037F00227F0122787FE4F6D8FD9017
:1012E30000007FFF7E04E4F0A3DFFCDEFA758120BB
:1012F3000213310206A8E493A3F8E493A34003F690
:101303008001F208DFF48029E493A3F85407240C46
:10131300C8C333C4540F4420C8834004F456800127
:1013230046F6DFE4800B0102040810204080900998
:1013330016E47E019360BCA3FF543F30E509541FBC
:10134300FEE493A360010ECF54C025E060A840B82B
:10135300E493A3FAE493A3F8E493A3C8C582C8CAA9
:10136300C583CAF0A3C8C582C8CAC583CADFE9DE7C
:10137300E780BEE4900015F0A3F0A2AF9204C2AFE1
:1013830075C7AA75C755F59175C7AA75C75553A3F0
:101393007BA20492AFA2AF9204C2AF75C7AA75C76E
:1013A30055F591A20492AF75B1FFF5B275B3FFF590
:1013B300B475ACFFF5AD43E98043EA8053EB7F435B
:1013C3009B02D2AF1219D6C2854387021219ED7F51
:1013D300967E0012187D2087EB2087177F647E009E
:1013E30012187D900016E004F07006900015E004DA
:1013F300F080E6D3900016E0940F900015E094007F
:101403004003120003121A4822900018EDF0A3EBD8
:10141300F0900017EFF07B017A00791B120FB19067
:101423000018E0FDB4010C90001BE0A3E0540FA3EF
:10143300F0800890001BE090001DF090001DE0FF7D
:10144300900019E0FEEF5EFF90001DF090001AE09F
:101453004F90001DF0EDB4011890001BE0FEA3A314
:10146300E07C002400FFEC3E90001BF0A3EFF08033
:101473001790001DE0FE7C0090001CE02400FFECB0
:101483003E90001BF0A3EFF0900017E0FF90001BCD
:10149300E0FCA3E0FD12123722900015EEF0A3EF5B
:1014A300F0D3943FEE9401400F900141E0FF900090
:1014B30015E4F0A3EFF08044900015E0FEA3E0FFF5
:1014C300D3949FEE9400400F900142E0FD900015ED
:1014D300E4F0A3EDF08025D3EF944FEE9400400F9A
:1014E300900174E0FF900015E4F0A3EFF0800D90FD
:1014F3000171E0FF900015E4F0A3EFF0900151E0DB
:10150300FB900015E0A3E090001AF07D017F031229
:10151300140C22900018EBF0A3EAF0A3E9F0C283C5
:10152300A37402F090001C7407F090001CE0FFC34A
:10153300648094804039C284900018E0FBA3E0FAF1
:10154300A3E0F9A3E0FD3395E08D82F58312017CDE
:10155300FEA807088002C313D8FC1392817F0512EB
:101563001A1BD284121A1B90001CE014F080BB904B
:10157300001BE014F0E0C36480948050A7D2837F03
:101583000A121A1BC28322EFD394C7400790014F5C
:10159300E0FF8053EFD394B34007900155E0FF8001
:1015A30046EFD3949F4007900154E0FF8039EFD377
:1015B300948B4007900152E0FF802CEFD394774047
:1015C30007900150E0FF801FEFD394634007900121
:1015D3004EE0FF8012EFD3944A4007900137E0FFBB
:1015E3008005900132E0FF90016CE0FB90001AEF60
:1015F300F0E4FD7F0412140C229001A8E0FEA3E0A6
:10160300FF900194E02FFF900193E03EFE9001B024
:10161300E06E7003A3E06F6032121A81EF2440FF83
:10162300EE3477FEED341BFDE43CFC9001AA12037B
:10163300C19001A8E0FEA3E0FF900194E02FFF908A
:101643000193E03E9001B0F0A3EFF0121A819001F4
:10165300AAE0F8A3E0F9A3E0FAA3E0FBC312039D19
:10166300500312137622900015EEF0A3EFF0A3EBD4
:10167300F0A3EAF0A3E9F0E490001CF0A3F09000DB
:101683001AE0FEA3E0FFA3E0FCA3E0FDC39FEC9EF2
:10169300503B900016E02DFF900015E03C8F82F543
:1016A30083E493FF900017E0FBA3E0FAA3E0F99033
:1016B300001CE0A3E0F5828C83EF1201A990001DCA
:1016C300E004F0700690001CE004F080B122C0E05A
:1016D300C0F0C083C082C0D075D000C000C004C0B9
:1016E30005C006C007C091A2AF9204C2AF75C7AAD6
:1016F30075C755759100A20492AF53C4EF9001BB17
:10170300E0FCA3E0FDA3E0FEA3E02401FFE43EFE32
:10171300E43DFDE43CFC9001BB1203C1D091D00732
:10172300D006D005D004D000D0D0D082D083D0F062
:10173300D0E032121A5CEF64867003EE6401600439
:10174300E4FEFF227F8C12158A7FA07E0012149C78
:101753007F081218327F101200561200269001588B
:10176300E0FB90015AE090001AF07D01E4FF1214AF
:101773000C12003E900178E0FB900175E090001A96
:10178300F07D017F0412140C7E007F0122C2C6E4A7
:10179300F509E4F508000508E508B4FFF80509E5CF
:1017A30009B41AEEA2AF9204C2AF75C7AA75C755A2
:1017B300E4F591A20492AF43B30843B408A2AF92F5
:1017C30004C2AF75C7AA75C755F591A20492AF437A
:1017D300B31043B41075BE0443BF0443BF0253BFE9
:1017E300FED2C6227B017A017987121A7090018D8D
:1017F300E0645A7004A3E0645A6030E4900187F017
:10180300A3F0A3F0A3F0A3F0A3F0745AA3F0A3F002
:1018130078177C007D017B017A0179877E007F0840
:10182300120156121A047E007F0122E4FEFF22EF0A
:10183300D39407400790016EE0FF802CEFD394030D
:10184300400790016AE0FF801FEFD39402400790A6
:101853000169E0FF8012EFD394014007900167E034
:10186300FF8005900166E0FF900135E0FB90001AD0
:10187300EFF07D017F0312140C22E4FCFD9001BB09
:10188300E0F8A3E0F9A3E0FAA3E02FFFEA3EFEEDC0
:1018930039FDEC38FC9000171203C19001BBE0FC4A
:1018A300A3E0FDA3E0FEA3E0FF900017E0F8A3E0B0
:1018B300F9A3E0FAA3E0FBD312039D50DE22C0E0BC
:1018C300C0D075D000C007C091A2AF9204C2AF755B
:1018D300C7AA75C75543AA40A20492AFAFAAEF5453
:1018E30040F5AA60F7B292538FEFD091D007D0D0D2
:1018F300D0E032121A81EF24F4FFEE3401FEE43D0E
:10190300FDE43CFC9001831203C1E4900181F0A348
:10191300F0900193F0A3F09001B71203CDFFFFFF06
:10192300FF22C0E0C083C082C09130980AD20190E8
:1019330001BFE599F0C298309905200002C299D001
:1019430091D082D083D0E032C0E0C083C082C09106
:1019530030F80A9001C0E59AF0D202C2F830F905D6
:10196300200002C2F9D091D082D083D0E0327F0828
:10197300120FB1900015EFF0900148E0FB90013990
:10198300E090001AF07D017F0412140C900015E022
:10199300FF22C0E0C0D075D000C007C09175910090
:1019A300AFECEF2480700353EC7FD091D007D0D0FD
:1019B300D0E032E5BD600BE5BD64106005E5BF30E6
:1019C300E01053BFFED203D2C4C2C330C304C2C6A5
:1019D300D2C622A2AF9204C2AF75C7AA75C755E497
:1019E300F591A20492AF53C4F722A2AF9204C2AFFF
:1019F30075C7AA75C755E4F591A20492AF43C4080D
:101A0300227B017A007917900024E4F0A37408F094
:101A13007F827E381210BE22E4FDFCEFFBC3ED9BF8
:101A23007480F86C9850070DBD00010C80ED22C244
:101A3300C353BFFE20C30BE5BF30E0F853BFFE7FA7
:101A430001227F0022A2AF9204C2AF75C7AA75C755
:101A530055439F80A20492AF227B017A0079157FC0
:101A63000C120FB1900015E0FEA3E0FF2290001AC4
:101A7300E4F0A37408F07F827E3812166922900185
:101A8300BBE0FCA3E0FDA3E0FEA3E0FF2253B1C54E
:101A930043B23AD285C284C283C281229001B67412
:101AA30001F0900191EFF02290018FE0B401031255
:101AB300137622E49001B6F0900191F02290018F09
:101AC300E070031213762230B0037F00227F0022DE
:071AD30043B18053B27F22F2
:00000001FF
