:1000000002136990018F745AF0A304F078177C00F2
:100010007D017B017A0179897E007F0812015612E9
:100020001A572202197490013BE0FB90013AE090CC
:10003000001AF07D017F0412149922021A08121A84
:10004000E9EF24F4FFEE3401FEE43DFDE43CFC90D6
:1000500001851203C1E4900183F0A3F0900193F0B5
:10006000A3F09001B81203CDFFFFFFFF2290019192
:09007000E0B40103121403222282
:03007B0002199ACD
:1000830002175EE709F608DFFA8046E709F208DFA0
:10009300FA803E88828C83E709F0A3DFFA8032E39B
:1000A30009F608DFFA8078E309F208DFFA8070883E
:1000B300828C83E309F0A3DFFA806489828A83E078
:1000C300A3F608DFFA805889828A83E0A3F208DF67
:1000D300FA804C80D280FA80C680D4806980F28016
:1000E30033801080A680EA809A80A880DA80E2803C
:1000F300CA803389828A83ECFAE493A3C8C582C891
:10010300CCC583CCF0A3C8C582C8CCC583CCDFE9FA
:10011300DEE7800D89828A83E493A3F608DFF9EC96
:10012300FAA9F0EDFB2289828A83ECFAE0A3C8C521
:1001330082C8CCC583CCF0A3C8C582C8CCC583CC48
:10014300DFEADEE880DB89828A83E493A3F208DFB7
:10015300F980CC88F0EF60010E4E60C388F0ED2487
:1001630002B4040050B9F582EB2402B4040050AF8A
:1001730023234582239000D673BB010CE58229F526
:1001830082E5833AF583E0225006E92582F8E622E8
:10019300BBFE06E92582F8E222E58229F582E583A2
:1001A3003AF583E49322F8BB010DE58229F582E554
:1001B300833AF583E8F0225006E92582C8F622BB8C
:1001C300FE05E92582C8F222BC000BBE0029EF8D93
:1001D300F084FFADF022E4CCF875F008EF2FFFEECA
:1001E30033FEEC33FCEE9DEC984005FCEE9DFE0FD8
:1001F300D5F0E9E4CEFD22EDF8F5F0EE8420D21C33
:10020300FEADF075F008EF2FFFED33FD400798507A
:1002130006D5F0F222C398FD0FD5F0EA22C5F0F817
:10022300A3E028F0C5F0F8E582158270021583E09B
:1002330038F022BB010A89828A83E0F5F0A3E02229
:10024300500687F009E71922BBFE07E3F5F009E33F
:10025300192289828A83E493F5F074019322BB0106
:100263000A89828A83F0E5F0A3F0225006F709A7F2
:10027300F01922BBFE06F3E5F009F31922E88FF02B
:10028300A4CC8BF0A42CFCE98EF0A42CFC8AF0ED1A
:10029300A42CFCEA8EF0A4CDA8F08BF0A42DCC38CE
:1002A30025F0FDE98FF0A42CCD35F0FCEB8EF0A406
:1002B300FEA9F0EB8FF0A4CFC5F02ECD39FEE43CC0
:1002C300FCEAA42DCE35F0FDE43CFC2275F0087564
:1002D3008200EF2FFFEE33FECD33CDCC33CCC5827E
:1002E30033C5829BED9AEC99E58298400CF582EE3A
:1002F3009BFEED9AFDEC99FC0FD5F0D6E4CEFBE422
:10030300CDFAE4CCF9A88222B800C1B90059BA00E9
:100313002DEC8BF084CFCECDFCE5F0CBF97818EF44
:100323002FFFEE33FEED33FDEC33FCEB33FB10D745
:1003330003994004EB99FB0FD8E5E4F9FA22781806
:10034300EF2FFFEE33FEED33FDEC33FCC933C91061
:10035300D7059BE99A4007EC9BFCE99AF90FD8E093
:10036300E4C9FAE4CCFB2275F010EF2FFFEE33FE65
:10037300ED33FDCC33CCC833C810D7079BEC9AE8D8
:1003830099400AED9BFDEC9AFCE899F80FD5F0DA59
:10039300E4CDFBE4CCFAE4C8F922EB9FF5F0EA9E46
:1003A30042F0E99D42F0E89C45F022E8600FECC37F
:1003B30013FCED13FDEE13FEEF13FFD8F122ECF067
:1003C300A3EDF0A3EEF0A3EFF022A8828583F0D093
:1003D30083D0821203E41203E41203E41203E4E47D
:1003E30073E493A3C583C5F0C583C8C582C8F0A3CE
:1003F300C583C5F0C583C8C582C822D083D082F81F
:10040300E4937012740193700DA3A393F874019392
:10041300F5828883E473740293B5F00674039368DA
:1004230060E9A3A3A3A380D8900027EEF0A3EFF085
:10043300A3EBF0A3EAF0A3E9F0A2AF9204C2AF7575
:10044300C7AA75C755439F01A20492AFA2AF9204F6
:10045300C2AF75C7AA75C75543A501A20492AF9051
:100463000027E0FEA3E0FF547FFD90002EF0C3744D
:10047300809DFD90002DF090002CE0D39D4006A3BD
:10048300E090002CF090002FEEF0A3EFF0E490004A
:100493002DF090002CE0FFA3E0FEC39F501B9000C3
:1004A3002FE0FCA3E02EF582E43CF583E493B4FF54
:1004B3000890002DE004F080D9EE6F600302056719
:1004C30075AF21900027E0FEA3E0F5A6EEF5A7E4C3
:1004D30090002DF090002CE0FFA3E0FEC39F50326C
:1004E300900029E0FBA3E0FAA3E0F98E8275830074
:1004F30012017CF5AEA2AF9204C2AF75C7AA75C74D
:100503005543A401A20492AF05A690002DE004F088
:1005130080C2E490002DF090002CE0FFA3E0FEC326
:100523009F502F900029E0FBA3E0FAA3E0F98E820D
:1005330075830012017CFF90002FE0FCA3E02EF5F1
:1005430082E43CF583E493B5070890002DE004F0C2
:1005530080C590002CE0FFA3E06F700302068F803C
:100563000302068F900027E0FFA3E0548090002F42
:10057300CFF0A3EFF0E490002DF090002DE0FF907A
:10058300002FE0FCA3E02FF582E43CF583E493FE27
:1005930074312FF582E43400F583EEF090002DE002
:1005A30004F0E0B480D4E490002DF090002CE0FF40
:1005B300A3E0C39F5031900029E0FBA3E0FAA3E03E
:1005C300F990002DE0FFF58275830012017CFE9007
:1005D300002EE02F2431F582E43400F583EEF09011
:1005E300002DE004F080C4900027E0FEA3E05480D7
:1005F300F5A6EEF5A775AF2275AEFFA2AF9204C2C2
:10060300AF75C7AA75C75543A401A20492AF75AFCE
:1006130021E490002DF090002DE0FFC39480502A38
:1006230074312FF582E43400F583E0F5AEA2AF9286
:1006330004C2AF75C7AA75C75543A401A20492AFFC
:1006430005A690002DE004F080CCE490002DF090FE
:10065300002DE0FFC39480502BE0FE90002FE0FCC0
:10066300A3E02EF582E43CF583E493FD74312EF58B
:1006730082E43400F583E0FEEDB5060890002DE03A
:1006830004F080CBEF648060030205EAA2AF92041A
:10069300C2AF75C7AA75C755539FFEA20492AF9008
:1006A300002CE0FF22E4900002F0A3F0A31203CD9C
:1006B300000000009000081203CD00000000E49049
:1006C300000CF0A31203CD000000009000111203F0
:1006D300CD00000000A2AF9204C2AF75C7AA75C7D0
:1006E30055E4F591A20492AF75B1FFF5B275B3FF6E
:1006F300F5B475ACFFF5AD7F0712103B7595041289
:100703001B2412187490018DE0FFA3E0900195CF94
:10071300F0A3EFF09001AC1203CD00FFFFFF121B1B
:100723001B900191EFF012181D121AF87B187DFC33
:100733007F0212120C1217C3EF4E70030208D990F6
:100743000191E060030208D990000D1203CD00006F
:100753000000121AE9EF24E8FFEE3403FEE43DFD46
:10076300E43CFC9000111203C1900195E07002A3D8
:10077300E060030208D490019204F0121AE9900099
:1007830011E0F8A3E0F9A3E0FAA3E0FBC312039D91
:100793004003020868121AE9900008E0F8A3E0F9A0
:1007A300A3E0FAA3E0FBC312039D40030208687BA6
:1007B300017A0179811219E4EF6077E49001B0F0D6
:1007C300A3F0121AE9EF24C8FFE43EFEE43DFDE482
:1007D3003CFC9000081203C190000DE0F8A3E0F97F
:1007E300A3E0FAA3E0FB900181E0FEA3E0FFE4FCB9
:1007F300FDEB2FFFEA3EFEED39FDEC38FC90000DDA
:100803001203C190000CE004F0900195E0FEA3E018
:10081300FF900181E0FCA3E0FDD39FEC9E40089094
:100823000195ECF0A3EDF090000CE0B40F3780439A
:100833008033121AE9EF2464FFE43EFEE43DFDE455
:100843003CFC9000081203C19001B1E004F0700673
:100853009001B0E004F0D39001B1E0940A9001B0AC
:10086300E09400500E900181E0FEA3E0FF120C29FA
:1008730002077E9001B0E07002A3E0705490000C78
:10088300E0FFFBE4FAF9F8A3E0FCA3E0FDA3E0FE3C
:10089300A3E0FF12030B900000EEF0A3EFF0900132
:1008A30096E004F07006900195E004F0900195E065
:1008B300FFA3E090018DCFF0A3EFF078177C007DCC
:1008C300017B017A0179897E007F08120156121A91
:1008D30057E4900192F09000111203CD0000000044
:1008E300120AAF900191E07003120EED121B1B90E0
:1008F3000191E06F6003121AB0900193E0FEA3E050
:10090300FF120C2912168980D7224401BC00000073
:10091300005001987E483D6D4B67774C7F6F5F00B9
:100923000000000042019300004201A800004201C0
:10093300B00000410192004401AC00FFFFFF4201FF
:10094300B2FFFF410191014201950000440185007E
:100953000000004201AA000042017F00004201831F
:100963000000410197054401B8FFFFFFFF4401B4B4
:100973000000000044017A0000000041017E0041B4
:1009830001583F4101470041015A8041015940410B
:10099300015BC041016BF341016F004101700441F0
:1009A3000172084101760C410136FD4101650041A8
:1009B300013C02410157FE410143004101640141F1
:1009C30001513F41017100410174404101428041A5
:1009D3000141C0410149CF41014A0041014B10414E
:1009E300014C2041014D30410135F1410166004187
:1009F300013D024101670441013E0641016908418D
:100A0300013F0A41016A0C41016E0E410131FE4171
:100A130001680041014501410179F741017300413A
:100A230001770841015FFC41014400410146014156
:100A33000162024101600341013BEF410161004159
:100A4300013A10410178F74101560041017508410F
:100A53000148FB410139044101637F41016D0041BC
:100A6300015380410138BF41015D004101344041E0
:100A7300016CF8410132004101370141014E02414D
:100A830001500341015204410154054101550641FE
:100A9300014F0741015E20410133104101400241F2
:100AA300015C014101C200C100C1010030870302A2
:100AB3000BF990017EE014603A24FE606E1470031B
:100AC300020B69147003020BA4147003020BDC24E1
:100AD300066003020C2890017E7401F0121AE9EFFC
:100AE3002419FFE43EFEE43DFDE43CFC90017A1250
:100AF30003C122121AE990017AE0F8A3E0F9A3E016
:100B0300FAA3E0FBC312039D4003020C2890017E6D
:100B13007403F0121AE9EF24DCFFEE3405FEE43D22
:100B2300FDE43CFC90017A1203C122121AE9900100
:100B33007AE0F8A3E0F9A3E0FAA3E0FBC312039D74
:100B43004003020C28121B0790017E7404F0121A52
:100B5300E9EF24F4FFEE3401FEE43DFDE43CFC90B8
:100B6300017A1203C122121AE990017AE0F8A3E094
:100B7300F9A3E0FAA3E0FBC312039D4003020C2890
:100B830012007890017E7405F0121AE9EF24F4FF45
:100B9300EE3401FEE43DFDE43CFC90017A1203C116
:100BA30022121AE990017AE0F8A3E0F9A3E0FAA38C
:100BB300E0FBC312039D506D121B1190017E74065E
:100BC300F0121AE9EF24F4FFEE3401FEE43DFDE4F4
:100BD3003CFC90017A1203C122121AE990017AE0D7
:100BE300F8A3E0F9A3E0FAA3E0FBC312039D503599
:100BF30012006D22222290017EE024FD24FD50028A
:100C0300801E900191E0FFB401109001A9E004F06F
:100C130070069001A8E004F08006EF700312003E16
:100C2300E490017EF022AB07AA06900191E06401F3
:100C3300707B9001A8E0FEA3E0FF7C037DE8120136
:100C4300CB9001A8ECF0A3EDF09001A8E0FEA3E0A7
:100C5300FF7C007D0A1201CB74982DF58274013C50
:100C6300F583E0900017F09001A8E0FEA3E0FF7C7D
:100C7300007D0A1201CB7C007D0A1201CB74982DF2
:100C8300F58274013CF583E0900016F09001A8E032
:100C9300FEA3E0FF7C007D641201CB74982FF582E4
:100CA30074013EF583E0900015F0020D3E90019231
:100CB300E060169001A0E0900015F02480A3F0906E
:100CC30001A0E0900017F080727C007DC6AF03AEF8
:100CD300021201CBAA04AB05EB2401FFE43AFE7C2C
:100CE300007D141201CB74982FF58274013EF583B5
:100CF300E0900015F0EB2401FFE43AC313FEEF1379
:100D0300FF7C007D0A1201CB74982DF58274013C9F
:100D1300F583E02480900016F0900198E09000178E
:100D2300F0EB4A601690019AE0900017F0AF03EFE2
:100D330030E008900199E0900017F0E4FF74152F5C
:100D4300F582E43400F583E0FE900198E0FDEEB512
:100D5300051174152FF582E43400F583E4F00FEFE9
:100D6300B402DA7B017A0079151215A37F05121AF2
:100D73006EE4900017F0900016F0900015F07B01E0
:100D83007A0079151215A37F05121A6E22AE07D2C7
:100D9300C5121A85EF600BD2039001C274B2F00240
:100DA3000EDCE5BD64086014E5BDB44804D2C4D2CA
:100DB300C2D2039001C274BDF0020EDC75BCC0C286
:100DC300C5121A85EF6005D203020EDCE5BD641877
:100DD300600B9001C274CFF0D203020EDCAF068F1A
:100DE300BC121A85EF600B9001C274DBF0D20302D0
:100DF3000EDCE5BD6428600B9001C274E1F0D20300
:100E0300020EDCD2C5121A85EF600B9001C274EC9E
:100E1300F0D203020EDCE5BD6410600B9001C274D6
:100E2300F2F0D203020EDCC2C575BCC1121A85EF03
:100E3300600B9001C274FFF0D203020EDCE5BD64C7
:100E430040600B9001C27405F0D203020EDCE4FE95
:100E5300D2C2121A85EF600A9001C27413F0D20352
:100E63008077E5BD6450600A9001C27419F0D20323
:100E73008067741E2EF582E43400F583E5BCF00E22
:100E8300EEB402CC90001FE0FFE48FF01202611277
:100E93000236FE90001EE07C002400FFEC3E8FF043
:100EA300120261C2C2121A85EF600AD2039001C214
:100EB3007429F08024E5BD6458600AD2039001C20E
:100EC300742FF08014C2C3D2C453BFFE30C40A12BD
:100ED300194E3003F7800280F353BFFE300308122C
:100EE300194EC2037F00227F0122121AE99001B832
:100EF300E0F8A3E0F9A3E0FAA3E0FBC312039D50DB
:100F030022900193E07002A3E0600E900194E0242C
:100F1300FFF0900193E034FFF09001B81203CDFF8E
:100F2300FFFFFF121AE9900185E0F8A3E0F9A3E0BF
:100F3300FAA3E0FBC312039D400302103A7B017A3C
:100F43000179811219E4EF7003021006900180E029
:100F530004F0700690017FE004F0900195E0FEA399
:100F6300E0FFD3900182E09F900181E09E4044E442
:100F73009001AAF0A3F0900184E004F070069001C0
:100F830083E004F09001977405F0900183E070040E
:100F9300A3E064056003021023900194E004F07061
:100FA30006900193E004F09001B81203CDFFFFFF18
:100FB300FF806DC3900184E09405900183E0940069
:100FC300405E900197E014F0E07055900183F0A328
:100FD300F09001977405F0900194E030E019121A33
:100FE300E9EF248CFFEE343CFEE43DFDE43CFC9051
:100FF30001B81203C180299001B81203CDFFFFFF8E
:10100300FF801D9001ABE004F070069001AAE0049C
:10101300F09001AAE07004A3E0640570031217C303
:10102300121AE9EF242CFFEE3401FEE43DFDE43C0B
:10103300FC9001851203C122A2AF9204C2AF75C70F
:10104300AA75C755439F01A20492AFE4F591EF241B
:10105300F9600C14600E2402700D75A638800875B3
:10106300A630800375A630E4F5A775AF04A2AF924E
:1010730004C2AF75C7AA75C75543A401A20492AFB2
:1010830085AE0805A6A2AF9204C2AF75C7AA75C7FD
:101093005543A401A20492AF85AE09EF24F860037F
:1010A300021125E50825E0FFE50954012FFF54C08F
:1010B300F50BEF543FF50A74F22FFF75AF0C75A6CD
:1010C30001E4F5A7A2AF9204C2AFA2AF9204C2AFEC
:1010D30075C7AA75C75543AA40A20492AF75C7AA9C
:1010E30075C75543A401A20492AFE5AE644B600BF0
:1010F300E5AE64526005E5AEB45322E50AC3940F2E
:101103005017E50B6440600BE50B64806005E50B4D
:10111300B4C00A74F22FFF800474FC2FFFEFC313D3
:10112300F50875C7AA75C75585088475C7AA75C715
:1011330055850985A2AF9204C2AF75C7AA75C75575
:10114300539FFEA20492AF2290001FEEF0A3EFF094
:10115300A3EBF0A3EAF0A3E9F090001FE0FCA3E007
:10116300FDAE047807CEC313CE13D8F9FB90002449
:10117300E0FEA3E02DFFEC3EFEEF7807CEC313CED7
:1011830013D8F9900026F0900026E06B605690008B
:101193001FE0FEA3E0FFA3E0FBA3E0FAA3E0F990C6
:1011A300002C7480F012042BAD07ED900020E02F8B
:1011B300F090001FE03400F0ED900022E48FF01275
:1011C3000220EDC3900025E09FF0900024E09400FE
:1011D300F090001FE0FEA3E07807CEC313CE13D830
:1011E300F9FB80A3900024E0FCA3E0FD4C60199080
:1011F300001FE0FEA3E0FFA3E0FBA3E0FAA3E0F9F6
:1012030090002CEDF012042B22900015EDF0A3EBCF
:10121300F0A2AF9204C2AF75C7AA75C755E4F591A2
:10122300A20492AF53C4F7F591EF24FE602124FE8C
:10123300602524FC602924F8602D24F0603124E02B
:10124300603524C06039247F703B53C4F880365323
:10125300C4F843C401802E53C4F843C40280265308
:10126300C4F843C403801E53C4F843C40480165314
:10127300C4F843C405800E53C4F843C40680065320
:10128300C4F843C407A2AF9204C2AF75C7AA75C717
:1012930055E4F591A20492AF53C4EF900015E0F525
:1012A300C6A3E0F5C5439C02D2AFA2AF9204C2AF7E
:1012B30075C7AA75C755E4F591A20492AF43C40854
:1012C30022AB07AF05AA07ECFED2C5121A85EF6061
:1012D30005D203021358E5BD64086004D203807588
:1012E300C2C575BCC0121A85EF6004D2038066E5DF
:1012F300BD64186004D203805CAF038FBC121A85EF
:10130300EF6004D203804EE5BD64286004D20380FD
:1013130044AF028FBC121A85EF6004D2038036E516
:10132300BD64286004D203802CAF068FBC121A85DB
:10133300EF6004D203801EE5BD64286004D20380FD
:1013430014D2C4C2C353BFFE30C40A12194E3003B1
:10135300F7800280F353BFFE30030812194EC20315
:101363007F00227F0122787FE4F6D8FD9000007F82
:10137300FF7E04E4F0A3DFFCDEFA7581200213BED6
:101383000206A8E493A3F8E493A34003F68001F2D2
:1013930008DFF48029E493A3F85407240CC8C3336B
:1013A300C4540F4420C8834004F456800146F6DF3A
:1013B300E4800B010204081020408090090DE47EB4
:1013C300019360BCA3FF543F30E509541FFEE4932F
:1013D300A360010ECF54C025E060A840B8E493A3F6
:1013E300FAE493A3F8E493A3C8C582C8CAC583CA21
:1013F300F0A3C8C582C8CAC583CADFE9DEE780BED9
:10140300E4900015F0A3F0A2AF9204C2AF75C7AA8F
:1014130075C755F59175C7AA75C75553A37BA20424
:1014230092AFA2AF9204C2AF75C7AA75C755F59123
:10143300A20492AF75B1FFF5B275B3FFF5B475AC05
:10144300FFF5AD43E98043EA8053EB7F439B02D230
:10145300AF121A29C285438702121A407F967E0073
:1014630012190A2087EB2087177F647E0012190A5E
:10147300900016E004F07006900015E004F080E69A
:10148300D3900016E0940F900015E09400400312EF
:101493000003121AB022900018EDF0A3EBF09000B5
:1014A30017EFF07B017A00791B120D90900018E082
:1014B300FDB4010C90001BE0A3E0540FA3F08008DF
:1014C30090001BE090001DF090001DE0FF900019BC
:1014D300E0FEEF5EFF90001DF090001AE04F9000D9
:1014E3001DF0EDB4011890001BE0FEA3A3E07C0007
:1014F3002400FFEC3E90001BF0A3EFF08017900058
:101503001DE0FE7C0090001CE02400FFEC3E9000F8
:101513001BF0A3EFF0900017E0FF90001BE0FCA38B
:10152300E0FD1212C422900015EEF0A3EFF0D39465
:101533003FEE9401400F900141E0FF900015E4F06D
:10154300A3EFF08044900015E0FEA3E0FFD3949F47
:10155300EE9400400F900142E0FD900015E4F0A3EB
:10156300EDF08025D3EF944FEE9400400F9001747B
:10157300E0FF900015E4F0A3EFF0800D900171E01F
:10158300FF900015E4F0A3EFF0900151E0FB900011
:1015930015E0A3E090001AF07D017F031214992255
:1015A300900018EBF0A3EAF0A3E9F0C283A374025E
:1015B300F090001C7407F090001CE0FFC36480945B
:1015C300804039C284900018E0FBA3E0FAA3E0F95D
:1015D300A3E0FD3395E08D82F58312017CFEA8071D
:1015E300088002C313D8FC1392817F05121A6ED2AE
:1015F30084121A6E90001CE014F080BB90001BE074
:1016030014F0E0C36480948050A7D2837F0A121A37
:101613006EC28322EFD394C7400790014FE0FF804F
:1016230053EFD394B34007900155E0FF8046EFD3C7
:10163300949F4007900154E0FF8039EFD3948B408F
:1016430007900152E0FF802CEFD39477400790017D
:1016530050E0FF801FEFD39463400790014EE0FFFB
:101663008012EFD3944A4007900137E0FF80059042
:101673000132E0FF90016CE0FB90001AEFF0E4FD13
:101683007F04121499229001A8E0FEA3E0FF9001C9
:1016930094E02FFF900193E03EFE9001B2E06E7064
:1016A30003A3E06F6032121AE9EF2440FFEE3477B0
:1016B300FEED341BFDE43CFC9001AC1203C1900130
:1016C300A8E0FEA3E0FF900194E02FFF900193E0D8
:1016D3003E9001B2F0A3EFF0121AE99001ACE0F8EA
:1016E300A3E0F9A3E0FAA3E0FBC312039D500312A6
:1016F300140322900015EEF0A3EFF0A3EBF0A3EA9E
:10170300F0A3E9F0E490001CF0A3F090001AE0FECF
:10171300A3E0FFA3E0FCA3E0FDC39FEC9E503B903E
:101723000016E02DFF900015E03C8F82F583E493D3
:10173300FF900017E0FBA3E0FAA3E0F990001CE0A0
:10174300A3E0F5828C83EF1201A990001DE004F061
:10175300700690001CE004F080B122C0E0C0F0C02D
:1017630083C082C0D075D000C000C004C005C006CD
:10177300C007C091A2AF9204C2AF75C7AA75C7557F
:10178300759100A20492AF53C4EF9001BCE0FCA397
:10179300E0FDA3E0FEA3E02401FFE43EFEE43DFD03
:1017A300E43CFC9001BC1203C1D091D007D006D019
:1017B30005D004D000D0D0D082D083D0F0D0E03296
:1017C300121AC4EF64867003EE64016004E4FEFF42
:1017D300227FC81216177F407E011215297F081237
:1017E30018BF7F101219C0120026900158E0FB9019
:1017F300015AE090001AF07D01E4FF121499121AC5
:101803009B900178E0FB900175E090001AF07D0158
:101813007F041214997E007F0122C2C6E4F509E415
:10182300F508000508E508B4FFF80509E509B41A49
:10183300EEA2AF9204C2AF75C7AA75C755E4F5917E
:10184300A20492AF43B30843B408A2AF9204C2AF59
:1018530075C7AA75C755F591A20492AF43B3104358
:10186300B41075BE0443BF0443BF0253BFFED2C6C8
:10187300227B017A017989121AD890018FE0645A88
:101883007004A3E0645A6030E4900189F0A3F0A3EC
:10189300F0A3F0A3F0A3F0745AA3F0A3F078177C9D
:1018A300007D017B017A0179897E007F0812015650
:1018B300121A577E007F0122E4FEFF22EFD3940722
:1018C300400790016EE0FF802CEFD3940340079014
:1018D300016AE0FF801FEFD394024007900169E0A3
:1018E300FF8012EFD394014007900167E0FF80056A
:1018F300900166E0FF900135E0FB90001AEFF07D68
:10190300017F0312149922E4FCFD9001BCE0F8A3CB
:10191300E0F9A3E0FAA3E02FFFEA3EFEED39FDEC88
:1019230038FC9000171203C19001BCE0FCA3E0FD5A
:10193300A3E0FEA3E0FF900017E0F8A3E0F9A3E023
:10194300FAA3E0FBD312039D50DE22E5BD6011E54F
:10195300BD6410600BE5BD64206005E5BF30E01099
:1019630053BFFED203D2C4C2C330C304C2C6D2C65D
:1019730022C0E0C083C082C09130980AD201900196
:10198300C0E599F0C298309905200002C299D09120
:10199300D082D083D0E032C0E0C083C082C0913017
:1019A300F80A9001C1E59AF0D202C2F830F9052095
:1019B3000002C2F9D091D082D083D0E032EFD39429
:1019C3000F4007900177E0FF8005900173E0FF90DF
:1019D3000179E0FB90001AEFF0E4FD7F0312149904
:1019E300227F08120D90900015EFF0900148E0FB64
:1019F300900139E090001AF07D017F041214999050
:101A03000015E0FF22C0E0C0D075D000C007C09130
:101A1300759100AFECEF2480700353EC7FD091D02D
:101A230007D0D0D0E032A2AF9204C2AF75C7AA7577
:101A3300C755E4F591A20492AF53C4F722A2AF9223
:101A430004C2AF75C7AA75C755E4F591A20492AF56
:101A530043C408227B017A007917900024E4F0A3A1
:101A63007408F07F827E3812114B22E4FDFCEFFBF9
:101A7300C3ED9B7480F86C9850070DBD00010C807A
:101A8300ED22C2C353BFFE20C30BE5BF30E0F853C2
:101A9300BFFE7F01227F0022900131E0FB900168AD
:101AA300E090001AF07D017F0312149922A2AF92F5
:101AB30004C2AF75C7AA75C755439F80A20492AFEE
:101AC300227B017A0079157F0C120D90900015E0AE
:101AD300FEA3E0FF2290001AE4F0A37408F07F82D3
:101AE3007E381216F6229001BCE0FCA3E0FDA3E0D1
:101AF300FEA3E0FF2253B1C543B23AD285C284C2EA
:101B030083C28122900191E0700312140322900199
:101B130091E070031214032230B0037F00227F0090
:081B23002243B18053B27F227E
:00000001FF
