:10000000020B72E5BD600BE5BD64106005E5BF3015
:10001000E01053BFFED203D2C4C2C330C304C2C671
:10002000D2C622020F7A90004AE0FCA3E0FDA3E0D2
:05003000FEA3E0FF2229
:10003B00020FC653B1C543B23AD285C284C283C242
:02004B00812210
:10005300020F45120026EF24F4FFEE3401FEE43DC7
:10006300FDE43CFC90000E1202B5E490000DF0900C
:060073000015F0A3F022CD
:03007B00020FA0D1
:10008300020D61BB010CE58229F582E5833AF58314
:10009300E0225006E92582F8E622BBFE06E9258226
:1000A300F8E222E58229F582E5833AF583E4932297
:1000B300F8BB010DE58229F582E5833AF583E8F083
:1000C300225006E92582C8F622BBFE05E92582C82F
:1000D300F222BC000BBE0029EF8DF084FFADF022AD
:1000E300E4CCF875F008EF2FFFEE33FEEC33FCEEB3
:1000F3009DEC984005FCEE9DFE0FD5F0E9E4CEFDA6
:1001030022EDF8F5F0EE8420D21CFEADF075F00878
:10011300EF2FFFED33FD4007985006D5F0F222C3D1
:1001230098FD0FD5F0EA22BB010A89828A83E0F5A4
:10013300F0A3E022500687F009E71922BBFE07E38C
:10014300F5F009E3192289828A83E493F5F07401B7
:100153009322BB010A89828A83F0E5F0A3F022503F
:1001630006F709A7F01922BBFE06F3E5F009F31918
:1001730022E88FF0A4CC8BF0A42CFCE98EF0A42C05
:10018300FC8AF0EDA42CFCEA8EF0A4CDA8F08BF051
:10019300A42DCC3825F0FDE98FF0A42CCD35F0FC4F
:1001A300EB8EF0A4FEA9F0EB8FF0A4CFC5F02ECD1B
:1001B30039FEE43CFCEAA42DCE35F0FDE43CFC2200
:1001C30075F008758200EF2FFFEE33FECD33CDCCF3
:1001D30033CCC58233C5829BED9AEC99E582984076
:1001E3000CF582EE9BFEED9AFDEC99FC0FD5F0D653
:1001F300E4CEFBE4CDFAE4CCF9A88222B800C1B97D
:100203000059BA002DEC8BF084CFCECDFCE5F0CBBA
:10021300F97818EF2FFFEE33FEED33FDEC33FCEBF3
:1002230033FB10D703994004EB99FB0FD8E5E4F9AE
:10023300FA227818EF2FFFEE33FEED33FDEC33FC9B
:10024300C933C910D7059BE99A4007EC9BFCE99A8F
:10025300F90FD8E0E4C9FAE4CCFB2275F010EF2FD4
:10026300FFEE33FEED33FDCC33CCC833C810D707D4
:100273009BEC9AE899400AED9BFDEC9AFCE899F80F
:100283000FD5F0DAE4CDFBE4CCFAE4C8F922EB9F16
:10029300F5F0EA9E42F0E99D42F0E89C45F022E841
:1002A300600FECC313FCED13FDEE13FEEF13FFD849
:1002B300F122ECF0A3EDF0A3EEF0A3EFF022A8827D
:1002C3008583F0D083D0821202D81202D81202D8CA
:1002D3001202D8E473E493A3C583C5F0C583C8C5EC
:1002E30082C8F0A3C583C5F0C583C8C582C822D020
:1002F30083D082F8E4937012740193700DA3A393D7
:10030300F8740193F5828883E473740293B5F0065D
:100313007403936860E9A3A3A3A380D8E490003097
:10032300F0A3F0A31202C1000000009000361202F5
:10033300C100000000E490003AF0A3F0A3F0A31280
:1003430002C100000000A2AF9204C2AF75C7AA7534
:10035300C755E4F591A20492AF75B1FFF5B275B339
:10036300FFF5B475ACFFF5AD7F0712065A7595041A
:10037300121086900012EFF0120F0512003E7B1848
:100383007DFC7F02120975900012E07005120E7059
:10039300800312104212108F9000147401F0E49045
:1003A300003BF0A3F0120026EF24E8FFEE3403FE37
:1003B300E43DFDE43CFC90003D1202B57B017A0074
:1003C300790B7FFA120E1C12002690003DE0F8A371
:1003D300E0F9A3E0FAA3E0FBC31202914003020495
:1003E3006C120026900036E0F8A3E0F9A3E0FAA32C
:1003F300E0FBC312029150717B017A00790B7FF805
:10040300120E1CEF603FE490002AF0A3F0120026C6
:10041300EF24C8FFE43EFEE43DFDE43CFC900036DF
:100423001202B590000BE0FEA3E0FF90003CE02F2A
:10043300F090003BE03EF090003AE004F0E0B41EA0
:100443002880348024120026EF241EFFE43EFEE4BD
:100453003DFDE43CFC9000361202B590002BE00415
:10046300F0700690002AE004F090000BE0FEA3E099
:10047300FF12076A0203CA90003BE0FEA3E0FF7C81
:10048300007D1E1200D5EF240FFFE43E900017F00D
:10049300A3EFF0E4900014F01204E8900012E0706F
:1004A30003120A2D121086900012E06F6013A2AFA0
:1004B3009204C2AF75C7AA75C755439F80A2049221
:1004C300AF900014E0600D90000BE0FEA3E0FF127C
:1004D300076A800B900015E0FEA3E0FF12076A1283
:1004E3000DC680B4223087030205F4900004E014A3
:1004F300603424FE606814700302059C14700302C8
:1005030005D7240560030206599000047401F01214
:100513000026EF2419FFE43EFEE43DFDE43CFC909D
:1005230000001202B522120026900000E0F8A3E0BA
:10053300F9A3E0FAA3E0FBC31202914003020659B8
:100543009000047403F0120026EF24D0FFEE34076A
:10055300FEE43DFDE43CFC9000001202B5221200D3
:1005630026900000E0F8A3E0F9A3E0FAA3E0FBC3C0
:10057300120291400302065912106690000474049B
:10058300F0120026EF24F4FFEE3401FEE43DFDE417
:100593003CFC9000001202B522120026900000E0FD
:1005A300F8A3E0F9A3E0FAA3E0FBC312029140032E
:1005B30002065912107C9000047405F0120026EF15
:1005C30024F4FFEE3401FEE43DFDE43CFC90000026
:1005D3001202B522120026900000E0F8A3E0F9A36E
:1005E300E0FAA3E0FBC3120291506B1210712222B6
:1005F30022900004E024FC6003047055900012E094
:10060300FFB40110900016E004F07006900015E0AE
:1006130004F0803DEF703A12002690002CE0F8A31E
:10062300E0F9A3E0FAA3E0FBD312029140099000A2
:1006330014E0FF74019FF0120026EF24F4FFEE3460
:1006430001FEE43DFDE43CFC90002C1202B51200D7
:1006530056E4900004F022A2AF9204C2AF75C7AA79
:1006630075C755439F01A20492AFE4F591EF24F9B6
:10067300600C14600E2402700D75A638800875A6F0
:1006830030800375A630E4F5A775AF04A2AF9204DA
:10069300C2AF75C7AA75C75543A401A20492AF851B
:1006A300AE0805A6A2AF9204C2AF75C7AA75C75517
:1006B30043A401A20492AF85AE09EF24F8600302BC
:1006C3000744E50825E0FFE50954012FFF54C0F571
:1006D3000BEF543FF50A74F22FFF75AF0C75A601AB
:1006E300E4F5A7A2AF9204C2AFA2AF9204C2AF7562
:1006F300C7AA75C75543AA40A20492AF75C7AA7586
:10070300C75543A401A20492AFE5AE644B600BE569
:10071300AE64526005E5AEB45322E50AC3940F50AC
:1007230017E50B6440600BE50B64806005E50BB4D3
:10073300C00A74F22FFF800474FC2FFFEFC313F57C
:100743000875C7AA75C75585088475C7AA75C7559F
:10075300850985A2AF9204C2AF75C7AA75C7555361
:100763009FFEA20492AF22AB07AA06900012E0708C
:1007730073900014E0706DFC7DC61200D5AA04AB23
:1007830005EB2401FFE43AFE7C007D141200D574CE
:100793001A2FF58274003EF583E0900041F0EB24BC
:1007A30001FFE43AC313FEEF13FF7C007D0A12003E
:1007B300D5741A2DF58274003CF583E024809000F3
:1007C30042F090001AE0900043F0EB4A607A900008
:1007D3001CE0900043F0EB30E06E90001BE09000D3
:1007E30043F080647C037DE8AF03AE021200D5AA18
:1007F30004AB057C007D0AAF03AE021200D5741A68
:100803002DF58274003CF583E0900043F07C007D7D
:100813000AAF03AE021200D57C007D0A1200D57424
:100823001A2DF58274003CF583E0900042F0AE028D
:10083300AF037C007D641200D5741A2FF582740017
:100843003EF583E0900041F07B017A007941120C80
:10085300867F05121015E4900043F0900042F0905B
:100863000041F07B017A007941120C867F0512105A
:100873001522900047EBF0A3EAF0A3E9F0AE07D20C
:10088300C512102CEF6005D203020964E5BD6408AC
:10089300600EE5BDB44804D2C4D2C2D203020964D7
:1008A30075BCC0C2C512102CEF6005D203020964E7
:1008B300E5BD64186005D203020964AF068FBC125C
:1008C300102CEF6005D203020964E5BD64286005BE
:1008D300D203020964D2C512102CEF6005D20302C1
:1008E3000964E5BD64106004D2038075C2C575BC9C
:1008F300C112102CEF6004D2038066E5BD64406032
:1009030004D203805CE4FED2C212102CEF6004D246
:1009130003804EE5BD64506004D2038044900047D9
:10092300E0FBA3E0FAA3E0F98E82758300E5BC1235
:1009330000B30EEEB402D0C2C212102CEF6004D288
:1009430003801EE5BD64586004D2038014C2C3D281
:10095300C453BFFE30C40A1200033003F780028081
:10096300F353BFFE300308120003C2037F00227F4C
:100973000122900041EDF0A3EBF0A2AF9204C2AFCD
:1009830075C7AA75C755E4F591A20492AF53C4F78E
:10099300F591EF24FE602124FE602524FC602924C8
:1009A300F8602D24F0603124E0603524C0603924E0
:1009B3007F703B53C4F8803653C4F843C401802E80
:1009C30053C4F843C402802653C4F843C403801EAF
:1009D30053C4F843C404801653C4F843C405800EBB
:1009E30053C4F843C406800653C4F843C407A2AFF4
:1009F3009204C2AF75C7AA75C755E4F591A20492D4
:100A0300AF53C4EF900041E0F5C6A3E0F5C5439CA6
:100A130002D2AFA2AF9204C2AF75C7AA75C755E49D
:100A2300F591A20492AF43C4082212002690000E4F
:100A3300E0F8A3E0F9A3E0FAA3E0FBC312029140BC
:100A430003020AD2120026EF242CFFEE3401FEE447
:100A53003DFDE43CFC90000E1202B57B017A007967
:100A63000B7FF8120E1CEF6060900017E0FEA3E00E
:100A7300FFD390000CE09F90000BE09E4031E49088
:100A83000013F090000DE004F0E0FFB405149000B3
:100A930012E0700E900016E004F07006900015E06E
:100AA30004F0EFD39405402790000D7406F02290D4
:100AB300000DE0601A900019E014F0E0701190004E
:100AC3000DF09000197402F022900013E004F0225C
:100AD300AE07D2C512102CEF6005D203020B61E5FD
:100AE300BD64086004D2038075C2C575BCC0121012
:100AF3002CEF6004D2038066E5BD64186004D20362
:100B0300805CAF068FBC12102CEF6004D203804EC2
:100B1300E5BD64286004D2038044AF058FBC121086
:100B23002CEF6004D2038036E5BD64286004D20351
:100B3300802CAF038FBC12102CEF6004D203801EF5
:100B4300E5BD64286004D2038014D2C4C2C353BF7A
:100B5300FE30C40A1200033003F7800280F353BF50
:100B6300FE300308120003C2037F00227F012278B4
:100B73007FE4F6D8FD9000007FFF7E04E4F0A3DF5E
:100B8300FCDEFA758120020BC702031FE493A3F86E
:100B9300E493A34003F68001F208DFF48029E49391
:100BA300A3F85407240CC8C333C4540F4420C88388
:100BB3004004F456800146F6DFE4800B010204088A
:100BC30010204080900CFAE47E019360BCA3FF5494
:100BD3003F30E509541FFEE493A360010ECF54C0D8
:100BE30025E060A840B8E493A3FAE493A3F8E49360
:100BF300A3C8C582C8CAC583CAF0A3C8C582C8CA68
:100C0300C583CADFE9DEE780BE121042A2AF9204B9
:100C1300C2AF75C7AA75C755E4F59175C7AA75C75D
:100C23005553A37BA20492AFA2AF9204C2AF75C780
:100C3300AA75C755F591A20492AF75B1FFF5B275C8
:100C4300B3FFF5B475ACFFF5AD43E98043EA8053D8
:100C5300EB7F439B02D2AF120FE7C2854387021299
:100C63000FFE7F967E00120EC12087EB3087FDA218
:100C7300AF9204C2AF75C7AA75C755439F80A2043C
:100C830092AF22900044EBF0A3EAF0A3E9F0C28311
:100C9300A37402F09000487407F0900048E0FFC38B
:100CA300648094804039C284900044E0FBA3E0FA5E
:100CB300A3E0F9A3E0FD3395E08D82F5831200866E
:100CC300FEA807088002C313D8FC1392817F051284
:100CD3001015D284121015900048E014F080BB90D8
:100CE3000047E014F0E0C36480948050A7D2837F70
:100CF3000A121015C2832244004A0000000050006B
:100D03001A7E483D6D4B67774C7F6F5F0000000094
:100D130000420015000042002A0000410014004177
:100D230000120142001700E144000E0000000041E0
:100D330000130041000D004100190244002C000083
:100D430000004400000000000041000400420005D0
:100D5300FFFF44000700000000C100C10100C0E024
:100D6300C0F0C083C082C0D075D000C000C004C032
:100D730005C006C007C091A2AF9204C2AF75C7AA4F
:100D830075C755759100A20492AF53C4EF90004A02
:100D9300E0FCA3E0FDA3E0FEA3E02401FFE43EFEAC
:100DA300E43DFDE43CFC90004A1202B5D091D0072B
:100DB300D006D005D004D000D0D0D082D083D0F0DC
:100DC300D0E032900015E0FEA3E0FF900005E06E56
:100DD3007003A3E06F6027120026EF2440FFEE3478
:100DE30077FEED341BFDE43CFC9000071202B59046
:100DF3000015E0FFA3E0900005CFF0A3EFF0120091
:100E030026900007E0F8A3E0F9A3E0FAA3E0FBC310
:100E13001202915003120C0C22900041EBF0A3EA52
:100E2300F0A3E9F07B017A0079441208759000463B
:100E3300EFF0900045E0FF900041E0FBA3E0FAA350
:100E4300E0F9E48FF0120155900041E0FBA3E0FAD2
:100E5300A3E0F912012AFE900044E07C002400FF85
:100E6300EC3E8FF0120155900046E0FF22E4FB7D3B
:100E730001FF120AD37BE07DF07F03120AD37B0FBD
:100E8300E4FD7F04120AD3E4FB7F05120AD37B0F30
:100E93007DFF7F06120AD3E4FBFD7F07120AD37B93
:100EA30003E47F08120AD3E4FB7D02FF120AD3E4B2
:100EB3007D82FF120AD37B02E4FF120AD322E4FCF1
:100EC300FD90004AE0F8A3E0F9A3E0FAA3E02FFFC6
:100ED300EA3EFEED39FDEC38FC9000411202B5907C
:100EE300004AE0FCA3E0FDA3E0FEA3E0FF90004185
:100EF300E0F8A3E0F9A3E0FAA3E0FBD312029150D8
:100F0300DE22A2AF9204C2AF75C7AA75C755E4F536
:100F130091A20492AF43B30843B408A2AF9204C2B0
:100F2300AF75C7AA75C755F591A20492AF43B31025
:100F330043B41075BE0443BF0443BF0253BFFED284
:100F4300C622C0E0C0D075D000C007C091A2AF9246
:100F530004C2AF75C7AA75C75543AA40A20492AF8E
:100F6300AFAAEF5440F5AA60F7B292538FEFD09136
:100F7300D007D0D0D0E032C0E0C083C082C091306F
:100F8300980AD20190004EE599F0C2983099052055
:100F93000002C299D091D082D083D0E032C0E0C0A9
:100FA30083C082C09130F80A90004FE59AF0D202D4
:100FB300C2F830F905200002C2F9D091D082D08363
:100FC300D0E032C0E0C0D075D000C007C0917591A9
:100FD30000AFECEF2480700353EC7FD091D007D0A7
:100FE300D0D0E032A2AF9204C2AF75C7AA75C7557D
:100FF300E4F591A20492AF53C4F722A2AF9204C2C4
:10100300AF75C7AA75C755E4F591A20492AF43C45F
:101013000822E4FDFCEFFBC3ED9B7480F86C985051
:10102300070DBD00010C80ED22C2C353BFFE20C3D8
:101033000BE5BF30E0F853BFFE7F01227F00227D26
:10104300017C00E4FF1210587F03121058E41D7F47
:101053000412105822AB05AA04C007EAFBD00712FA
:101063000AD322900012E0B401031200562290002A
:1010730012E0B40103120C0C22900012E070031270
:101083000C0C2230B0037F00227F012243B1805336
:03109300B27F2207
:00000001FF
