:100000000209DCE5BD600BE5BD64106005E5BF30AD
:10001000E01053BFFED203D2C4C2C330C304C2C671
:10002000D2C622020DCF900037E0FCA3E0FDA3E092
:05003000FEA3E0FF2229
:10003B00020E1B53B1C543B23AD285C284C283C2EE
:02004B00812210
:10005300020D9A120026EF24F4FFEE3401FEE43D74
:10006300FDE43CFC90000E1202B5E490000DF0900C
:060073000014F0A3F022CE
:03007B00020DF57E
:10008300020B64BB010CE58229F582E5833AF58313
:10009300E0225006E92582F8E622BBFE06E9258226
:1000A300F8E222E58229F582E5833AF583E4932297
:1000B300F8BB010DE58229F582E5833AF583E8F083
:1000C300225006E92582C8F622BBFE05E92582C82F
:1000D300F222BC000BBE0029EF8DF084FFADF022AD
:1000E300E4CCF875F008EF2FFFEE33FEEC33FCEEB3
:1000F3009DEC984005FCEE9DFE0FD5F0E9E4CEFDA6
:1001030022EDF8F5F0EE8420D21CFEADF075F00878
:10011300EF2FFFED33FD4007985006D5F0F222C3D1
:1001230098FD0FD5F0EA22BB010A89828A83E0F5A4
:10013300F0A3E022500687F009E71922BBFE07E38C
:10014300F5F009E3192289828A83E493F5F07401B7
:100153009322BB010A89828A83F0E5F0A3F022503F
:1001630006F709A7F01922BBFE06F3E5F009F31918
:1001730022E88FF0A4CC8BF0A42CFCE98EF0A42C05
:10018300FC8AF0EDA42CFCEA8EF0A4CDA8F08BF051
:10019300A42DCC3825F0FDE98FF0A42CCD35F0FC4F
:1001A300EB8EF0A4FEA9F0EB8FF0A4CFC5F02ECD1B
:1001B30039FEE43CFCEAA42DCE35F0FDE43CFC2200
:1001C30075F008758200EF2FFFEE33FECD33CDCCF3
:1001D30033CCC58233C5829BED9AEC99E582984076
:1001E3000CF582EE9BFEED9AFDEC99FC0FD5F0D653
:1001F300E4CEFBE4CDFAE4CCF9A88222B800C1B97D
:100203000059BA002DEC8BF084CFCECDFCE5F0CBBA
:10021300F97818EF2FFFEE33FEED33FDEC33FCEBF3
:1002230033FB10D703994004EB99FB0FD8E5E4F9AE
:10023300FA227818EF2FFFEE33FEED33FDEC33FC9B
:10024300C933C910D7059BE99A4007EC9BFCE99A8F
:10025300F90FD8E0E4C9FAE4CCFB2275F010EF2FD4
:10026300FFEE33FEED33FDCC33CCC833C810D707D4
:100273009BEC9AE899400AED9BFDEC9AFCE899F80F
:100283000FD5F0DAE4CDFBE4CCFAE4C8F922EB9F16
:10029300F5F0EA9E42F0E99D42F0E89C45F022E841
:1002A300600FECC313FCED13FDEE13FEEF13FFD849
:1002B300F122ECF0A3EDF0A3EEF0A3EFF022A8827D
:1002C3008583F0D083D0821202D81202D81202D8CA
:1002D3001202D8E473E493A3C583C5F0C583C8C5EC
:1002E30082C8F0A3C583C5F0C583C8C582C822D020
:1002F30083D082F8E4937012740193700DA3A393D7
:10030300F8740193F5828883E473740293B5F0065D
:100313007403936860E9A3A3A3A380D8308703027F
:100323000428900004E014603424FE606814700311
:100333000203D314700302040B2405600302045365
:100343009000047401F0120026EF2419FFE43EFE2E
:10035300E43DFDE43CFC9000001202B522120026AD
:10036300900000E0F8A3E0F9A3E0FAA3E0FBC312D6
:10037300029140030204539000047403F012002618
:10038300EF24D0FFEE3407FEE43DFDE43CFC900097
:10039300001202B522120026900000E0F8A3E0F953
:1003A300A3E0FAA3E0FBC312029140030204531239
:1003B3000EBB9000047404F0120026EF24F4FFEE49
:1003C3003401FEE43DFDE43CFC9000001202B52242
:1003D300120026900000E0F8A3E0F9A3E0FAA3E0FE
:1003E300FBC31202915069120ED19000047405F000
:1003F300120026EF24F4FFEE3401FEE43DFDE43C5D
:10040300FC9000001202B522120026900000E0F8D2
:10041300A3E0F9A3E0FAA3E0FBC312029150311267
:100423000EC6222222900004E024FD701E900012CA
:10043300E0FFB40110900015E004F0700690001482
:10044300E004F08006EF7003120056E4900004F01D
:1004530022A2AF9204C2AF75C7AA75C755439F01C5
:10046300A20492AFE4F591EF24F9600C14600E241A
:1004730002700D75A638800875A630800375A63006
:10048300E4F5A775AF04A2AF9204C2AF75C7AA750E
:10049300C75543A401A20492AF85AE0805A6A2AF37
:1004A3009204C2AF75C7AA75C75543A401A20492AB
:1004B300AF85AE09EF24F8600302053EE50825E0A9
:1004C300FFE50954012FFF54C0F50BEF543FF50A24
:1004D30074F22FFF75AF0C75A601E4F5A7A2AF92D6
:1004E30004C2AFA2AF9204C2AF75C7AA75C7554382
:1004F300AA40A20492AF75C7AA75C75543A401A227
:100503000492AFE5AE644B600BE5AE64526005E563
:10051300AEB45322E50AC3940F5017E50B64406051
:100523000BE50B64806005E50BB4C00A74F22FFF82
:10053300800474FC2FFFEFC313F50875C7AA75C7B2
:100543005585088475C7AA75C755850985A2AF92D5
:1005530004C2AF75C7AA75C755539FFEA20492AFD5
:1005630022900033EBF0A3EAF0A3E9F0AE07D2C583
:10057300120E81EF6005D20302064AE5BD640860EE
:1005830005D20302064A75BCC0C2C5120E81EF60D4
:1005930005D20302064AE5BD64186005D2030206CC
:1005A3004AAF068FBC120E81EF6005D20302064AE2
:1005B300E5BD64286005D20302064AD2C5120E8146
:1005C300EF6005D20302064AE5BD64106004D2035E
:1005D3008075C2C575BCC1120E81EF6004D2038061
:1005E30066E5BD64406004D203805CE4FED2C212BF
:1005F3000E81EF6004D203804EE5BD64506004D2E7
:10060300038044900033E0FBA3E0FAA3E0F98E8279
:10061300758300E5BC1200B30EEEB402D0C2C21261
:100623000E81EF6004D203801EE5BD64586004D2DE
:10063300038014C2C3D2C453BFFE30C40A120003E2
:100643003003F7800280F353BFFE30030812000328
:10065300C2037F00227F0122AB07AA0680028072B9
:100663007C037DE8AF03AE021200D5900030ECF0BE
:10067300A3EDF0900030E0FEA3E0FF7C007D0A12C2
:1006830000D574172DF58274003CF583E090002F9C
:10069300F0A3E0FEA3E0FF7C007D0A1200D57C00FE
:1006A3007D0A1200D574172DF58274003CF583E0A2
:1006B30090002EF0900030E0FEA3E0FF7C007D640C
:1006C3001200D574172FF58274003EF583E0900075
:1006D3002DF0D3EB94A0EA940F400E90002DE0246C
:1006E30080F0A3E02480F08034D3EB94B8EA940B39
:1006F300400990002EE02480F08022D3EB94D0EACE
:100703009407400990002FE02480F08010D3EB94ED
:10071300E8EA9403400790002DE02480F07B017AFF
:1007230000792D120AF07F0A120E6AE490002FF06E
:1007330090002EF090002DF07B017A00792D120AA3
:10074300F07F0A120E6A2290002DEDF0A3EBF0A2C7
:10075300AF9204C2AF75C7AA75C755E4F591A20459
:1007630092AF53C4F7F591EF24FE602124FE602578
:1007730024FC602924F8602D24F0603124E06035E6
:1007830024C06039247F703B53C4F8803653C4F8C7
:1007930043C401802E53C4F843C402802653C4F8D3
:1007A30043C403801E53C4F843C404801653C4F8DF
:1007B30043C405800E53C4F843C406800653C4F8EB
:1007C30043C407A2AF9204C2AF75C7AA75C755E465
:1007D300F591A20492AF53C4EF90002DE0F5C6A3A8
:1007E300E0F5C5439C02D2AFA2AF9204C2AF75C776
:1007F300AA75C755E4F591A20492AF43C408221227
:10080300002690000EE0F8A3E0F9A3E0FAA3E0FBD2
:10081300C312029140030208A1120026EF242CFF09
:10082300EE3401FEE43DFDE43CFC90000E1202B503
:100833007B017A00790B7FF8120C1FEF605AD3907B
:10084300000CE0949B90000BE094004031E4900096
:1008530013F090000DE004F0E0FFB40514900012D3
:10086300E0700E900015E004F07006900014E004B0
:10087300F0EFD39405402790000D7406F02290000A
:100883000DE0601A900016E014F0E0701190000D76
:10089300F09000167402F022900013E004F022AEF0
:1008A30007D2C5120E81EF6005D203020930E5BD00
:1008B30064086004D2038075C2C575BCC0120E8182
:1008C300EF6004D2038066E5BD64186004D2038040
:1008D3005CAF068FBC120E81EF6004D203804EE53D
:1008E300BD64286004D2038044AF058FBC120E811F
:1008F300EF6004D2038036E5BD64286004D2038030
:100903002CAF038FBC120E81EF6004D203801EE56F
:10091300BD64286004D2038014D2C4C2C353BFFE93
:1009230030C40A1200033003F7800280F353BFFE82
:10093300300308120003C2037F00227F0122E490E8
:100943000027F0A3F0A31202C100000000A2AF929F
:1009530004C2AF75C7AA75C755E4F591A20492AF57
:1009630075B1FFF5B275B3FFF5B475ACFFF5AD7FA7
:1009730007120454759504120EDB900012EFF01267
:100983000D5A12003E7B187DFC7F0212074A90002D
:1009930012E07005120CC58003120E97120EE412BA
:1009A300031F900012E07003120802120EDB900086
:1009B30012E06F6013A2AF9204C2AF75C7AA75C7E6
:1009C30055439F80A20492AF90000BE0FEA3E0FF8B
:1009D30012065B120BC980C722787FE4F6D8FD901C
:1009E30000007FFF7E04E4F0A3DFFCDEFA758120C4
:1009F300020A31020941E493A3F8E493A34003F606
:100A03008001F208DFF48029E493A3F85407240C4F
:100A1300C8C333C4540F4420C8834004F456800130
:100A230046F6DFE4800B0102040810204080900C9E
:100A330073E47E019360BCA3FF543F30E509541F68
:100A4300FEE493A360010ECF54C025E060A840B834
:100A5300E493A3FAE493A3F8E493A3C8C582C8CAB2
:100A6300C583CAF0A3C8C582C8CAC583CADFE9DE85
:100A7300E780BE120E97A2AF9204C2AF75C7AA75E4
:100A8300C755E4F59175C7AA75C75553A37BA2044F
:100A930092AFA2AF9204C2AF75C7AA75C755F591BD
:100AA300A20492AF75B1FFF5B275B3FFF5B475AC9F
:100AB300FFF5AD43E98043EA8053EB7F439B02D2CA
:100AC300AF120E3CC285438702120E537F967E00FF
:100AD300120D162087EB3087FDA2AF9204C2AF75CB
:100AE300C7AA75C755439F80A20492AF22900032D4
:100AF300EBF0A3EAF0A3E9F0C283A37402F0900041
:100B0300367407F0900036E0FFC364809480403968
:100B1300C284900032E0FBA3E0FAA3E0F9A3E0FD76
:100B23003395E08D82F583120086FEA807088002C4
:100B3300C313D8FC1392817F05120E6AD284120E5E
:100B43006A900036E014F080BB900035E014F0E0CA
:100B5300C36480948050A7D2837F0A120E6AC28333
:100B630022C0E0C0F0C083C082C0D075D000C000F6
:100B7300C004C005C006C007C091A2AF9204C2AFB3
:100B830075C7AA75C755759100A20492AF53C4EFF8
:100B9300900037E0FCA3E0FDA3E0FEA3E02401FF07
:100BA300E43EFEE43DFDE43CFC9000371202B5D088
:100BB30091D007D006D005D004D000D0D0D082D0B9
:100BC30083D0F0D0E032900014E0FEA3E0FF900069
:100BD30005E06E7003A3E06F6027120026EF244048
:100BE300FFEE3477FEED341BFDE43CFC900007126E
:100BF30002B5900014E0FFA3E0900005CFF0A3EF4F
:100C0300F0120026900007E0F8A3E0F9A3E0FAA3AE
:100C1300E0FBC31202915003120A762290002DEBDF
:100C2300F0A3EAF0A3E9F07B017A007930120564BE
:100C3300900032EFF0900031E0FF90002DE0FBA335
:100C4300E0FAA3E0F9E48FF012015590002DE0FBE8
:100C5300A3E0FAA3E0F912012AFE900030E07C0041
:100C63002400FFEC3E8FF0120155900032E0FF228A
:100C7300440037000000005000177E483D6D4B676D
:100C8300774C7F6F5F0000000000420014000041BA
:100C930000120144000E0000000041001300410057
:100CA3000D00410016024400000000000041000452
:100CB30000420005FFFF44000700000000C100C11F
:100CC3000100E4FB7D01FF1208A27BD07DC07F03FE
:100CD3001208A27B0EE4FD7F041208A2E4FB7F0549
:100CE3001208A27B0F7DFF7F061208A2E4FBFD7FA3
:100CF300071208A27B03E47F081208A2E4FB7D022B
:100D0300FF1208A2E47D82FF1208A27B02E4FF1215
:100D130008A222E4FCFD900037E0F8A3E0F9A3E089
:100D2300FAA3E02FFFEA3EFEED39FDEC38FC90001C
:100D33002D1202B5900037E0FCA3E0FDA3E0FEA373
:100D4300E0FF90002DE0F8A3E0F9A3E0FAA3E0FBB5
:100D5300D312029150DE22A2AF9204C2AF75C7AA8A
:100D630075C755E4F591A20492AF43B30843B408A1
:100D7300A2AF9204C2AF75C7AA75C755F591A20475
:100D830092AF43B31043B41075BE0443BF0443BFD3
:100D93000253BFFED2C622C0E0C0D075D000C00748
:100DA300C091A2AF9204C2AF75C7AA75C75543AA33
:100DB30040A20492AFAFAAEF5440F5AA60F7B292F3
:100DC300538FEFD091D007D0D0D0E032C0E0C083B2
:100DD300C082C09130980AD20190003BE599F0C2DD
:100DE30098309905200002C299D091D082D083D047
:100DF300E032C0E0C083C082C09130F80A90003C6A
:100E0300E59AF0D202C2F830F905200002C2F9D007
:100E130091D082D083D0E032C0E0C0D075D000C082
:100E230007C091759100AFECEF2480700353EC7F02
:100E3300D091D007D0D0D0E032A2AF9204C2AF7528
:100E4300C7AA75C755E4F591A20492AF53C4F7221C
:100E5300A2AF9204C2AF75C7AA75C755E4F591A2B4
:100E63000492AF43C40822E4FDFCEFFBC3ED9B7483
:100E730080F86C9850070DBD00010C80ED22C2C3B1
:100E830053BFFE20C30BE5BF30E0F853BFFE7F0125
:100E9300227F00227D017C00E4FF120EAD7F03124E
:100EA3000EADE41D7F04120EAD22AB05AA04C007EC
:100EB300EAFBD0071208A222900012E0B401031249
:100EC300005622900012E0B40103120A7622900029
:100ED30012E07003120A762230B0037F00227F01F2
:080EE3002243B18053B27F22CB
:00000001FF
