:1000000002139C90018D745AF0A304F078177C00C1
:100010007D017B017A0179877E007F0812015612EB
:100020001ACA22021A0B90013BE0FB90013AE090C1
:10003000001AF07D017F041214CC22021A7B900179
:1000400031E0FB900168E090001AF07D017F03121F
:1000500014CC22021981EFD3940F4007900177E06E
:10006000FF8005900173E0FF900179E0FB90001A9A
:0E007000EFF0E4FD7F031214CC2222021A31BD
:10008300021791E709F608DFFA8046E709F208DF6D
:10009300FA803E88828C83E709F0A3DFFA8032E39B
:1000A30009F608DFFA8078E309F208DFFA8070883E
:1000B300828C83E309F0A3DFFA806489828A83E078
:1000C300A3F608DFFA805889828A83E0A3F208DF67
:1000D300FA804C80D280FA80C680D4806980F28016
:1000E30033801080A680EA809A80A880DA80E2803C
:1000F300CA803389828A83ECFAE493A3C8C582C891
:10010300CCC583CCF0A3C8C582C8CCC583CCDFE9FA
:10011300DEE7800D89828A83E493A3F608DFF9EC96
:10012300FAA9F0EDFB2289828A83ECFAE0A3C8C521
:1001330082C8CCC583CCF0A3C8C582C8CCC583CC48
:10014300DFEADEE880DB89828A83E493A3F208DFB7
:10015300F980CC88F0EF60010E4E60C388F0ED2487
:1001630002B4040050B9F582EB2402B4040050AF8A
:1001730023234582239000D673BB010CE58229F526
:1001830082E5833AF583E0225006E92582F8E622E8
:10019300BBFE06E92582F8E222E58229F582E583A2
:1001A3003AF583E49322F8BB010DE58229F582E554
:1001B300833AF583E8F0225006E92582C8F622BB8C
:1001C300FE05E92582C8F222BC000BBE0029EF8D93
:1001D300F084FFADF022E4CCF875F008EF2FFFEECA
:1001E30033FEEC33FCEE9DEC984005FCEE9DFE0FD8
:1001F300D5F0E9E4CEFD22EDF8F5F0EE8420D21C33
:10020300FEADF075F008EF2FFFED33FD400798507A
:1002130006D5F0F222C398FD0FD5F0EA22C5F0F817
:10022300A3E028F0C5F0F8E582158270021583E09B
:1002330038F022BB010A89828A83E0F5F0A3E02229
:10024300500687F009E71922BBFE07E3F5F009E33F
:10025300192289828A83E493F5F074019322BB0106
:100263000A89828A83F0E5F0A3F0225006F709A7F2
:10027300F01922BBFE06F3E5F009F31922E88FF02B
:10028300A4CC8BF0A42CFCE98EF0A42CFC8AF0ED1A
:10029300A42CFCEA8EF0A4CDA8F08BF0A42DCC38CE
:1002A30025F0FDE98FF0A42CCD35F0FCEB8EF0A406
:1002B300FEA9F0EB8FF0A4CFC5F02ECD39FEE43CC0
:1002C300FCEAA42DCE35F0FDE43CFC2275F0087564
:1002D3008200EF2FFFEE33FECD33CDCC33CCC5827E
:1002E30033C5829BED9AEC99E58298400CF582EE3A
:1002F3009BFEED9AFDEC99FC0FD5F0D6E4CEFBE422
:10030300CDFAE4CCF9A88222B800C1B90059BA00E9
:100313002DEC8BF084CFCECDFCE5F0CBF97818EF44
:100323002FFFEE33FEED33FDEC33FCEB33FB10D745
:1003330003994004EB99FB0FD8E5E4F9FA22781806
:10034300EF2FFFEE33FEED33FDEC33FCC933C91061
:10035300D7059BE99A4007EC9BFCE99AF90FD8E093
:10036300E4C9FAE4CCFB2275F010EF2FFFEE33FE65
:10037300ED33FDCC33CCC833C810D7079BEC9AE8D8
:1003830099400AED9BFDEC9AFCE899F80FD5F0DA59
:10039300E4CDFBE4CCFAE4C8F922EB9FF5F0EA9E46
:1003A30042F0E99D42F0E89C45F022E8600FECC37F
:1003B30013FCED13FDEE13FEEF13FFD8F122ECF067
:1003C300A3EDF0A3EEF0A3EFF022A8828583F0D093
:1003D30083D0821203E41203E41203E41203E4E47D
:1003E30073E493A3C583C5F0C583C8C582C8F0A3CE
:1003F300C583C5F0C583C8C582C822D083D082F81F
:10040300E4937012740193700DA3A393F874019392
:10041300F5828883E473740293B5F00674039368DA
:1004230060E9A3A3A3A380D8900027EEF0A3EFF085
:10043300A3EBF0A3EAF0A3E9F0A2AF9204C2AF7575
:10044300C7AA75C755439F01A20492AFA2AF9204F6
:10045300C2AF75C7AA75C75543A501A20492AF9051
:100463000027E0FEA3E0FF547FFD90002EF0C3744D
:10047300809DFD90002DF090002CE0D39D4006A3BD
:10048300E090002CF090002FEEF0A3EFF0E490004A
:100493002DF090002CE0FFA3E0FEC39F501B9000C3
:1004A3002FE0FCA3E02EF582E43CF583E493B4FF54
:1004B3000890002DE004F080D9EE6F600302056719
:1004C30075AF21900027E0FEA3E0F5A6EEF5A7E4C3
:1004D30090002DF090002CE0FFA3E0FEC39F50326C
:1004E300900029E0FBA3E0FAA3E0F98E8275830074
:1004F30012017CF5AEA2AF9204C2AF75C7AA75C74D
:100503005543A401A20492AF05A690002DE004F088
:1005130080C2E490002DF090002CE0FFA3E0FEC326
:100523009F502F900029E0FBA3E0FAA3E0F98E820D
:1005330075830012017CFF90002FE0FCA3E02EF5F1
:1005430082E43CF583E493B5070890002DE004F0C2
:1005530080C590002CE0FFA3E06F700302068F803C
:100563000302068F900027E0FFA3E0548090002F42
:10057300CFF0A3EFF0E490002DF090002DE0FF907A
:10058300002FE0FCA3E02FF582E43CF583E493FE27
:1005930074312FF582E43400F583EEF090002DE002
:1005A30004F0E0B480D4E490002DF090002CE0FF40
:1005B300A3E0C39F5031900029E0FBA3E0FAA3E03E
:1005C300F990002DE0FFF58275830012017CFE9007
:1005D300002EE02F2431F582E43400F583EEF09011
:1005E300002DE004F080C4900027E0FEA3E05480D7
:1005F300F5A6EEF5A775AF2275AEFFA2AF9204C2C2
:10060300AF75C7AA75C75543A401A20492AF75AFCE
:1006130021E490002DF090002DE0FFC39480502A38
:1006230074312FF582E43400F583E0F5AEA2AF9286
:1006330004C2AF75C7AA75C75543A401A20492AFFC
:1006430005A690002DE004F080CCE490002DF090FE
:10065300002DE0FFC39480502BE0FE90002FE0FCC0
:10066300A3E02EF582E43CF583E493FD74312EF58B
:1006730082E43400F583E0FEEDB5060890002DE03A
:1006830004F080CBEF648060030205EAA2AF92041A
:10069300C2AF75C7AA75C755539FFEA20492AF9008
:1006A300002CE0FF22E4900002F0A3F0A31203CD9C
:1006B300000000009000081203CD00000000E49049
:1006C300000CF0A31203CD000000009000111203F0
:1006D300CD00000000121B7CA2AF9204C2AF75C70D
:1006E300AA75C755E4F591A20492AF75B1FFF5B2AF
:1006F30075B3FFF5B475ACFFF5AD7F0712106E75DA
:100703009504121BA31218A790018BE0FFA3E0909E
:100713000195CFF0A3EFF09001AA1203CD00FFFFE4
:10072300FF121B9A90018FEFF0121850121B567B89
:10073300187DFC7F0212123F1217F6EF4E70087FEE
:1007430001121B650208E590018FE060030208E5D2
:1007530090000D1203CD00000000121B47EF24E8A8
:10076300FFEE3403FEE43DFDE43CFC900011120374
:10077300C1900195E07002A3E060030208E09001DC
:100783009204F0121B47900011E0F8A3E0F9A3E0F4
:10079300FAA3E0FBC312039D4003020877121B4731
:1007A300900008E0F8A3E0F9A3E0FAA3E0FBC3128A
:1007B300039D40030208777B017A01797F121A5760
:1007C300EF6077E49001AEF0A3F0121B47EF24C86B
:1007D300FFE43EFEE43DFDE43CFC9000081203C14F
:1007E30090000DE0F8A3E0F9A3E0FAA3E0FB900189
:1007F3007FE0FEA3E0FFE4FCFDEB2FFFEA3EFEED0E
:1008030039FDEC38FC90000D1203C190000CE0049C
:10081300F0900195E0FEA3E0FF90017FE0FCA3E0F0
:10082300FDD39FEC9E4008900195ECF0A3EDF09072
:10083300000CE0B40F3E804A803A121B47EF246459
:10084300FFE43EFEE43DFDE43CFC9000081203C1DE
:100853009001AFE004F070069001AEE004F0D39095
:1008630001AFE0940A9001AEE0940040077F0212CA
:100873001B65800E90017FE0FEA3E0FF12091902C1
:1008830007869001AEE07002A3E0705190000CE087
:10089300FFFBE4FAF9F8A3E0FCA3E0FDA3E0FEA369
:1008A300E0FF12030B900000EEF0A3EFF09001962F
:1008B300E02403F0900195E03400F0E0FFA3E09022
:1008C300018BCFF0A3EFF078177C007D017B017AD9
:1008D3000179877E007F08120156121ACAE490013B
:1008E30092F09000111203CD00000000120C5D90F5
:1008F300018FE07003120F34121B9A90018FE06F87
:100903006003121B0E900193E0FEA3E0FF1209198E
:100913001216BC80D722AB07AA069001B6E0603B53
:100923009000157437F0900191E0FF75F00A84741C
:100933009825F0F582E43401F583E0900017F0EF99
:1009430075F00A8475F00A84749825F0F582E4340E
:1009530001F583E0900016F0020A6F90018FE064C6
:1009630001707B9001A8E0FEA3E0FF7C037DE81209
:1009730001CB9001A8ECF0A3EDF09001A8E0FEA359
:10098300E0FF7C007D0A1201CB74982DF58274017F
:100993003CF583E0900017F09001A8E0FEA3E0FF90
:1009A3007C007D0A1201CB7C007D0A1201CB749876
:1009B3002DF58274013CF583E0900016F09001A8B8
:1009C300E0FEA3E0FF7C007D641201CB74982FF559
:1009D3008274013EF583E0900015F0020A6F9001E6
:1009E30092E060169001A0E0900015F02480A3F03F
:1009F3009001A0E0900017F080727C007DC6AF03E9
:100A0300AE021201CBAA04AB05EB2401FFE43AFECC
:100A13007C007D141201CB74982FF58274013EF58E
:100A230083E0900015F0EB2401FFE43AC313FEEFDB
:100A330013FF7C007D0A1201CB74982DF58274019B
:100A43003CF583E02480900016F0900198E090003C
:100A530017F0EB4A601690019AE0900017F0AF038D
:100A6300EF30E008900199E0900017F0E4FF74156F
:100A73002FF582E43400F583E0FE900198E0FDEE6B
:100A8300B5051174152FF582E43400F583E4F00FF6
:100A9300EFB402DA7B017A0079151215D67F0512BD
:100AA3001AE1E4900017F0900016F0900015F07B27
:100AB300017A0079151215D67F05121AE122440135
:100AC300BB000000005001987E483D6D4B67774C9A
:100AD3007F6F5F000000000042019300004201A805
:100AE30000004201AE0000410192004401AA00FF50
:100AF300FFFF4201B0FFFF41018F0142019500005A
:100B03004401830000000041019000420181000084
:100B1300410197054401B7FFFFFFFF4401B2000005
:100B2300000044017A0000000041017E00410158A9
:100B33003F4101470041015A804101594041015B56
:100B4300C041016BF341016F004101700441017227
:100B5300084101760C410136FD4101650041013C2C
:100B630002410157FE41014300410164014101512A
:100B73003F41017100410174404101428041014103
:100B8300C0410149CF41014A0041014B1041014C91
:100B93002041014D30410135F14101660041013DE4
:100BA300024101670441013E064101690841013FD9
:100BB3000A41016A0C41016E0E410131FE41016897
:100BC3000041014501410179F7410173004101777A
:100BD3000841015FFC4101440041014601410162BA
:100BE300024101600341013BEF4101610041013AD0
:100BF30010410178F7410156004101750841014850
:100C0300FB410139044101637F41016D00410153FF
:100C130080410138BF41015D004101344041016C15
:100C2300F8410132004101370141014E02410150B7
:100C33000341015204410154054101550641014F4D
:100C43000741015E20410133104101400241015C33
:100C5300014101C100C100C10100308703020DA79A
:100C630090017EE014603A24FE606E147003020D5E
:100C730017147003020D52147003020D8A240660C8
:100C830003020DD690017E7401F0121B47EF241965
:100C9300FFE43EFEE43DFDE43CFC90017A1203C117
:100CA30022121B4790017AE0F8A3E0F9A3E0FAA32C
:100CB300E0FBC312039D4003020DD690017E740333
:100CC300F0121B47EF24DCFFEE3405FEE43DFDE4A8
:100CD3003CFC90017A1203C122121B4790017AE077
:100CE300F8A3E0F9A3E0FAA3E0FBC312039D4003DA
:100CF300020DD6121B8690017E7404F0121B47EF7F
:100D030024F4FFEE3401FEE43DFDE43CFC90017A63
:100D13001203C122121B4790017AE0F8A3E0F9A362
:100D2300E0FAA3E0FBC312039D4003020DD61200B9
:100D33007A90017E7405F0121B47EF24F4FFEE3422
:100D430001FEE43DFDE43CFC90017A1203C1221252
:100D53001B4790017AE0F8A3E0F9A3E0FAA3E0FBD4
:100D6300C312039D506D121B9090017E7406F01206
:100D73001B47EF24F4FFEE3401FEE43DFDE43CFCAD
:100D830090017A1203C122121B4790017AE0F8A363
:100D9300E0F9A3E0FAA3E0FBC312039D5035121B55
:100DA3007122222290017EE024FD24FD5002801E48
:100DB30090018FE0FFB401109001A9E004F07006E8
:100DC3009001A8E004F08006EF70031219B6E490D6
:100DD300017EF022AE07D2C5121AF8EF600BD203E0
:100DE3009001C174B2F0020F23E5BD64086014E5FD
:100DF300BDB44804D2C4D2C2D2039001C174BDF0C1
:100E0300020F2375BCC0C2C5121AF8EF6005D203E6
:100E1300020F23E5BD6418600B9001C174CFF0D2BB
:100E230003020F23AF068FBC121AF8EF600B900179
:100E3300C174DBF0D203020F23E5BD6428600B907D
:100E430001C174E1F0D203020F23D2C5121AF8EFE5
:100E5300600B9001C174ECF0D203020F23E5BD6473
:100E630010600B9001C174F2F0D203020F23C2C5CC
:100E730075BCC1121AF8EF600B9001C174FFF0D278
:100E830003020F23E5BD6440600B9001C17405F0BC
:100E9300D203020F23E4FED2C2121AF8EF600A90C3
:100EA30001C17413F0D2038077E5BD6450600A90EA
:100EB30001C17419F0D2038067741E2EF582E434E5
:100EC30000F583E5BCF00EEEB402CC90001FE0FF0A
:100ED300E48FF0120261120236FE90001EE07C00E5
:100EE3002400FFEC3E8FF0120261C2C2121AF8EF27
:100EF300600AD2039001C17429F08024E5BD6458CF
:100F0300600AD2039001C1742FF08014C2C3D2C40B
:100F130053BFFE30C40A1219E53003F7800280F391
:100F230053BFFE3003081219E5C2037F00227F017D
:100F330022121B479001B7E0F8A3E0F9A3E0FAA35C
:100F4300E0FBC312039D5022900193E07002A3E0E3
:100F5300600E900194E024FFF0900193E034FFF0E1
:100F63009001B71203CDFFFFFFFF121B47900183D0
:100F7300E0F8A3E0F9A3E0FAA3E0FBC312039D406A
:100F83000302106D7B017A01797F121A57EF700308
:100F9300021051121B47EF242CFFEE3401FEE43DF7
:100FA300FDE43CFC9001831203C1900195E0FEA394
:100FB300E0FFD3900180E09F90017FE09E4041E4F9
:100FC300900190F0900182E004F07006900181E0BE
:100FD30004F09001977405F0900181E07004A3E0A0
:100FE3006405600302106D900194E004F0700690B4
:100FF3000193E004F09001B71203CDFFFFFFFF223E
:10100300C3900182E09405900181E09400405B90DD
:101013000197E014F0E07052900181F0A3F0900189
:10102300977405F0900194E030E018121B47EF2409
:101033008CFFEE343CFEE43DFDE43CFC9001B71232
:1010430003C1229001B71203CDFFFFFFFF22121B42
:1010530047EF240AFFE43EFEE43DFDE43CFC90013F
:10106300831203C1900190E004F022A2AF9204C264
:10107300AF75C7AA75C755439F01A20492AFE4F5A4
:1010830091EF24F9600C14600E2402700D75A638DC
:10109300800875A630800375A630E4F5A775AF0404
:1010A300A2AF9204C2AF75C7AA75C75543A401A2E4
:1010B3000492AF85AE0805A6A2AF9204C2AF75C76E
:1010C300AA75C75543A401A20492AF85AE09EF24C4
:1010D300F86003021158E50825E0FFE50954012FE4
:1010E300FF54C0F50BEF543FF50A74F22FFF75AFB1
:1010F3000C75A601E4F5A7A2AF9204C2AFA2AF920A
:1011030004C2AF75C7AA75C75543AA40A20492AFDC
:1011130075C7AA75C75543A401A20492AFE5AE648F
:101123004B600BE5AE64526005E5AEB45322E50AAD
:10113300C3940F5017E50B6440600BE50B648060AC
:1011430005E50BB4C00A74F22FFF800474FC2FFF73
:10115300EFC313F50875C7AA75C75585088475C706
:10116300AA75C755850985A2AF9204C2AF75C7AAF0
:1011730075C755539FFEA20492AF2290001FEEF055
:10118300A3EFF0A3EBF0A3EAF0A3E9F090001FE0D4
:10119300FCA3E0FDAE047807CEC313CE13D8F9FB4E
:1011A300900024E0FEA3E02DFFEC3EFEEF7807CE97
:1011B300C313CE13D8F9900026F0900026E06B609D
:1011C3005690001FE0FEA3E0FFA3E0FBA3E0FAA319
:1011D300E0F990002C7480F012042BAD07ED900021
:1011E30020E02FF090001FE03400F0ED900022E4A7
:1011F3008FF0120220EDC3900025E09FF0900024B1
:10120300E09400F090001FE0FEA3E07807CEC31344
:10121300CE13D8F9FB80A3900024E0FCA3E0FD4C9F
:10122300601990001FE0FEA3E0FFA3E0FBA3E0FA38
:10123300A3E0F990002CEDF012042B22900015EDA1
:10124300F0A3EBF0A2AF9204C2AF75C7AA75C7555E
:10125300E4F591A20492AF53C4F7F591EF24FE6035
:101263002124FE602524FC602924F8602D24F060ED
:101273003124E0603524C06039247F703B53C4F8C7
:10128300803653C4F843C401802E53C4F843C402C8
:10129300802653C4F843C403801E53C4F843C404D4
:1012A300801653C4F843C405800E53C4F843C406E0
:1012B300800653C4F843C407A2AF9204C2AF75C7F4
:1012C300AA75C755E4F591A20492AF53C4EF9000F9
:1012D30015E0F5C6A3E0F5C5439C02D2AFA2AF92D9
:1012E30004C2AF75C7AA75C755E4F591A20492AFBE
:1012F30043C40822AB07AF05AA07ECFED2C5121AF6
:10130300F8EF6005D20302138BE5BD64086004D2D5
:10131300038075C2C575BCC0121AF8EF6004D2030E
:101323008066E5BD64186004D203805CAF038FBCA4
:10133300121AF8EF6004D203804EE5BD64286004FE
:10134300D2038044AF028FBC121AF8EF6004D203B9
:101353008036E5BD64286004D203802CAF068FBCC1
:10136300121AF8EF6004D203801EE5BD64286004FE
:10137300D2038014D2C4C2C353BFFE30C40A1219AD
:10138300E53003F7800280F353BFFE3003081219E0
:10139300E5C2037F00227F0122787FE4F6D8FD9027
:1013A30000007FFF7E04E4F0A3DFFCDEFA758120FA
:1013B3000213F10206A8E493A3F8E493A34003F60F
:1013C3008001F208DFF48029E493A3F85407240C86
:1013D300C8C333C4540F4420C8834004F456800167
:1013E30046F6DFE4800B0102040810204080900AD7
:1013F300C1E47E019360BCA3FF543F30E509541F51
:10140300FEE493A360010ECF54C025E060A840B86A
:10141300E493A3FAE493A3F8E493A3C8C582C8CAE8
:10142300C583CAF0A3C8C582C8CAC583CADFE9DEBB
:10143300E780BEE4900015F0A3F0A2AF9204C2AF20
:1014430075C7AA75C755F59175C7AA75C75553A32F
:101453007BA20492AFA2AF9204C2AF75C7AA75C7AD
:1014630055F591A20492AF75B1FFF5B275B3FFF5CF
:10147300B475ACFFF5AD43E98043EA8053EB7F439A
:101483009B02D2AF121A9CC285438702121AB37F02
:10149300967E0012193D2087EB2087177F647E001C
:1014A30012193D900016E004F07006900015E00458
:1014B300F080E6D3900016E0940F900015E09400BE
:1014C3004003120003121B0E22900018EDF0A3EB51
:1014D300F0900017EFF07B017A00791B120DD79083
:1014E3000018E0FDB4010C90001BE0A3E0540FA32F
:1014F300F0800890001BE090001DF090001DE0FFBD
:10150300900019E0FEEF5EFF90001DF090001AE0DE
:101513004F90001DF0EDB4011890001BE0FEA3A353
:10152300E07C002400FFEC3E90001BF0A3EFF08072
:101533001790001DE0FE7C0090001CE02400FFECEF
:101543003E90001BF0A3EFF0900017E0FF90001B0C
:10155300E0FCA3E0FD1212F722900015EEF0A3EFDA
:10156300F0D3943FEE9401400F900141E0FF9000CF
:1015730015E4F0A3EFF08044900015E0FEA3E0FF34
:10158300D3949FEE9400400F900142E0FD9000152C
:10159300E4F0A3EDF08025D3EF944FEE9400400FD9
:1015A300900174E0FF900015E4F0A3EFF0800D903C
:1015B3000171E0FF900015E4F0A3EFF0900151E01A
:1015C300FB900015E0A3E090001AF07D017F031269
:1015D30014CC22900018EBF0A3EAF0A3E9F0C28345
:1015E300A37402F090001C7407F090001CE0FFC38A
:1015F300648094804039C284900018E0FBA3E0FA31
:10160300A3E0F9A3E0FD3395E08D82F58312017C1D
:10161300FEA807088002C313D8FC1392817F05122A
:101623001AE1D284121AE190001CE014F080BB90FE
:10163300001BE014F0E0C36480948050A7D2837F42
:101643000A121AE1C28322EFD394C7400790014FD5
:10165300E0FF8053EFD394B34007900155E0FF8040
:1016630046EFD3949F4007900154E0FF8039EFD3B6
:10167300948B4007900152E0FF802CEFD394774086
:1016830007900150E0FF801FEFD394634007900160
:101693004EE0FF8012EFD3944A4007900137E0FFFA
:1016A3008005900132E0FF90016CE0FB90001AEF9F
:1016B300F0E4FD7F041214CC229001A8E0FEA3E025
:1016C300FF900194E02FFF900193E03EFE9001B064
:1016D300E06E7003A3E06F6032121B47EF2440FFFC
:1016E300EE3477FEED341BFDE43CFC9001AA1203BB
:1016F300C19001A8E0FEA3E0FF900194E02FFF90CA
:101703000193E03E9001B0F0A3EFF0121B4790016C
:10171300AAE0F8A3E0F9A3E0FAA3E0FBC312039D58
:10172300500312143622900015EEF0A3EFF0A3EB52
:10173300F0A3EAF0A3E9F0E490001CF0A3F090001A
:101743001AE0FEA3E0FFA3E0FCA3E0FDC39FEC9E31
:10175300503B900016E02DFF900015E03C8F82F582
:1017630083E493FF900017E0FBA3E0FAA3E0F99072
:10177300001CE0A3E0F5828C83EF1201A990001D09
:10178300E004F0700690001CE004F080B122C0E099
:10179300C0F0C083C082C0D075D000C000C004C0F8
:1017A30005C006C007C091A2AF9204C2AF75C7AA15
:1017B30075C755759100A20492AF53C4EF9001BB56
:1017C300E0FCA3E0FDA3E0FEA3E02401FFE43EFE72
:1017D300E43DFDE43CFC9001BB1203C1D091D00772
:1017E300D006D005D004D000D0D0D082D083D0F0A2
:1017F300D0E032121B22EF64867003EE64016004B2
:10180300E4FEFF227F8C12164A7FA07E0012155C35
:101813007F081218F27F101200561200269001580A
:10182300E0FB90015AE090001AF07D01E4FF1214EE
:10183300CC12003E900178E0FB900175E090001A15
:10184300F07D017F041214CC7E007F0122C2C6E426
:10185300F509E4F508000508E508B4FFF80509E50E
:1018630009B41AEEA2AF9204C2AF75C7AA75C755E1
:10187300E4F591A20492AF43B30843B408A2AF9234
:1018830004C2AF75C7AA75C755F591A20492AF43B9
:10189300B31043B41075BE0443BF0443BF0253BF28
:1018A300FED2C6227B017A017987121B3690018D05
:1018B300E0645A7004A3E0645A6030E4900187F056
:1018C300A3F0A3F0A3F0A3F0A3F0745AA3F0A3F042
:1018D30078177C007D017B017A0179877E007F0880
:1018E300120156121ACA7E007F0122E4FEFF22EF84
:1018F300D39407400790016EE0FF802CEFD394034D
:10190300400790016AE0FF801FEFD39402400790E5
:101913000169E0FF8012EFD394014007900167E073
:10192300FF8005900166E0FF900135E0FB90001A0F
:10193300EFF07D017F031214CC22E4FCFD9001BB88
:10194300E0F8A3E0F9A3E0FAA3E02FFFEA3EFEEDFF
:1019530039FDEC38FC9000171203C19001BBE0FC89
:10196300A3E0FDA3E0FEA3E0FF900017E0F8A3E0EF
:10197300F9A3E0FAA3E0FBD312039D50DE22C0E0FB
:10198300C0D075D000C007C091A2AF9204C2AF759A
:10199300C7AA75C75543AA40A20492AFAFAAEF5492
:1019A30040F5AA60F7B292538FEFD091D007D0D011
:1019B300D0E032121B47EF24F4FFEE3401FEE43D86
:1019C300FDE43CFC9001831203C1E4900181F0A388
:1019D300F0900193F0A3F09001B71203CDFFFFFF46
:1019E300FF22E5BD6011E5BD6410600BE5BD642019
:1019F3006005E5BF30E01053BFFED203D2C4C2C3BB
:101A030030C304C2C6D2C622C0E0C083C082C09124
:101A130030980AD2019001BFE599F0C29830990538
:101A2300200002C299D091D082D083D0E032C0E0AE
:101A3300C083C082C09130F80A9001C0E59AF0D209
:101A430002C2F830F905200002C2F9D091D082D049
:101A530083D0E0327F08120DD7900015EFF090018C
:101A630048E0FB900139E090001AF07D017F0412F9
:101A730014CC900015E0FF22C0E0C0D075D000C0A8
:101A830007C091759100AFECEF2480700353EC7F96
:101A9300D091D007D0D0D0E032A2AF9204C2AF75BC
:101AA300C7AA75C755E4F591A20492AF53C4F722B0
:101AB300A2AF9204C2AF75C7AA75C755E4F591A248
:101AC3000492AF43C408227B017A00791790002463
:101AD300E4F0A37408F07F827E3812117E22E4FDC5
:101AE300FCEFFBC3ED9B7480F86C9850070DBD00B1
:101AF300010C80ED22C2C353BFFE20C30BE5BF30F0
:101B0300E0F853BFFE7F01227F0022A2AF9204C2FE
:101B1300AF75C7AA75C755439F80A20492AF227BB6
:101B2300017A0079157F0C120DD7900015E0FEA302
:101B3300E0FF2290001AE4F0A37408F07F827E385D
:101B4300121729229001BBE0FCA3E0FDA3E0FEA352
:101B5300E0FF2253B1C543B23AD285C284C283C2E5
:101B630081229001B67401F0900191EFF02290016F
:101B73008FE0B4010312143622E49001B6F0900111
:101B830091F02290018FE070031214362290018F9E
:101B9300E070031214362230B0037F00227F00224C
:071BA30043B18053B27F2221
:00000001FF
