:10000000020915A2AF9204C2AF75C7AA75C755E41D
:10001000F591A20492AF53C4F72230B0037F0022BF
:100020007F0122020D7A900036E0FCA3E0FDA3E000
:05003000FEA3E0FF2229
:10003B0002005653B1C543B23AD285C284C283C2C1
:02004B00812210
:10005300020D45C0E0C0D075D000C007C0917591B6
:1000630000AFECEF2480700353EC7FD091D007D026
:04007300D0D0E032D7
:03007B00020DA0D3
:10008300020B18BB010CE58229F582E5833AF5835F
:10009300E0225006E92582F8E622BBFE06E9258226
:1000A300F8E222E58229F582E5833AF583E4932297
:1000B300F8BB010DE58229F582E5833AF583E8F083
:1000C300225006E92582C8F622BBFE05E92582C82F
:1000D300F222BC000BBE0029EF8DF084FFADF022AD
:1000E300E4CCF875F008EF2FFFEE33FEEC33FCEEB3
:1000F3009DEC984005FCEE9DFE0FD5F0E9E4CEFDA6
:1001030022EDF8F5F0EE8420D21CFEADF075F00878
:10011300EF2FFFED33FD4007985006D5F0F222C3D1
:1001230098FD0FD5F0EA22BB010A89828A83E0F5A4
:10013300F0A3E022500687F009E71922BBFE07E38C
:10014300F5F009E3192289828A83E493F5F07401B7
:100153009322BB010A89828A83F0E5F0A3F022503F
:1001630006F709A7F01922BBFE06F3E5F009F31918
:1001730022E88FF0A4CC8BF0A42CFCE98EF0A42C05
:10018300FC8AF0EDA42CFCEA8EF0A4CDA8F08BF051
:10019300A42DCC3825F0FDE98FF0A42CCD35F0FC4F
:1001A300EB8EF0A4FEA9F0EB8FF0A4CFC5F02ECD1B
:1001B30039FEE43CFCEAA42DCE35F0FDE43CFC2200
:1001C30075F008758200EF2FFFEE33FECD33CDCCF3
:1001D30033CCC58233C5829BED9AEC99E582984076
:1001E3000CF582EE9BFEED9AFDEC99FC0FD5F0D653
:1001F300E4CEFBE4CDFAE4CCF9A88222B800C1B97D
:100203000059BA002DEC8BF084CFCECDFCE5F0CBBA
:10021300F97818EF2FFFEE33FEED33FDEC33FCEBF3
:1002230033FB10D703994004EB99FB0FD8E5E4F9AE
:10023300FA227818EF2FFFEE33FEED33FDEC33FC9B
:10024300C933C910D7059BE99A4007EC9BFCE99A8F
:10025300F90FD8E0E4C9FAE4CCFB2275F010EF2FD4
:10026300FFEE33FEED33FDCC33CCC833C810D707D4
:100273009BEC9AE899400AED9BFDEC9AFCE899F80F
:100283000FD5F0DAE4CDFBE4CCFAE4C8F922EB9F16
:10029300F5F0EA9E42F0E99D42F0E89C45F022E841
:1002A300600FECC313FCED13FDEE13FEEF13FFD849
:1002B300F122ECF0A3EDF0A3EEF0A3EFF022A8827D
:1002C3008583F0D083D0821202D81202D81202D8CA
:1002D3001202D8E473E493A3C583C5F0C583C8C5EC
:1002E30082C8F0A3C583C5F0C583C8C582C822D020
:1002F30083D082F8E4937012740193700DA3A393D7
:10030300F8740193F5828883E473740293B5F0065D
:100313007403936860E9A3A3A3A380D8308703027F
:10032300042B90000BE014603424FE606B14700304
:100333000203D614700302040E2405600302044D65
:1003430090000B7401F0120026EF2419FFE43EFE27
:10035300E43DFDE43CFC9000071202B522120026A6
:10036300900007E0F8A3E0F9A3E0FAA3E0FBC312CF
:100373000291400302044D90000B7403F0120E45EA
:10038300120026EF24D0FFEE3407FEE43DFDE43CEB
:10039300FC9000071202B522120026900007E0F835
:1003A300A3E0F9A3E0FAA3E0FBC312029140030226
:1003B300044D120E2F90000B7404F0120026EF244C
:1003C300F4FFEE3401FEE43DFDE43CFC9000071233
:1003D30002B522120026900007E0F8A3E0F9A3E09B
:1003E300FAA3E0FBC31202915060120E4F90000B70
:1003F3007405F0120026EF24F4FFEE3401FEE43D11
:10040300FDE43CFC9000071202B522120026900086
:1004130007E0F8A3E0F9A3E0FAA3E0FBC31202911B
:100423005028120E3A22222290000BE024FD701570
:10043300900014E0B4010E900016E004F0700690F2
:100443000015E004F0E490000BF022A2AF9204C286
:10045300AF75C7AA75C755439F01A20492AFE4F5D0
:1004630091EF24F9600C14600E2402700D75A63808
:10047300800875A630800375A630E4F5A775AF0430
:10048300A2AF9204C2AF75C7AA75C75543A401A210
:100493000492AF85AE0805A6A2AF9204C2AF75C79A
:1004A300AA75C75543A401A20492AF85AE09EF24F0
:1004B300F86003020538E50825E0FFE50954012F3C
:1004C300FF54C0F50BEF543FF50A74F22FFF75AFDD
:1004D3000C75A601E4F5A7A2AF9204C2AFA2AF9236
:1004E30004C2AF75C7AA75C75543AA40A20492AF09
:1004F30075C7AA75C75543A401A20492AFE5AE64BC
:100503004B600BE5AE64526005E5AEB45322E50AD9
:10051300C3940F5017E50B6440600BE50B648060D8
:1005230005E50BB4C00A74F22FFF800474FC2FFF9F
:10053300EFC313F50875C7AA75C75585088475C732
:10054300AA75C755850985A2AF9204C2AF75C7AA1C
:1005530075C755539FFEA20492AF22AB07AA06901C
:100563000014E0706DFC7DC61200D5AA04AB05EB48
:100573002401FFE43AFE7C007D141200D574172F8A
:10058300F58274003EF583E090002DF0EB2401FF2B
:10059300E43AC313FEEF13FF7C007D0A1200D57407
:1005A300172DF58274003CF583E0248090002EF033
:1005B300900017E090002FF0EB4A607A900019E06A
:1005C30090002FF0EB30E06E900018E090002FF0D9
:1005D30080647C037DE8AF03AE021200D5AA04ABAE
:1005E300057C007D0AAF03AE021200D574172DF50A
:1005F3008274003CF583E090002FF07C007D0AAF0D
:1006030003AE021200D57C007D0A1200D574172DAB
:10061300F58274003CF583E090002EF0AE02AF0348
:100623007C007D641200D574172FF58274003EF5AB
:1006330083E090002DF07B017A00792D120AA47FCC
:100643000A120DDDE490002FF090002EF090002DA3
:10065300F07B017A00792D120AA47F0A120DDD22A4
:10066300900033EBF0A3EAF0A3E9F0D2C5C2C330A4
:10067300C3FDE5BD64086005D20302071A75BCC05B
:10068300C2C5C2C330C3FDE5BD64186005D2030211
:10069300071A8FBCC2C330C3FDE5BD64286004D212
:1006A300038074D2C5C2C330C3FDE5BD64106004CA
:1006B300D2038063C2C575BCC1C2C330C3FDE5BDEF
:1006C30064406004D203804FE4FFD2C2C2C330C38C
:1006D300FDE5BD64506004D203803C900033E0FB31
:1006E300A3E0FAA3E0F98F82758300E5BC1200B39F
:1006F3000FEFB402D5C2C2C2C330C3FDE5BD645817
:100703006004D2038011C2C3D2C430C40A120DF4F0
:100713003003F7800280F3300308120DF4C2037F25
:1007230000227F012290002DEDF0A3EBF0A2AF9207
:1007330004C2AF75C7AA75C755E4F591A20492AF79
:1007430053C4F7F591EF24FE602124FE602524FCB9
:10075300602924F8602D24F0603124E0603524C042
:100763006039247F703B53C4F8803653C4F843C4C4
:1007730001802E53C4F843C402802653C4F843C4F3
:1007830003801E53C4F843C404801653C4F843C4FF
:1007930005800E53C4F843C406800653C4F843C40B
:1007A30007A2AF9204C2AF75C7AA75C755E4F59106
:1007B300A20492AF53C4EF90002DE0F5C6A3E0F579
:1007C300C5439C02D2AFA2AF9204C2AF75C7AA754C
:1007D300C755E4F591A20492AF43C40822E4900004
:1007E30027F0A3F0A31202C100000000A2AF9204FD
:1007F300C2AF75C7AA75C755E4F591A20492AF7548
:10080300B1FFF5B275B3FFF5B475ACFFF5AD7F0776
:1008130012044E75950412001A900014EFF0120D95
:100823000E12003E7B187DFC7F02120728900014F5
:10083300E07005120C798003120E0B120E61120385
:100843001F900014E0700312087B12001A9000142A
:10085300E06F6013A2AF9204C2AF75C7AA75C75504
:10086300439F80A20492AF900015E0FEA3E0FF1225
:10087300055E120B7D80C722120026900000E0F86F
:10088300A3E0F9A3E0FAA3E0FBC312029140030241
:100893000914120026EF2490FFEE3401FEE43DFD1F
:1008A300E43CFC9000001202B57B017A0079127FD0
:1008B300F8120BD3EF6054D3900013E0941490001C
:1008C30012E09400402FE4900004F0A3E004F0E071
:1008D300FFB40514900014E0700E900016E004F0CD
:1008E3007006900015E004F0EFD3940540239000C8
:1008F300057406F022900005E06016A3E014F0E012
:10090300700F900005F0A37402F022900004E0043D
:10091300F022787FE4F6D8FD9000007FFF7E04E4A8
:10092300F0A3DFFCDEFA75812002096A0207E0E426
:1009330093A3F8E493A34003F68001F208DFF48065
:1009430029E493A3F85407240CC8C333C4540F44B5
:1009530020C8834004F456800146F6DFE4800B018F
:1009630002040810204080900C27E47E019360BCB1
:10097300A3FF543F30E509541FFEE493A360010E27
:10098300CF54C025E060A840B8E493A3FAE493A34E
:10099300F8E493A3C8C582C8CAC583CAF0A3C8C56F
:1009A30082C8CAC583CADFE9DEE780BED2C5C2C337
:1009B30030C3FDE5BD64086004D203805CC2C57525
:1009C300BCC0C2C330C3FDE5BD64186004D203805C
:1009D300488FBCC2C330C3FDE5BD64286004D203A5
:1009E3008037AF058FBCC2C330C3FDE5BD6428604B
:1009F30004D2038024AF038FBCC2C330C3FDE5BD63
:100A030064286004D2038011D2C4C2C330C40A1262
:100A13000DF43003F7800280F3300308120DF4C2A3
:100A2300037F00227F0122120E0BA2AF9204C2AFFA
:100A330075C7AA75C755E4F59175C7AA75C7555308
:100A4300A37BA20492AFA2AF9204C2AF75C7AA75EB
:100A5300C755F591A20492AF75B1FFF5B275B3FF17
:100A6300F5B475ACFFF5AD43E98043EA8053EB7F02
:100A7300439B02D2AF120003C285438702120DC605
:100A83007F967E00120CCA2087EB3087FDA2AF92BF
:100A930004C2AF75C7AA75C755439F80A20492AF1E
:100AA30022900030EBF0A3EAF0A3E9F0C283A37431
:100AB30002F09000347407F0900034E0FFC36480C8
:100AC30094804039C284900030E0FBA3E0FAA3E0B5
:100AD300F9A3E0FD3395E08D82F583120086FEA82D
:100AE30007088002C313D8FC1392817F05120DDD22
:100AF300D284120DDD900034E014F080BB900033FB
:100B0300E014F0E0C36480948050A7D2837F0A127C
:100B13000DDDC28322C0E0C0F0C083C082C0D075A7
:100B2300D000C000C004C005C006C007C091A2AF7A
:100B33009204C2AF75C7AA75C755759100A20492F6
:100B4300AF53C4EF900036E0FCA3E0FDA3E0FEA3A7
:100B5300E02401FFE43EFEE43DFDE43CFC9000366E
:100B63001202B5D091D007D006D005D004D000D062
:100B7300D0D082D083D0F0D0E032900015E0FEA335
:100B8300E0FF90000CE06E7003A3E06F602712009B
:100B930026EF2440FFEE3477FEED341BFDE43CFCEE
:100BA30090000E1202B5900015E0FFA3E090000C38
:100BB300CFF0A3EFF012002690000EE0F8A3E0F9C7
:100BC300A3E0FAA3E0FBC31202915003120A2A2204
:100BD30090002DEBF0A3EAF0A3E9F07B017A007912
:100BE30030120663900032EFF0900031E0FF900086
:100BF3002DE0FBA3E0FAA3E0F9E48FF01201559096
:100C0300002DE0FBA3E0FAA3E0F912012AFE900015
:100C130030E07C002400FFEC3E8FF0120155900081
:100C230032E0FF22440036000000005000177E48E7
:100C33003D6D4B67774C7F6F5F0000000000420003
:100C430015000041001401440000000000004100B1
:100C530004004100050041000602440007000000B3
:100C63000041000B0042000CFFFF44000E00000097
:100C730000C100C10100E4FB7D01FF1209AF7BD07D
:100C83007DC07F031209AF7B0DE4FD7F041209AF22
:100C9300E4FB7F051209AF7B0F7DFF7F061209AFCF
:100CA300E4FBFD7F071209AF7B03E47F081209AF62
:100CB300E4FB7D02FF1209AFE47D82FF1209AF7BE3
:100CC30002E4FF1209AF22E4FCFD900036E0F8A332
:100CD300E0F9A3E0FAA3E02FFFEA3EFEED39FDECD5
:100CE30038FC90002D1202B5900036E0FCA3E0FD25
:100CF300A3E0FEA3E0FF90002DE0F8A3E0F9A3E05A
:100D0300FAA3E0FBD312029150DE22A2AF9204C2F7
:100D1300AF75C7AA75C755E4F591A20492AF43B363
:100D23000843B408A2AF9204C2AF75C7AA75C755EA
:100D3300F591A20492AF43B31043B41075BE04D22D
:100D4300C622C0E0C0D075D000C007C091A2AF9248
:100D530004C2AF75C7AA75C75543AA40A20492AF90
:100D6300AFAAEF5440F5AA60F7B292538FEFD09138
:100D7300D007D0D0D0E032C0E0C083C082C0913071
:100D8300980AD20190003AE599F0C298309905206B
:100D93000002C299D091D082D083D0E032C0E0C0AB
:100DA30083C082C09130F80A90003BE59AF0D202EA
:100DB300C2F830F905200002C2F9D091D082D08365
:100DC300D0E032A2AF9204C2AF75C7AA75C755E48B
:100DD300F591A20492AF43C40822E4FDFCEFFBC3E8
:100DE300ED9B7480F86C9850070DBD00010C80EDED
:100DF30022E5BD6005E5BDB4100DD203D2C4C2C364
:100E030030C304C2C6D2C6227D017C00E4FF120EA9
:100E1300217F03120E21E41D7F04120E2122AB0554
:100E2300AA04C007EAFBD0071209AF22900014E01E
:100E3300B40103120E5922900014E0B40103120A04
:100E43002A22900014E07003120E5922900014E03D
:100E53007003120A2A22E4900015F0A3F02243B192
:050E63008053B27F2264
:00000001FF
