:10000000020912A2AF9204C2AF75C7AA75C755E420
:10001000F591A20492AF53C4F72230B0037F0022BF
:100020007F0122020D81900037E0FCA3E0FDA3E0F8
:05003000FEA3E0FF2229
:10003B0002005653B1C543B23AD285C284C283C2C1
:02004B00812210
:10005300020D4CC0E0C0D075D000C007C0917591AF
:1000630000AFECEF2480700353EC7FD091D007D026
:04007300D0D0E032D7
:03007B00020DA7CC
:10008300020B1BBB010CE58229F582E5833AF5835C
:10009300E0225006E92582F8E622BBFE06E9258226
:1000A300F8E222E58229F582E5833AF583E4932297
:1000B300F8BB010DE58229F582E5833AF583E8F083
:1000C300225006E92582C8F622BBFE05E92582C82F
:1000D300F222BC000BBE0029EF8DF084FFADF022AD
:1000E300E4CCF875F008EF2FFFEE33FEEC33FCEEB3
:1000F3009DEC984005FCEE9DFE0FD5F0E9E4CEFDA6
:1001030022EDF8F5F0EE8420D21CFEADF075F00878
:10011300EF2FFFED33FD4007985006D5F0F222C3D1
:1001230098FD0FD5F0EA22BB010A89828A83E0F5A4
:10013300F0A3E022500687F009E71922BBFE07E38C
:10014300F5F009E3192289828A83E493F5F07401B7
:100153009322BB010A89828A83F0E5F0A3F022503F
:1001630006F709A7F01922BBFE06F3E5F009F31918
:1001730022E88FF0A4CC8BF0A42CFCE98EF0A42C05
:10018300FC8AF0EDA42CFCEA8EF0A4CDA8F08BF051
:10019300A42DCC3825F0FDE98FF0A42CCD35F0FC4F
:1001A300EB8EF0A4FEA9F0EB8FF0A4CFC5F02ECD1B
:1001B30039FEE43CFCEAA42DCE35F0FDE43CFC2200
:1001C30075F008758200EF2FFFEE33FECD33CDCCF3
:1001D30033CCC58233C5829BED9AEC99E582984076
:1001E3000CF582EE9BFEED9AFDEC99FC0FD5F0D653
:1001F300E4CEFBE4CDFAE4CCF9A88222B800C1B97D
:100203000059BA002DEC8BF084CFCECDFCE5F0CBBA
:10021300F97818EF2FFFEE33FEED33FDEC33FCEBF3
:1002230033FB10D703994004EB99FB0FD8E5E4F9AE
:10023300FA227818EF2FFFEE33FEED33FDEC33FC9B
:10024300C933C910D7059BE99A4007EC9BFCE99A8F
:10025300F90FD8E0E4C9FAE4CCFB2275F010EF2FD4
:10026300FFEE33FEED33FDCC33CCC833C810D707D4
:100273009BEC9AE899400AED9BFDEC9AFCE899F80F
:100283000FD5F0DAE4CDFBE4CCFAE4C8F922EB9F16
:10029300F5F0EA9E42F0E99D42F0E89C45F022E841
:1002A300600FECC313FCED13FDEE13FEEF13FFD849
:1002B300F122ECF0A3EDF0A3EEF0A3EFF022A8827D
:1002C3008583F0D083D0821202D81202D81202D8CA
:1002D3001202D8E473E493A3C583C5F0C583C8C5EC
:1002E30082C8F0A3C583C5F0C583C8C582C822D020
:1002F30083D082F8E4937012740193700DA3A393D7
:10030300F8740193F5828883E473740293B5F0065D
:100313007403936860E9A3A3A3A380D8308703027F
:10032300042890000BE014603424FE60681470030A
:100333000203D314700302040B2405600302044A6E
:1003430090000B7401F0120026EF2419FFE43EFE27
:10035300E43DFDE43CFC9000071202B522120026A6
:10036300900007E0F8A3E0F9A3E0FAA3E0FBC312CF
:100373000291400302044A90000B7403F01200261A
:10038300EF24D0FFEE3407FEE43DFDE43CFC900097
:10039300071202B522120026900007E0F8A3E0F945
:1003A300A3E0FAA3E0FBC3120291400302044A1242
:1003B3000E3690000B7404F0120026EF24F4FFEEC7
:1003C3003401FEE43DFDE43CFC9000071202B5223B
:1003D300120026900007E0F8A3E0F9A3E0FAA3E0F7
:1003E300FBC31202915060120E4C90000B7405F087
:1003F300120026EF24F4FFEE3401FEE43DFDE43C5D
:10040300FC9000071202B522120026900007E0F8C4
:10041300A3E0F9A3E0FAA3E0FBC312029150281270
:100423000E4122222290000BE024FD70159000144F
:10043300E0B4010E900016E004F07006900015E0A1
:1004430004F0E490000BF022A2AF9204C2AF75C790
:10045300AA75C755439F01A20492AFE4F591EF2417
:10046300F9600C14600E2402700D75A638800875AF
:10047300A630800375A630E4F5A775AF04A2AF924A
:1004830004C2AF75C7AA75C75543A401A20492AFAE
:1004930085AE0805A6A2AF9204C2AF75C7AA75C7F9
:1004A3005543A401A20492AF85AE09EF24F860037B
:1004B300020535E50825E0FFE50954012FFF54C087
:1004C300F50BEF543FF50A74F22FFF75AF0C75A6C9
:1004D30001E4F5A7A2AF9204C2AFA2AF9204C2AFE8
:1004E30075C7AA75C75543AA40A20492AF75C7AA98
:1004F30075C75543A401A20492AFE5AE644B600BEC
:10050300E5AE64526005E5AEB45322E50AC3940F29
:100513005017E50B6440600BE50B64806005E50B49
:10052300B4C00A74F22FFF800474FC2FFFEFC313CF
:10053300F50875C7AA75C75585088475C7AA75C711
:1005430055850985A2AF9204C2AF75C7AA75C75571
:10055300539FFEA20492AF22AB07AA06900014E0B9
:10056300706DFC7DC61200D5AA04AB05EB2401FF18
:10057300E43AFE7C007D141200D574172FF58274C3
:10058300003EF583E090002EF0EB2401FFE43AC334
:1005930013FEEF13FF7C007D0A1200D574172DF5AF
:1005A3008274003CF583E0248090002FF0900017C4
:1005B300E0900030F0EB4A607A900019E090003050
:1005C300F0EB30E06E900018E0900030F080647C37
:1005D300037DE8AF03AE021200D5AA04AB057C008D
:1005E3007D0AAF03AE021200D574172DF582740095
:1005F3003CF583E0900030F07C007D0AAF03AE024F
:100603001200D57C007D0A1200D574172DF5827473
:10061300003CF583E090002FF0AE02AF037C007D39
:10062300641200D574172FF58274003EF583E090B1
:10063300002EF07B017A00792E120AA77F0A120D91
:10064300E4E4900030F090002FF090002EF07B0156
:100653007A00792E120AA77F0A120DE42290003441
:10066300EBF0A3EAF0A3E9F0D2C5C2C330C3FDE5C2
:10067300BD64086005D20302071775BCC0C2C5C2BA
:10068300C330C3FDE5BD64186005D2030207178FAD
:10069300BCC2C330C3FDE5BD64286004D2038074CB
:1006A300D2C5C2C330C3FDE5BD64106004D203806C
:1006B30063C2C575BCC1C2C330C3FDE5BD64406040
:1006C30004D203804FE4FFD2C2C2C330C3FDE5BDF1
:1006D30064506004D203803C900034E0FBA3E0FA52
:1006E300A3E0F98F82758300E5BC1200B30FEFB46A
:1006F30002D5C2C2C2C330C3FDE5BD64586004D293
:10070300038011C2C3D2C430C40A120DFB3003F7F5
:10071300800280F3300308120DFBC2037F00227FA7
:10072300012290002EEDF0A3EBF0A2AF9204C2AF32
:1007330075C7AA75C755E4F591A20492AF53C4F7E0
:10074300F591EF24FE602124FE602524FC6029241A
:10075300F8602D24F0603124E0603524C060392432
:100763007F703B53C4F8803653C4F843C401802ED2
:1007730053C4F843C402802653C4F843C403801E01
:1007830053C4F843C404801653C4F843C405800E0D
:1007930053C4F843C406800653C4F843C407A2AF46
:1007A3009204C2AF75C7AA75C755E4F591A2049226
:1007B300AF53C4EF90002EE0F5C6A3E0F5C5439C0C
:1007C30002D2AFA2AF9204C2AF75C7AA75C755E4F0
:1007D300F591A20492AF43C40822E4900028F0A349
:1007E300F0A31202C100000000A2AF9204C2AF75D1
:1007F300C7AA75C755E4F591A20492AF75B1FFF589
:10080300B275B3FFF5B475ACFFF5AD7F0712044BBA
:1008130075950412001A900014EFF0120D151200D2
:100823003E7B187DFC7F02120725900014E07005C3
:10083300120C808003120E12120E5E12031F900020
:1008430014E0700312087812001A900014E06F602D
:1008530013A2AF9204C2AF75C7AA75C755439F8051
:10086300A20492AF900015E0FEA3E0FF12055B1215
:100873000BD680C722120026900000E0F8A3E0F90F
:10088300A3E0FAA3E0FBC312029140030209111291
:100893000026EF2490FFEE3401FEE43DFDE43CFC32
:1008A3009000001202B57B017A0079127FF8120CD6
:1008B3002CEF6054D3900013E09414900012E09452
:1008C30000402FE4900004F0A3E004F0E0FFB40341
:1008D30014900014E0700E900016E004F07006907F
:1008E3000015E004F0EFD394034023900005740453
:1008F300F022900005E06016A3E014F0E0700F9082
:100903000005F0A37402F022900004E004F02278C2
:100913007FE4F6D8FD9000007FFF7E04E4F0A3DFC0
:10092300FCDEFA7581200209670207DDE493A3F870
:10093300E493A34003F68001F208DFF48029E493F3
:10094300A3F85407240CC8C333C4540F4420C883EA
:100953004004F456800146F6DFE4800B01020408EC
:1009630010204080900B80E47E019360BCA3FF5471
:100973003F30E509541FFEE493A360010ECF54C03A
:1009830025E060A840B8E493A3FAE493A3F8E493C2
:10099300A3C8C582C8CAC583CAF0A3C8C582C8CACA
:1009A300C583CADFE9DEE780BE120E12A2AF92044E
:1009B300C2AF75C7AA75C755E4F59175C7AA75C7C0
:1009C3005553A37BA20492AFA2AF9204C2AF75C7E3
:1009D300AA75C755F591A20492AF75B1FFF5B2752B
:1009E300B3FFF5B475ACFFF5AD43E98043EA80533B
:1009F300EB7F439B02D2AF12000353B1DF43B2DF5D
:100A0300C285438702120DCD7F967E00120CD12042
:100A130087E53087FDA2AF9204C2AF75C7AA75C739
:100A230055439F80A20492AF22D2C5C2C330C3FDF7
:100A3300E5BD64086004D203805CC2C575BCC0C256
:100A4300C330C3FDE5BD64186004D20380488FBC86
:100A5300C2C330C3FDE5BD64286004D2038037AF51
:100A6300058FBCC2C330C3FDE5BD64286004D20357
:100A73008024AF038FBCC2C330C3FDE5BD642860CF
:100A830004D2038011D2C4C2C330C40A120DFB3096
:100A930003F7800280F3300308120DFBC2037F00CB
:100AA300227F0122900031EBF0A3EAF0A3E9F0C228
:100AB30083A37402F09000357407F0900035E0FFD3
:100AC300C3648094804039C284900031E0FBA3E08A
:100AD300FAA3E0F9A3E0FD3395E08D82F5831200DC
:100AE30086FEA807088002C313D8FC1392817F05F2
:100AF300120DE4D284120DE4900035E014F080BBB3
:100B0300900034E014F0E0C36480948050A7D28353
:100B13007F0A120DE4C28322C0E0C0F0C083C0820A
:100B2300C0D075D000C000C004C005C006C007C057
:100B330091A2AF9204C2AF75C7AA75C7557591004C
:100B4300A20492AF53C4EF900037E0FCA3E0FDA3EF
:100B5300E0FEA3E02401FFE43EFEE43DFDE43CFCB3
:100B63009000371202B5D091D007D006D005D0043B
:100B7300D000D0D0D082D083D0F0D0E03244003740
:100B8300000000005000177E483D6D4B67774C7F97
:100B93006F5F0000000000420015000041001401D7
:100BA300410027014400000000000041000400410F
:100BB3000005004100060244000700000000410058
:100BC3000B0042000CFFFF44000E00000000C100B8
:100BD300C10100900015E0FEA3E0FF90000CE06E61
:100BE3007003A3E06F6027120026EF2440FFEE346A
:100BF30077FEED341BFDE43CFC90000E1202B59031
:100C03000015E0FFA3E090000CCFF0A3EFF012007B
:100C13002690000EE0F8A3E0F9A3E0FAA3E0FBC3FB
:100C230012029150031209AC2290002EEBF0A3EABA
:100C3300F0A3E9F07B017A0079311206609000336A
:100C4300EFF0900032E0FF90002EE0FBA3E0FAA368
:100C5300E0F9E48FF012015590002EE0FBA3E0FAD7
:100C6300A3E0F912012AFE900031E07C002400FF8A
:100C7300EC3E8FF0120155900033E0FF22E4FB7D40
:100C830001FF120A2C7BD07DC07F03120A2C7B0D3F
:100C9300E4FD7F04120A2CE4FB7F05120A2C7B0F70
:100CA3007DFF7F06120A2CE4FBFD7F07120A2C7BD3
:100CB30003E47F08120A2CE4FB7D02FF120A2CE4F2
:100CC3007D82FF120A2C7B02E4FF120A2C22E4FC31
:100CD300FD900037E0F8A3E0F9A3E0FAA3E02FFFCB
:100CE300EA3EFEED39FDEC38FC90002E1202B59081
:100CF3000037E0FCA3E0FDA3E0FEA3E0FF90002E9D
:100D0300E0F8A3E0F9A3E0FAA3E0FBD312029150C9
:100D1300DE22A2AF9204C2AF75C7AA75C755E4F528
:100D230091A20492AF43B30843B408A2AF9204C2A2
:100D3300AF75C7AA75C755F591A20492AF43B31017
:100D430043B41075BE04D2C622C0E0C0D075D00033
:100D5300C007C091A2AF9204C2AF75C7AA75C755A9
:100D630043AA40A20492AFAFAAEF5440F5AA60F79A
:100D7300B292538FEFD091D007D0D0D0E032C0E001
:100D8300C083C082C09130980AD20190003BE5999C
:100D9300F0C298309905200002C299D091D082D038
:100DA30083D0E032C0E0C083C082C09130F80A90A3
:100DB300003CE59AF0D202C2F830F905200002C2E5
:100DC300F9D091D082D083D0E032A2AF9204C2AFE7
:100DD30075C7AA75C755E4F591A20492AF43C40839
:100DE30022E4FDFCEFFBC3ED9B7480F86C98500785
:100DF3000DBD00010C80ED22E5BD6005E5BDB4101D
:100E03000DD203D2C4C2C330C304C2C6D2C6227D2C
:100E1300017C00E4FF120E287F03120E28E41D7FDD
:100E230004120E2822AB05AA04C007EAFBD007125E
:100E33000A2C22900014E0B40103120E56229000F3
:100E430014E0B401031209AC22900014E070031201
:100E530009AC22E4900015F0A3F02243B18053B211
:020E63007F22EC
:00000001FF
