:10000000020877A2AF9204C2AF75C7AA75C755E4BC
:10001000F591A20492AF53C4F7223095037F0022DA
:100020007F0122020D5B900036E0FCA3E0FDA3E01F
:05003000FEA3E0FF2229
:10003B0002005653B1C543B23AD285C284C283C2C1
:02004B00812210
:10005300020D26C0E0C0D075D000C007C0917591D5
:1000630000AFECEF2480700353EC7FD091D007D026
:04007300D0D0E032D7
:03007B00020D81F2
:10008300020AF9BB010CE58229F582E5833AF5837F
:10009300E0225006E92582F8E622BBFE06E9258226
:1000A300F8E222E58229F582E5833AF583E4932297
:1000B300F8BB010DE58229F582E5833AF583E8F083
:1000C300225006E92582C8F622BBFE05E92582C82F
:1000D300F222BC000BBE0029EF8DF084FFADF022AD
:1000E300E4CCF875F008EF2FFFEE33FEEC33FCEEB3
:1000F3009DEC984005FCEE9DFE0FD5F0E9E4CEFDA6
:1001030022EDF8F5F0EE8420D21CFEADF075F00878
:10011300EF2FFFED33FD4007985006D5F0F222C3D1
:1001230098FD0FD5F0EA22BB010A89828A83E0F5A4
:10013300F0A3E022500687F009E71922BBFE07E38C
:10014300F5F009E3192289828A83E493F5F07401B7
:100153009322BB010A89828A83F0E5F0A3F022503F
:1001630006F709A7F01922BBFE06F3E5F009F31918
:1001730022E88FF0A4CC8BF0A42CFCE98EF0A42C05
:10018300FC8AF0EDA42CFCEA8EF0A4CDA8F08BF051
:10019300A42DCC3825F0FDE98FF0A42CCD35F0FC4F
:1001A300EB8EF0A4FEA9F0EB8FF0A4CFC5F02ECD1B
:1001B30039FEE43CFCEAA42DCE35F0FDE43CFC2200
:1001C30075F008758200EF2FFFEE33FECD33CDCCF3
:1001D30033CCC58233C5829BED9AEC99E582984076
:1001E3000CF582EE9BFEED9AFDEC99FC0FD5F0D653
:1001F300E4CEFBE4CDFAE4CCF9A88222B800C1B97D
:100203000059BA002DEC8BF084CFCECDFCE5F0CBBA
:10021300F97818EF2FFFEE33FEED33FDEC33FCEBF3
:1002230033FB10D703994004EB99FB0FD8E5E4F9AE
:10023300FA227818EF2FFFEE33FEED33FDEC33FC9B
:10024300C933C910D7059BE99A4007EC9BFCE99A8F
:10025300F90FD8E0E4C9FAE4CCFB2275F010EF2FD4
:10026300FFEE33FEED33FDCC33CCC833C810D707D4
:100273009BEC9AE899400AED9BFDEC9AFCE899F80F
:100283000FD5F0DAE4CDFBE4CCFAE4C8F922EB9F16
:10029300F5F0EA9E42F0E99D42F0E89C45F022E841
:1002A300600FECC313FCED13FDEE13FEEF13FFD849
:1002B300F122ECF0A3EDF0A3EEF0A3EFF022A8827D
:1002C3008583F0D083D0821202D81202D81202D8CA
:1002D3001202D8E473E493A3C583C5F0C583C8C5EC
:1002E30082C8F0A3C583C5F0C583C8C582C822D020
:1002F30083D082F8E4937012740193700DA3A393D7
:10030300F8740193F5828883E473740293B5F0065D
:100313007403936860E9A3A3A3A380D8308703027F
:10032300042890000BE014603424FE60681470030A
:100333000203D314700302040B2405600302044A6E
:1003430090000B7401F0120026EF2419FFE43EFE27
:10035300E43DFDE43CFC9000071202B522120026A6
:10036300900007E0F8A3E0F9A3E0FAA3E0FBC312CF
:100373000291400302044A90000B7403F01200261A
:10038300EF24D0FFEE3407FEE43DFDE43CFC900097
:10039300071202B522120026900007E0F8A3E0F945
:1003A300A3E0FAA3E0FBC3120291400302044A1242
:1003B3000E1090000B7404F0120026EF24F4FFEEED
:1003C3003401FEE43DFDE43CFC9000071202B5223B
:1003D300120026900007E0F8A3E0F9A3E0FAA3E0F7
:1003E300FBC31202915060120E2690000B7405F0AD
:1003F300120026EF24F4FFEE3401FEE43DFDE43C5D
:10040300FC9000071202B522120026900007E0F8C4
:10041300A3E0F9A3E0FAA3E0FBC312029150281270
:100423000E1B22222290000BE024FD701590001475
:10043300E0B4010E900016E004F07006900015E0A1
:1004430004F0E490000BF022A2AF9204C2AF75C790
:10045300AA75C755439F01A20492AFE4F591EF2417
:10046300F9600C14600E2402700D75A638800875AF
:10047300A630800375A630E4F5A775AF04A2AF924A
:1004830004C2AF75C7AA75C75543A401A20492AFAE
:1004930085AE0805A6A2AF9204C2AF75C7AA75C7F9
:1004A3005543A401A20492AF85AE09EF24F860037B
:1004B300020535E50825E0FFE50954012FFF54C087
:1004C300F50BEF543FF50A74F22FFF75AF0C75A6C9
:1004D30001E4F5A7A2AF9204C2AFA2AF9204C2AFE8
:1004E30075C7AA75C75543AA40A20492AF75C7AA98
:1004F30075C75543A401A20492AFE5AE644B600BEC
:10050300E5AE64526005E5AEB45322E50AC3940F29
:100513005017E50B6440600BE50B64806005E50B49
:10052300B4C00A74F22FFF800474FC2FFFEFC313CF
:10053300F50875C7AA75C75585088475C7AA75C711
:1005430055850985A2AF9204C2AF75C7AA75C75571
:10055300539FFEA20492AF22AB07AA06900014E0B9
:10056300706DFC7DC61200D5AA04AB05EB2401FF18
:10057300E43AFE7C007D141200D574172FF58274C3
:10058300003EF583E090002DF0EB2401FFE43AC335
:1005930013FEEF13FF7C007D0A1200D574172DF5AF
:1005A3008274003CF583E0248090002EF0900017C5
:1005B300E090002FF0EB4A607A900019E090002F52
:1005C300F0EB30E06E900018E090002FF080647C38
:1005D300037DE8AF03AE021200D5AA04AB057C008D
:1005E3007D0AAF03AE021200D574172DF582740095
:1005F3003CF583E090002FF07C007D0AAF03AE0250
:100603001200D57C007D0A1200D574172DF5827473
:10061300003CF583E090002EF0AE02AF037C007D3A
:10062300641200D574172FF58274003EF583E090B1
:10063300002DF07B017A00792D120A857F0A120DB5
:10064300BEE490002FF090002EF090002DF07B017F
:100653007A00792D120A857F0A120DBE229000338B
:10066300EBF0A3EAF0A3E9F0D2C5C2C330C3FDE5C2
:10067300BD64086005D20302071775BCC0C2C5C2BA
:10068300C330C3FDE5BD64186005D2030207178FAD
:10069300BCC2C330C3FDE5BD64286004D2038074CB
:1006A300D2C5C2C330C3FDE5BD64106004D203806C
:1006B30063C2C575BCC1C2C330C3FDE5BD64406040
:1006C30004D203804FE4FFD2C2C2C330C3FDE5BDF1
:1006D30064506004D203803C900033E0FBA3E0FA53
:1006E300A3E0F98F82758300E5BC1200B30FEFB46A
:1006F30002D5C2C2C2C330C3FDE5BD64586004D293
:10070300038011C2C3D2C430C40A120DD53003F71B
:10071300800280F3300308120DD5C2037F00227FCD
:10072300012290002DEDF0A3EBF0A2AF9204C2AF33
:1007330075C7AA75C755E4F591A20492AF53C4F7E0
:10074300F591EF24FE602124FE602524FC6029241A
:10075300F8602D24F0603124E0603524C060392432
:100763007F703B53C4F8803653C4F843C401802ED2
:1007730053C4F843C402802653C4F843C403801E01
:1007830053C4F843C404801653C4F843C405800E0D
:1007930053C4F843C406800653C4F843C407A2AF46
:1007A3009204C2AF75C7AA75C755E4F591A2049226
:1007B300AF53C4EF90002DE0F5C6A3E0F5C5439C0D
:1007C30002D2AFA2AF9204C2AF75C7AA75C755E4F0
:1007D300F591A20492AF43C40822120026900000B0
:1007E300E0F8A3E0F9A3E0FAA3E0FBC3120291400F
:1007F30003020876120026EF2490FFEE3401FEE494
:100803003DFDE43CFC9000001202B57B017A0079C7
:10081300127FF8120BB4EF6054D3900013E09414DA
:10082300900012E09400402FE4900004F0A3E00451
:10083300F0E0FFB40314900014E0700E900016E093
:1008430004F07006900015E004F0EFD39403402306
:100853009000057404F022900005E06016A3E014F4
:10086300F0E0700F900005F0A37402F022900004F2
:10087300E004F022787FE4F6D8FD9000007FFF7E4D
:1008830004E4F0A3DFFCDEFA7581200208CC020940
:1008930011E493A3F8E493A34003F68001F208DF85
:1008A300F48029E493A3F85407240CC8C333C45435
:1008B3000F4420C8834004F456800146F6DFE480E9
:1008C3000B0102040810204080900C08E47E019381
:1008D30060BCA3FF543F30E509541FFEE493A360BB
:1008E300010ECF54C025E060A840B8E493A3FAE416
:1008F30093A3F8E493A3C8C582C8CAC583CAF0A367
:10090300C8C582C8CAC583CADFE9DEE780BEE490F2
:100913000027F0A3F0A31202C100000000A2AF92CF
:1009230004C2AF75C7AA75C755E4F591A20492AF87
:1009330075B1FFF5B275B3FFF5B475ACFFF5AD7FD7
:100943000712044B75950412001A900014EFF0126D
:100953000CEF12003E7B187DFC7F021207259000EE
:1009630014E07005120C5A8003120DEC120E3812AB
:10097300031F900014E070031207DD900015E0FEE2
:10098300A3E0FF12055B120B5E80E422120DECA2C2
:10099300AF9204C2AF75C7AA75C755E4F59175C781
:1009A300AA75C75553A37BA20492AFA2AF9204C208
:1009B300AF75C7AA75C755F591A20492AF75B1FF7C
:1009C300F5B275B3FFF5B475ACFFF5AD43E98043FC
:1009D300EA8053EB7F439B02D2AF1200035387FE9F
:1009E300438702120DA77F967E00120CAB2087EA85
:1009F3003087FDA2AF9204C2AF75C7AA75C755432E
:100A03009F80A20492AF22D2C5C2C330C3FDE5BD0D
:100A130064086004D203805CC2C575BCC0C2C33025
:100A2300C3FDE5BD64186004D20380488FBCC2C314
:100A330030C3FDE5BD64286004D2038037AF058F62
:100A4300BCC2C330C3FDE5BD64286004D203802467
:100A5300AF038FBCC2C330C3FDE5BD64286004D2BD
:100A6300038011D2C4C2C330C40A120DD53003F7B8
:100A7300800280F3300308120DD5C2037F00227F6A
:100A83000122900030EBF0A3EAF0A3E9F0C283A3C4
:100A93007402F09000347407F0900034E0FFC364F4
:100AA3008094804039C284900030E0FBA3E0FAA335
:100AB300E0F9A3E0FD3395E08D82F583120086FE15
:100AC300A807088002C313D8FC1392817F05120D77
:100AD300BED284120DBE900034E014F080BB9000AF
:100AE30033E014F0E0C36480948050A7D2837F0A7C
:100AF300120DBEC28322C0E0C0F0C083C082C0D04A
:100B030075D000C000C004C005C006C007C091A2D4
:100B1300AF9204C2AF75C7AA75C755759100A204F9
:100B230092AF53C4EF900036E0FCA3E0FDA3E0FED8
:100B3300A3E02401FFE43EFEE43DFDE43CFC900021
:100B4300361202B5D091D007D006D005D004D0001C
:100B5300D0D0D082D083D0F0D0E032900015E0FE28
:100B6300A3E0FF90000CE06E7003A3E06F60271218
:100B73000026EF24C0FFEE34D4FEED3401FDE43C47
:100B8300FC90000E1202B5900015E0FFA3E0900068
:100B93000CCFF0A3EFF012002690000EE0F8A3E0D4
:100BA300F9A3E0FAA3E0FBC3120291500312098FE9
:100BB3002290002DEBF0A3EAF0A3E9F07B017A0089
:100BC3007930120660900032EFF0900031E0FF9030
:100BD300002DE0FBA3E0FAA3E0F9E48FF012015546
:100BE30090002DE0FBA3E0FAA3E0F912012AFE90A6
:100BF3000030E07C002400FFEC3E8FF012015590A2
:100C03000032E0FF22440036000000005000177E4F
:100C1300483D6D4B67774C7F6F5F000000000042DB
:100C230000150000410014014400000000000041D1
:100C330000040041000500410006024400070000D3
:100C4300000041000B0042000CFFFF44000E0000B7
:100C53000000C100C10100E4FB7D01FF120A0A7B11
:100C6300D07DC07F03120A0A7B0DE4FD7F04120AC4
:100C73000AE4FB7F05120A0A7B0F7DFF7F06120A37
:100C83000AE4FBFD7F07120A0A7B03E47F08120ACA
:100C93000AE4FB7D02FF120A0AE47D82FF120A0ABC
:100CA3007B02E4FF120A0A22E4FCFD900036E0F81E
:100CB300A3E0F9A3E0FAA3E02FFFEA3EFEED39FD3E
:100CC300EC38FC90002D1202B5900036E0FCA3E056
:100CD300FDA3E0FEA3E0FF90002DE0F8A3E0F9A35D
:100CE300E0FAA3E0FBD312029150DE22A2AF9204FA
:100CF300C2AF75C7AA75C755E4F591A20492AF4375
:100D0300B30843B408A2AF9204C2AF75C7AA75C7AC
:100D130055F591A20492AF43B31043B41075BE04CA
:100D2300D2C622C0E0C0D075D000C007C091A2AF28
:100D33009204C2AF75C7AA75C75543AA40A20492CD
:100D4300AFAFAAEF5440F5AA60F7B292538FEFD03A
:100D530091D007D0D0D0E032C0E0C083C082C09130
:100D630030980AD20190003AE599F0C2983099057B
:100D7300200002C299D091D082D083D0E032C0E06B
:100D8300C083C082C09130F80A90003BE59AF0D24C
:100D930002C2F830F905200002C2F9D091D082D006
:100DA30083D0E032A2AF9204C2AF75C7AA75C7550C
:100DB300E4F591A20492AF43C40822E4FDFCEFFBE7
:100DC300C3ED9B7480F86C9850070DBD00010C8037
:100DD300ED22E5BD6005E5BDB4100DD203D2C4C25A
:100DE300C330C304C2C6D2C6227D017C00E4FF1215
:100DF3000E027F03120E02E41D7F04120E0222ABC9
:100E030005AA04C007EAFBD007120A0A22900014BD
:100E1300E0B40103120E3022900014E0B401031277
:100E2300098F22900014E0700312098F22E49000CE
:0C0E330015F0A3F02243B18053B27F22DF
:00000001FF
