:100000000207B8A2AF9204C2AF75C7AA75C755E47C
:10001000F591A20492AF53C4F7223095037F0022DA
:100020007F0122020D1A900036E0FCA3E0FDA3E060
:05003000FEA3E0FF2229
:10003B0002005653B1C543B23AD285C284C283C2C1
:02004B00812210
:10005300020CE5C0E0C0D075D000C007C091759117
:1000630000AFECEF2480700353EC7FD091D007D026
:04007300D0D0E032D7
:03007B00020D4033
:10008300020AB8BB010CE58229F582E5833AF583C0
:10009300E0225006E92582F8E622BBFE06E9258226
:1000A300F8E222E58229F582E5833AF583E4932297
:1000B300F8BB010DE58229F582E5833AF583E8F083
:1000C300225006E92582C8F622BBFE05E92582C82F
:1000D300F222BC000BBE0029EF8DF084FFADF022AD
:1000E300E4CCF875F008EF2FFFEE33FEEC33FCEEB3
:1000F3009DEC984005FCEE9DFE0FD5F0E9E4CEFDA6
:1001030022EDF8F5F0EE8420D21CFEADF075F00878
:10011300EF2FFFED33FD4007985006D5F0F222C3D1
:1001230098FD0FD5F0EA22BB010A89828A83E0F5A4
:10013300F0A3E022500687F009E71922BBFE07E38C
:10014300F5F009E3192289828A83E493F5F07401B7
:100153009322BB010A89828A83F0E5F0A3F022503F
:1001630006F709A7F01922BBFE06F3E5F009F31918
:1001730022E88FF0A4CC8BF0A42CFCE98EF0A42C05
:10018300FC8AF0EDA42CFCEA8EF0A4CDA8F08BF051
:10019300A42DCC3825F0FDE98FF0A42CCD35F0FC4F
:1001A300EB8EF0A4FEA9F0EB8FF0A4CFC5F02ECD1B
:1001B30039FEE43CFCEAA42DCE35F0FDE43CFC2200
:1001C30075F008758200EF2FFFEE33FECD33CDCCF3
:1001D30033CCC58233C5829BED9AEC99E582984076
:1001E3000CF582EE9BFEED9AFDEC99FC0FD5F0D653
:1001F300E4CEFBE4CDFAE4CCF9A88222B800C1B97D
:100203000059BA002DEC8BF084CFCECDFCE5F0CBBA
:10021300F97818EF2FFFEE33FEED33FDEC33FCEBF3
:1002230033FB10D703994004EB99FB0FD8E5E4F9AE
:10023300FA227818EF2FFFEE33FEED33FDEC33FC9B
:10024300C933C910D7059BE99A4007EC9BFCE99A8F
:10025300F90FD8E0E4C9FAE4CCFB2275F010EF2FD4
:10026300FFEE33FEED33FDCC33CCC833C810D707D4
:100273009BEC9AE899400AED9BFDEC9AFCE899F80F
:100283000FD5F0DAE4CDFBE4CCFAE4C8F922EB9F16
:10029300F5F0EA9E42F0E99D42F0E89C45F022E841
:1002A300600FECC313FCED13FDEE13FEEF13FFD849
:1002B300F122ECF0A3EDF0A3EEF0A3EFF022A8827D
:1002C3008583F0D083D0821202D81202D81202D8CA
:1002D3001202D8E473E493A3C583C5F0C583C8C5EC
:1002E30082C8F0A3C583C5F0C583C8C582C822D020
:1002F30083D082F8E4937012740193700DA3A393D7
:10030300F8740193F5828883E473740293B5F0065D
:100313007403936860E9A3A3A3A380D8A2AF920454
:10032300C2AF75C7AA75C755439F01A20492AFE434
:10033300F591EF24F9600C14600E2402700D75A67C
:1003430038800875A630800375A630E4F5A775AF2D
:1003530004A2AF9204C2AF75C7AA75C75543A401DF
:10036300A20492AF85AE0805A6A2AF9204C2AF75F0
:10037300C7AA75C75543A401A20492AF85AE09EF7E
:1003830024F86003020409E50825E0FFE5095401A8
:100393002FFF54C0F50BEF543FF50A74F22FFF758E
:1003A300AF0C75A601E4F5A7A2AF9204C2AFA2AF4A
:1003B3009204C2AF75C7AA75C75543AA40A2049257
:1003C300AF75C7AA75C75543A401A20492AFE5AEA2
:1003D300644B600BE5AE64526005E5AEB45322E5B1
:1003E3000AC3940F5017E50B6440600BE50B648060
:1003F3006005E50BB4C00A74F22FFF800474FC2F70
:10040300FFEFC313F50875C7AA75C755850884752B
:10041300C7AA75C755850985A2AF9204C2AF75C730
:10042300AA75C755539FFEA20492AF2230870302D9
:10043300053590000BE014603424FE6068147003EB
:100443000204E01470030205182405600302053A50
:1004530090000B7401F0120026EF2419FFE43EFE16
:10046300E43DFDE43CFC9000071202B52212002695
:10047300900007E0F8A3E0F9A3E0FAA3E0FBC312BE
:100483000291400302053A90000B7403F012002618
:10049300EF24D0FFEE3407FEE43DFDE43CFC900086
:1004A300071202B522120026900007E0F8A3E0F934
:1004B300A3E0FAA3E0FBC3120291507B120DCF908D
:1004C300000B7404F0120026EF24F4FFEE3401FE57
:1004D300E43DFDE43CFC9000071202B52212002625
:1004E300900007E0F8A3E0F9A3E0FAA3E0FBC3124E
:1004F30002915043120DE590000B7405F012002693
:10050300EF24F4FFEE3401FEE43DFDE43CFC9000F7
:10051300071202B522120026900007E0F8A3E0F9C3
:10052300A3E0FAA3E0FBC3120291500B120DDA22EF
:100533002222E490000BF022AB07AA06900014E0FD
:10054300706DFC7DC61200D5AA04AB05EB2401FF38
:10055300E43AFE7C007D141200D574172FF58274E3
:10056300003EF583E090002DF0EB2401FFE43AC355
:1005730013FEEF13FF7C007D0A1200D574172DF5CF
:100583008274003CF583E0248090002EF0900017E5
:10059300E090002FF0EB4A607A900019E090002F72
:1005A300F0EB30E06E900018E090002FF080647C58
:1005B300037DE8AF03AE021200D5AA04AB057C00AD
:1005C3007D0AAF03AE021200D574172DF5827400B5
:1005D3003CF583E090002FF07C007D0AAF03AE0270
:1005E3001200D57C007D0A1200D574172DF5827494
:1005F300003CF583E090002EF0AE02AF037C007D5B
:10060300641200D574172FF58274003EF583E090D1
:10061300002DF07B017A00792D1209DA7F0A120D81
:100623007DE490002FF090002EF090002DF07B01E0
:100633007A00792D1209DA22900033EBF0A3EAF065
:10064300A3E9F0D2C5C2C330C3FDE5BD64086005AC
:10065300D2030206F275BCC0C2C5C2C330C3FDE5F6
:10066300BD64186005D2030206F28FBCC2C330C357
:10067300FDE5BD64286004D2038074D2C5C2C330D3
:10068300C3FDE5BD64106004D2038063C2C575BCBD
:10069300C1C2C330C3FDE5BD64406004D203804FD3
:1006A300E4FFD2C2C2C330C3FDE5BD64506004D2CF
:1006B30003803C900033E0FBA3E0FAA3E0F98F82D0
:1006C300758300E5BC1200B30FEFB402D5C2C2C2FA
:1006D300C330C3FDE5BD64586004D2038011C2C3B7
:1006E300D2C430C40A120D943003F7800280F33071
:1006F3000308120D94C2037F00227F012290002D74
:10070300EDF0A3EBF0A2AF9204C2AF75C7AA75C711
:1007130055E4F591A20492AF53C4F7F591EF24FE8B
:10072300602124FE602524FC602924F8602D24F038
:10073300603124E0603524C06039247F703B53C4AA
:10074300F8803653C4F843C401802E53C4F843C41D
:1007530002802653C4F843C403801E53C4F843C421
:1007630004801653C4F843C405800E53C4F843C42D
:1007730006800653C4F843C407A2AF9204C2AF7500
:10078300C7AA75C755E4F591A20492AF53C4EF907D
:10079300002DE0F5C6A3E0F5C5439C02D2AFA2AF9E
:1007A3009204C2AF75C7AA75C755E4F591A2049226
:1007B300AF43C40822787FE4F6D8FD9000007FFFA2
:1007C3007E04E4F0A3DFFCDEFA75812002080D024B
:1007D3000A4EE493A3F8E493A34003F68001F208DE
:1007E300DFF48029E493A3F85407240CC8C333C46B
:1007F300540F4420C8834004F456800146F6DFE4D6
:10080300800B0102040810204080900BC7E47E0196
:100813009360BCA3FF543F30E509541FFEE493A348
:1008230060010ECF54C025E060A840B8E493A3FA5A
:10083300E493A3F8E493A3C8C582C8CAC583CAF0E6
:10084300A3C8C582C8CAC583CADFE9DEE780BE1272
:100853000026900000E0F8A3E0F9A3E0FAA3E0FB90
:10086300C31202915079120026EF2490FFEE340157
:10087300FEE43DFDE43CFC9000001202B57B017AEE
:100883000079127FF8120B73EF604ED3900013E0E0
:10089300941E900012E094004029E4900004F0A319
:1008A300E004F0E0FFB4030E900016E004F07006DD
:1008B300900015E004F0EFD39403402390000574F7
:1008C30004F022900005E06016A3E014F0E0700F3E
:1008D300900005F0A37402F022900004E004F022DB
:1008E300120DABA2AF9204C2AF75C7AA75C755E488
:1008F300F59175C7AA75C75553A37BA20492AFA2FE
:10090300AF9204C2AF75C7AA75C755F591A20492F9
:10091300AF75B1FFF5B275B3FFF5B475ACFFF5ADC7
:1009230043E98043EA8053EB7F439B02D2AF12003B
:10093300035387FE438702120D667F967E00120CD7
:100943006A2087EA800280E6A2AF9204C2AF75C72D
:10095300AA75C755439F80A20492AF22D2C5C2C3D2
:1009630030C3FDE5BD64086004D203805CC2C57575
:10097300BCC0C2C330C3FDE5BD64186004D20380AC
:10098300488FBCC2C330C3FDE5BD64286004D203F5
:100993008037AF058FBCC2C330C3FDE5BD6428609B
:1009A30004D2038024AF038FBCC2C330C3FDE5BDB3
:1009B30064286004D2038011D2C4C2C330C40A12B3
:1009C3000D943003F7800280F3300308120D94C2B4
:1009D300037F00227F0122900030EBF0A3EAF0A313
:1009E300E9F0C283A37402F09000347407F090001E
:1009F30034E0FFC3648094804039C284900030E0C7
:100A0300FBA3E0FAA3E0F9A3E0FD3395E08D82F5C3
:100A130083120086FEA807088002C313D8FC139232
:100A2300817F05120D7DD284120D7D900034E01478
:100A3300F080BB900033E014F0E0C36480948050F6
:100A4300A7D2837F05120D7DC28322E4900027F095
:100A5300A3F0A31202C100000000A2AF9204C2AF30
:100A630075C7AA75C755E4F591A20492AF75B1FF96
:100A7300F5B275B3FFF5B475ACFFF5AD7F0712039F
:100A83001F120CAE12003E7B187DFC7F1012070074
:100A9300120C19120DF712001A900014EFF0120441
:100AA3002F120852900015E0FEA3E0FF12053B123F
:100AB3000B1D80EA22C0E0C0F0C083C082C0D075A5
:100AC300D000C000C004C005C006C007C091A2AFDB
:100AD3009204C2AF75C7AA75C755759100A2049257
:100AE300AF53C4EF900036E0FCA3E0FDA3E0FEA308
:100AF300E02401FFE43EFEE43DFDE43CFC900036CF
:100B03001202B5D091D007D006D005D004D000D0C2
:100B1300D0D082D083D0F0D0E032900015E0FEA395
:100B2300E0FF90000CE06E7003A3E06F60271200FB
:100B330026EF24C0FFEE34D4FEED3401FDE43CFC8B
:100B430090000E1202B5900015E0FFA3E090000C98
:100B5300CFF0A3EFF012002690000EE0F8A3E0F927
:100B6300A3E0FAA3E0FBC312029150031208E322AD
:100B730090002DEBF0A3EAF0A3E9F07B017A007972
:100B83003012063B900032EFF0900031E0FF90000E
:100B93002DE0FBA3E0FAA3E0F9E48FF012015590F6
:100BA300002DE0FBA3E0FAA3E0F912012AFE900076
:100BB30030E07C002400FFEC3E8FF01201559000E2
:100BC30032E0FF22440036000000005000177E4848
:100BD3003D6D4B67774C7F6F5F0000000000420064
:100BE3001500004100140144000000000000410012
:100BF3000400410005004100060244000700000014
:100C03000041000B0042000CFFFF44000E000000F7
:100C130000C100C10100E4FB7D01FF12095F7BA05D
:100C23007DC07F0312095F7B0DE4FD7F0412095F22
:100C3300E4FB7F0512095F7B0F7DFF7F0612095FCF
:100C4300E4FBFD7F0712095F7B03E47F0812095F62
:100C5300E4FB7D02FF12095FE47D82FF12095F7BE3
:100C630002E4FF12095F22E4FCFD900036E0F8A3E2
:100C7300E0F9A3E0FAA3E02FFFEA3EFEED39FDEC35
:100C830038FC90002D1202B5900036E0FCA3E0FD85
:100C9300A3E0FEA3E0FF90002DE0F8A3E0F9A3E0BA
:100CA300FAA3E0FBD312029150DE22A2AF9204C258
:100CB300AF75C7AA75C755E4F591A20492AF43B3C4
:100CC3000843B408A2AF9204C2AF75C7AA75C7554B
:100CD300F591A20492AF43B31043B41075BE27D26B
:100CE300C622C0E0C0D075D000C007C091A2AF92A9
:100CF30004C2AF75C7AA75C75543AA40A20492AFF1
:100D0300AFAAEF5440F5AA60F7B292538FEFD09198
:100D1300D007D0D0D0E032C0E0C083C082C09130D1
:100D2300980AD20190003AE599F0C29830990520CB
:100D33000002C299D091D082D083D0E032C0E0C00B
:100D430083C082C09130F80A90003BE59AF0D2024A
:100D5300C2F830F905200002C2F9D091D082D083C5
:100D6300D0E032A2AF9204C2AF75C7AA75C755E4EB
:100D7300F591A20492AF43C40822E4FDFCEFFBC348
:100D8300ED9B7480F86C9850070DBD00010C80ED4D
:100D930022E5BD6005E5BDB4100DD203D2C4C2C3C4
:100DA30030C304C2C6D2C6227D017C00E4FF120D0B
:100DB300C17F03120DC1E41D7F04120DC122AB05D7
:100DC300AA04C007EAFBD00712095F22900014E0CF
:100DD300B40103120DEF22900014E0B401031208D2
:100DE300E322900014E070031208E322E49000155C
:0B0DF300F0A3F02243B18053B27F2236
:00000001FF
